{
  "contractName": "BridgeGetters",
  "abi": [
    {
      "inputs": [
        {
          "internalType": "bytes32",
          "name": "hash",
          "type": "bytes32"
        }
      ],
      "name": "governanceActionIsConsumed",
      "outputs": [
        {
          "internalType": "bool",
          "name": "",
          "type": "bool"
        }
      ],
      "stateMutability": "view",
      "type": "function"
    },
    {
      "inputs": [
        {
          "internalType": "address",
          "name": "impl",
          "type": "address"
        }
      ],
      "name": "isInitialized",
      "outputs": [
        {
          "internalType": "bool",
          "name": "",
          "type": "bool"
        }
      ],
      "stateMutability": "view",
      "type": "function"
    },
    {
      "inputs": [
        {
          "internalType": "bytes32",
          "name": "hash",
          "type": "bytes32"
        }
      ],
      "name": "isTransferCompleted",
      "outputs": [
        {
          "internalType": "bool",
          "name": "",
          "type": "bool"
        }
      ],
      "stateMutability": "view",
      "type": "function"
    },
    {
      "inputs": [],
      "name": "wormhole",
      "outputs": [
        {
          "internalType": "contract IWormhole",
          "name": "",
          "type": "address"
        }
      ],
      "stateMutability": "view",
      "type": "function"
    },
    {
      "inputs": [],
      "name": "chainId",
      "outputs": [
        {
          "internalType": "uint16",
          "name": "",
          "type": "uint16"
        }
      ],
      "stateMutability": "view",
      "type": "function"
    },
    {
      "inputs": [],
      "name": "governanceChainId",
      "outputs": [
        {
          "internalType": "uint16",
          "name": "",
          "type": "uint16"
        }
      ],
      "stateMutability": "view",
      "type": "function"
    },
    {
      "inputs": [],
      "name": "governanceContract",
      "outputs": [
        {
          "internalType": "bytes32",
          "name": "",
          "type": "bytes32"
        }
      ],
      "stateMutability": "view",
      "type": "function"
    },
    {
      "inputs": [
        {
          "internalType": "uint16",
          "name": "tokenChainId",
          "type": "uint16"
        },
        {
          "internalType": "bytes32",
          "name": "tokenAddress",
          "type": "bytes32"
        }
      ],
      "name": "wrappedAsset",
      "outputs": [
        {
          "internalType": "address",
          "name": "",
          "type": "address"
        }
      ],
      "stateMutability": "view",
      "type": "function"
    },
    {
      "inputs": [
        {
          "internalType": "uint16",
          "name": "chainId_",
          "type": "uint16"
        }
      ],
      "name": "bridgeContracts",
      "outputs": [
        {
          "internalType": "bytes32",
          "name": "",
          "type": "bytes32"
        }
      ],
      "stateMutability": "view",
      "type": "function"
    },
    {
      "inputs": [],
      "name": "tokenImplementation",
      "outputs": [
        {
          "internalType": "address",
          "name": "",
          "type": "address"
        }
      ],
      "stateMutability": "view",
      "type": "function"
    },
    {
      "inputs": [],
      "name": "WETH",
      "outputs": [
        {
          "internalType": "contract IWETH",
          "name": "",
          "type": "address"
        }
      ],
      "stateMutability": "view",
      "type": "function"
    },
    {
      "inputs": [
        {
          "internalType": "address",
          "name": "token",
          "type": "address"
        }
      ],
      "name": "outstandingBridged",
      "outputs": [
        {
          "internalType": "uint256",
          "name": "",
          "type": "uint256"
        }
      ],
      "stateMutability": "view",
      "type": "function"
    },
    {
      "inputs": [
        {
          "internalType": "address",
          "name": "token",
          "type": "address"
        }
      ],
      "name": "isWrappedAsset",
      "outputs": [
        {
          "internalType": "bool",
          "name": "",
          "type": "bool"
        }
      ],
      "stateMutability": "view",
      "type": "function"
    }
  ],
  "bytecode": "0x608060405234801561001057600080fd5b50610372806100206000396000f3fe608060405234801561001057600080fd5b50600436106100cf5760003560e01c8063aa4efa5b1161008c578063b172b22211610066578063b172b2221461022d578063b96c7e4d14610235578063d60b347f1461025e578063fbe3c2cd1461028a57600080fd5b8063aa4efa5b146101c7578063ad5c4648146101ea578063ad66a5f1146101fb57600080fd5b80631a2be4da146100d45780631ff1e286146101155780632c3c02a4146101675780632f3a3d5d1461018a57806384acd1bb1461019b5780639a8a0592146101ac575b600080fd5b6101006100e23660046102b3565b6001600160a01b031660009081526009602052604090205460ff1690565b60405190151581526020015b60405180910390f35b61014f610123366004610313565b61ffff91909116600090815260086020908152604080832093835292905220546001600160a01b031690565b6040516001600160a01b03909116815260200161010c565b6101006101753660046102e1565b60009081526005602052604090205460ff1690565b6001546001600160a01b031661014f565b6000546001600160a01b031661014f565b60025461ffff165b60405161ffff909116815260200161010c565b6101006101d53660046102e1565b60009081526006602052604090205460ff1690565b6004546001600160a01b031661014f565b61021f6102093660046102f9565b61ffff166000908152600b602052604090205490565b60405190815260200161010c565b60035461021f565b61021f6102433660046102b3565b6001600160a01b03166000908152600a602052604090205490565b61010061026c3660046102b3565b6001600160a01b031660009081526007602052604090205460ff1690565b60025462010000900461ffff166101b4565b803561ffff811681146102ae57600080fd5b919050565b6000602082840312156102c4578081fd5b81356001600160a01b03811681146102da578182fd5b9392505050565b6000602082840312156102f2578081fd5b5035919050565b60006020828403121561030a578081fd5b6102da8261029c565b60008060408385031215610325578081fd5b61032e8361029c565b94602093909301359350505056fea26469706673582212201da1736eba2859845e897ba9407511a48494520cb8e153c67f7a5532f152bf6b64736f6c63430008040033",
  "immutableReferences": {},
  "source": "// contracts/Getters.sol\n// SPDX-License-Identifier: Apache 2\n\npragma solidity ^0.8.0;\n\n// import \"@openzeppelin/contracts/token/ERC20/IERC20.sol\";\nimport \"./kip7/KIP7/IKIP7.sol\";\n\nimport \"../interfaces/IWormhole.sol\";\n\nimport \"./BridgeState.sol\";\n\ncontract BridgeGetters is BridgeState {\n    function governanceActionIsConsumed(bytes32 hash) public view returns (bool) {\n        return _state.consumedGovernanceActions[hash];\n    }\n\n    function isInitialized(address impl) public view returns (bool) {\n        return _state.initializedImplementations[impl];\n    }\n\n    function isTransferCompleted(bytes32 hash) public view returns (bool) {\n        return _state.completedTransfers[hash];\n    }\n\n    function wormhole() public view returns (IWormhole) {\n        return IWormhole(_state.wormhole);\n    }\n\n    function chainId() public view returns (uint16){\n        return _state.provider.chainId;\n    }\n\n    function governanceChainId() public view returns (uint16){\n        return _state.provider.governanceChainId;\n    }\n\n    function governanceContract() public view returns (bytes32){\n        return _state.provider.governanceContract;\n    }\n\n    function wrappedAsset(uint16 tokenChainId, bytes32 tokenAddress) public view returns (address){\n        return _state.wrappedAssets[tokenChainId][tokenAddress];\n    }\n\n    function bridgeContracts(uint16 chainId_) public view returns (bytes32){\n        return _state.bridgeImplementations[chainId_];\n    }\n\n    function tokenImplementation() public view returns (address){\n        return _state.tokenImplementation;\n    }\n\n    function WETH() public view returns (IWETH){\n        return IWETH(_state.provider.WETH);\n    }\n\n    function outstandingBridged(address token) public view returns (uint256){\n        return _state.outstandingBridged[token];\n    }\n\n    function isWrappedAsset(address token) public view returns (bool){\n        return _state.isWrappedAsset[token];\n    }\n}\n\ninterface IWETH is IKIP7 {\n    function deposit() external payable;\n\n    function withdraw(uint amount) external;\n}",
  "sourcePath": "/Users/nguyenthithuthao/Downloads/Documents/wormhole-kip7/contracts/bridge/BridgeGetters.sol",
  "compiler": {
    "name": "solc",
    "version": "0.8.4+commit.c7e474f2.Emscripten.clang"
  },
  "schemaVersion": "3.4.1",
  "updatedAt": "2022-01-26T09:33:50.456Z",
  "devdoc": {
    "kind": "dev",
    "methods": {},
    "version": 1
  },
  "userdoc": {
    "kind": "user",
    "methods": {},
    "version": 1
  }
}