{
  "contractName": "Bridge",
  "abi": [
    {
      "anonymous": false,
      "inputs": [
        {
          "indexed": false,
          "internalType": "address",
          "name": "previousAdmin",
          "type": "address"
        },
        {
          "indexed": false,
          "internalType": "address",
          "name": "newAdmin",
          "type": "address"
        }
      ],
      "name": "AdminChanged",
      "type": "event"
    },
    {
      "anonymous": false,
      "inputs": [
        {
          "indexed": true,
          "internalType": "address",
          "name": "beacon",
          "type": "address"
        }
      ],
      "name": "BeaconUpgraded",
      "type": "event"
    },
    {
      "anonymous": false,
      "inputs": [
        {
          "indexed": true,
          "internalType": "address",
          "name": "oldContract",
          "type": "address"
        },
        {
          "indexed": true,
          "internalType": "address",
          "name": "newContract",
          "type": "address"
        }
      ],
      "name": "ContractUpgraded",
      "type": "event"
    },
    {
      "anonymous": false,
      "inputs": [
        {
          "indexed": true,
          "internalType": "address",
          "name": "implementation",
          "type": "address"
        }
      ],
      "name": "Upgraded",
      "type": "event"
    },
    {
      "inputs": [],
      "name": "WETH",
      "outputs": [
        {
          "internalType": "contract IWETH",
          "name": "",
          "type": "address"
        }
      ],
      "stateMutability": "view",
      "type": "function"
    },
    {
      "inputs": [
        {
          "internalType": "uint16",
          "name": "chainId_",
          "type": "uint16"
        }
      ],
      "name": "bridgeContracts",
      "outputs": [
        {
          "internalType": "bytes32",
          "name": "",
          "type": "bytes32"
        }
      ],
      "stateMutability": "view",
      "type": "function"
    },
    {
      "inputs": [],
      "name": "chainId",
      "outputs": [
        {
          "internalType": "uint16",
          "name": "",
          "type": "uint16"
        }
      ],
      "stateMutability": "view",
      "type": "function"
    },
    {
      "inputs": [
        {
          "internalType": "bytes32",
          "name": "hash",
          "type": "bytes32"
        }
      ],
      "name": "governanceActionIsConsumed",
      "outputs": [
        {
          "internalType": "bool",
          "name": "",
          "type": "bool"
        }
      ],
      "stateMutability": "view",
      "type": "function"
    },
    {
      "inputs": [],
      "name": "governanceChainId",
      "outputs": [
        {
          "internalType": "uint16",
          "name": "",
          "type": "uint16"
        }
      ],
      "stateMutability": "view",
      "type": "function"
    },
    {
      "inputs": [],
      "name": "governanceContract",
      "outputs": [
        {
          "internalType": "bytes32",
          "name": "",
          "type": "bytes32"
        }
      ],
      "stateMutability": "view",
      "type": "function"
    },
    {
      "inputs": [
        {
          "internalType": "address",
          "name": "impl",
          "type": "address"
        }
      ],
      "name": "isInitialized",
      "outputs": [
        {
          "internalType": "bool",
          "name": "",
          "type": "bool"
        }
      ],
      "stateMutability": "view",
      "type": "function"
    },
    {
      "inputs": [
        {
          "internalType": "bytes32",
          "name": "hash",
          "type": "bytes32"
        }
      ],
      "name": "isTransferCompleted",
      "outputs": [
        {
          "internalType": "bool",
          "name": "",
          "type": "bool"
        }
      ],
      "stateMutability": "view",
      "type": "function"
    },
    {
      "inputs": [
        {
          "internalType": "address",
          "name": "token",
          "type": "address"
        }
      ],
      "name": "isWrappedAsset",
      "outputs": [
        {
          "internalType": "bool",
          "name": "",
          "type": "bool"
        }
      ],
      "stateMutability": "view",
      "type": "function"
    },
    {
      "inputs": [
        {
          "internalType": "address",
          "name": "token",
          "type": "address"
        }
      ],
      "name": "outstandingBridged",
      "outputs": [
        {
          "internalType": "uint256",
          "name": "",
          "type": "uint256"
        }
      ],
      "stateMutability": "view",
      "type": "function"
    },
    {
      "inputs": [
        {
          "internalType": "bytes",
          "name": "encoded",
          "type": "bytes"
        }
      ],
      "name": "parseRegisterChain",
      "outputs": [
        {
          "components": [
            {
              "internalType": "bytes32",
              "name": "module",
              "type": "bytes32"
            },
            {
              "internalType": "uint8",
              "name": "action",
              "type": "uint8"
            },
            {
              "internalType": "uint16",
              "name": "chainId",
              "type": "uint16"
            },
            {
              "internalType": "uint16",
              "name": "emitterChainID",
              "type": "uint16"
            },
            {
              "internalType": "bytes32",
              "name": "emitterAddress",
              "type": "bytes32"
            }
          ],
          "internalType": "struct BridgeStructs.RegisterChain",
          "name": "chain",
          "type": "tuple"
        }
      ],
      "stateMutability": "pure",
      "type": "function"
    },
    {
      "inputs": [
        {
          "internalType": "bytes",
          "name": "encoded",
          "type": "bytes"
        }
      ],
      "name": "parseUpgrade",
      "outputs": [
        {
          "components": [
            {
              "internalType": "bytes32",
              "name": "module",
              "type": "bytes32"
            },
            {
              "internalType": "uint8",
              "name": "action",
              "type": "uint8"
            },
            {
              "internalType": "uint16",
              "name": "chainId",
              "type": "uint16"
            },
            {
              "internalType": "bytes32",
              "name": "newContract",
              "type": "bytes32"
            }
          ],
          "internalType": "struct BridgeStructs.UpgradeContract",
          "name": "chain",
          "type": "tuple"
        }
      ],
      "stateMutability": "pure",
      "type": "function"
    },
    {
      "inputs": [
        {
          "internalType": "bytes",
          "name": "encodedVM",
          "type": "bytes"
        }
      ],
      "name": "registerChain",
      "outputs": [],
      "stateMutability": "nonpayable",
      "type": "function"
    },
    {
      "inputs": [],
      "name": "tokenImplementation",
      "outputs": [
        {
          "internalType": "address",
          "name": "",
          "type": "address"
        }
      ],
      "stateMutability": "view",
      "type": "function"
    },
    {
      "inputs": [
        {
          "internalType": "bytes",
          "name": "encodedVM",
          "type": "bytes"
        }
      ],
      "name": "upgrade",
      "outputs": [],
      "stateMutability": "nonpayable",
      "type": "function"
    },
    {
      "inputs": [],
      "name": "wormhole",
      "outputs": [
        {
          "internalType": "contract IWormhole",
          "name": "",
          "type": "address"
        }
      ],
      "stateMutability": "view",
      "type": "function"
    },
    {
      "inputs": [
        {
          "internalType": "uint16",
          "name": "tokenChainId",
          "type": "uint16"
        },
        {
          "internalType": "bytes32",
          "name": "tokenAddress",
          "type": "bytes32"
        }
      ],
      "name": "wrappedAsset",
      "outputs": [
        {
          "internalType": "address",
          "name": "",
          "type": "address"
        }
      ],
      "stateMutability": "view",
      "type": "function"
    },
    {
      "stateMutability": "payable",
      "type": "receive"
    },
    {
      "inputs": [
        {
          "internalType": "address",
          "name": "tokenAddress",
          "type": "address"
        },
        {
          "internalType": "uint32",
          "name": "nonce",
          "type": "uint32"
        }
      ],
      "name": "attestToken",
      "outputs": [
        {
          "internalType": "uint64",
          "name": "sequence",
          "type": "uint64"
        }
      ],
      "stateMutability": "payable",
      "type": "function"
    },
    {
      "inputs": [
        {
          "internalType": "uint16",
          "name": "recipientChain",
          "type": "uint16"
        },
        {
          "internalType": "bytes32",
          "name": "recipient",
          "type": "bytes32"
        },
        {
          "internalType": "uint256",
          "name": "arbiterFee",
          "type": "uint256"
        },
        {
          "internalType": "uint32",
          "name": "nonce",
          "type": "uint32"
        }
      ],
      "name": "wrapAndTransferETH",
      "outputs": [
        {
          "internalType": "uint64",
          "name": "sequence",
          "type": "uint64"
        }
      ],
      "stateMutability": "payable",
      "type": "function"
    },
    {
      "inputs": [
        {
          "internalType": "address",
          "name": "token",
          "type": "address"
        },
        {
          "internalType": "uint256",
          "name": "amount",
          "type": "uint256"
        },
        {
          "internalType": "uint16",
          "name": "recipientChain",
          "type": "uint16"
        },
        {
          "internalType": "bytes32",
          "name": "recipient",
          "type": "bytes32"
        },
        {
          "internalType": "uint256",
          "name": "arbiterFee",
          "type": "uint256"
        },
        {
          "internalType": "uint32",
          "name": "nonce",
          "type": "uint32"
        }
      ],
      "name": "transferTokens",
      "outputs": [
        {
          "internalType": "uint64",
          "name": "sequence",
          "type": "uint64"
        }
      ],
      "stateMutability": "payable",
      "type": "function"
    },
    {
      "inputs": [
        {
          "internalType": "bytes",
          "name": "encodedVm",
          "type": "bytes"
        }
      ],
      "name": "updateWrapped",
      "outputs": [
        {
          "internalType": "address",
          "name": "token",
          "type": "address"
        }
      ],
      "stateMutability": "nonpayable",
      "type": "function"
    },
    {
      "inputs": [
        {
          "internalType": "bytes",
          "name": "encodedVm",
          "type": "bytes"
        }
      ],
      "name": "createWrapped",
      "outputs": [
        {
          "internalType": "address",
          "name": "token",
          "type": "address"
        }
      ],
      "stateMutability": "nonpayable",
      "type": "function"
    },
    {
      "inputs": [
        {
          "internalType": "bytes",
          "name": "encodedVm",
          "type": "bytes"
        }
      ],
      "name": "completeTransfer",
      "outputs": [],
      "stateMutability": "nonpayable",
      "type": "function"
    },
    {
      "inputs": [
        {
          "internalType": "bytes",
          "name": "encodedVm",
          "type": "bytes"
        }
      ],
      "name": "completeTransferAndUnwrapETH",
      "outputs": [],
      "stateMutability": "nonpayable",
      "type": "function"
    },
    {
      "inputs": [
        {
          "components": [
            {
              "internalType": "uint8",
              "name": "payloadID",
              "type": "uint8"
            },
            {
              "internalType": "bytes32",
              "name": "tokenAddress",
              "type": "bytes32"
            },
            {
              "internalType": "uint16",
              "name": "tokenChain",
              "type": "uint16"
            },
            {
              "internalType": "uint8",
              "name": "decimals",
              "type": "uint8"
            },
            {
              "internalType": "bytes32",
              "name": "symbol",
              "type": "bytes32"
            },
            {
              "internalType": "bytes32",
              "name": "name",
              "type": "bytes32"
            }
          ],
          "internalType": "struct BridgeStructs.AssetMeta",
          "name": "meta",
          "type": "tuple"
        }
      ],
      "name": "encodeAssetMeta",
      "outputs": [
        {
          "internalType": "bytes",
          "name": "encoded",
          "type": "bytes"
        }
      ],
      "stateMutability": "pure",
      "type": "function"
    },
    {
      "inputs": [
        {
          "components": [
            {
              "internalType": "uint8",
              "name": "payloadID",
              "type": "uint8"
            },
            {
              "internalType": "uint256",
              "name": "amount",
              "type": "uint256"
            },
            {
              "internalType": "bytes32",
              "name": "tokenAddress",
              "type": "bytes32"
            },
            {
              "internalType": "uint16",
              "name": "tokenChain",
              "type": "uint16"
            },
            {
              "internalType": "bytes32",
              "name": "to",
              "type": "bytes32"
            },
            {
              "internalType": "uint16",
              "name": "toChain",
              "type": "uint16"
            },
            {
              "internalType": "uint256",
              "name": "fee",
              "type": "uint256"
            }
          ],
          "internalType": "struct BridgeStructs.Transfer",
          "name": "transfer",
          "type": "tuple"
        }
      ],
      "name": "encodeTransfer",
      "outputs": [
        {
          "internalType": "bytes",
          "name": "encoded",
          "type": "bytes"
        }
      ],
      "stateMutability": "pure",
      "type": "function"
    },
    {
      "inputs": [
        {
          "internalType": "bytes",
          "name": "encoded",
          "type": "bytes"
        }
      ],
      "name": "parseAssetMeta",
      "outputs": [
        {
          "components": [
            {
              "internalType": "uint8",
              "name": "payloadID",
              "type": "uint8"
            },
            {
              "internalType": "bytes32",
              "name": "tokenAddress",
              "type": "bytes32"
            },
            {
              "internalType": "uint16",
              "name": "tokenChain",
              "type": "uint16"
            },
            {
              "internalType": "uint8",
              "name": "decimals",
              "type": "uint8"
            },
            {
              "internalType": "bytes32",
              "name": "symbol",
              "type": "bytes32"
            },
            {
              "internalType": "bytes32",
              "name": "name",
              "type": "bytes32"
            }
          ],
          "internalType": "struct BridgeStructs.AssetMeta",
          "name": "meta",
          "type": "tuple"
        }
      ],
      "stateMutability": "pure",
      "type": "function"
    },
    {
      "inputs": [
        {
          "internalType": "bytes",
          "name": "encoded",
          "type": "bytes"
        }
      ],
      "name": "parseTransfer",
      "outputs": [
        {
          "components": [
            {
              "internalType": "uint8",
              "name": "payloadID",
              "type": "uint8"
            },
            {
              "internalType": "uint256",
              "name": "amount",
              "type": "uint256"
            },
            {
              "internalType": "bytes32",
              "name": "tokenAddress",
              "type": "bytes32"
            },
            {
              "internalType": "uint16",
              "name": "tokenChain",
              "type": "uint16"
            },
            {
              "internalType": "bytes32",
              "name": "to",
              "type": "bytes32"
            },
            {
              "internalType": "uint16",
              "name": "toChain",
              "type": "uint16"
            },
            {
              "internalType": "uint256",
              "name": "fee",
              "type": "uint256"
            }
          ],
          "internalType": "struct BridgeStructs.Transfer",
          "name": "transfer",
          "type": "tuple"
        }
      ],
      "stateMutability": "pure",
      "type": "function"
    }
  ],
  "bytecode": "0x608060405234801561001057600080fd5b50614ab1806100206000396000f3fe608060405260043610620001df5760003560e01c8063aa4efa5b11620000ff578063c68785191162000095578063f768441f116200006c578063f768441f146200070c578063fbe3c2cd1462000731578063fbeeacd91462000752578063ff200cde14620007b257600080fd5b8063c68785191462000685578063d60b347f14620006aa578063e805981014620006e757600080fd5b8063b046223b11620000d6578063b046223b14620005f8578063b172b222146200061d578063b96c7e4d1462000634578063c48fa115146200066e57600080fd5b8063aa4efa5b1462000560578063ad5c46481462000594578063ad66a5f114620005b457600080fd5b80632c3c02a4116200017557806384acd1bb116200014c57806384acd1bb14620004da5780639981509f14620004fa5780639a8a05921462000511578063a5799f93146200053b57600080fd5b80632c3c02a414620004525780632f3a3d5d14620004865780635f85426614620004a657600080fd5b80631a2be4da11620001b65780631a2be4da14620003165780631ff1e28614620003645780632539464514620003a25780632b51137514620003c957600080fd5b806301f5325514620001ec57806307dfd8fb146200026a5780630f5287b014620002e657600080fd5b36620001e757005b600080fd5b348015620001f957600080fd5b50620002116200020b366004620037a6565b620007d7565b604051620002619190600060a0820190508251825260ff6020840151166020830152604083015161ffff808216604085015280606086015116606085015250506080830151608083015292915050565b60405180910390f35b3480156200027757600080fd5b506200028f62000289366004620037a6565b620009e1565b604051620002619190600060c08201905060ff83511682526020830151602083015261ffff604084015116604083015260ff60608401511660608301526080830151608083015260a083015160a083015292915050565b620002fd620002f7366004620036ce565b62000b70565b6040516001600160401b03909116815260200162000261565b3480156200032357600080fd5b506200035362000335366004620036aa565b6001600160a01b031660009081526009602052604090205460ff1690565b604051901515815260200162000261565b3480156200037157600080fd5b50620003896200038336600462003b42565b620010c4565b6040516001600160a01b03909116815260200162000261565b348015620003af57600080fd5b50620003c7620003c1366004620037a6565b620010f3565b005b348015620003d657600080fd5b50620003ee620003e8366004620037a6565b620011d7565b604051620002619190600060e08201905060ff83511682526020830151602083015260408301516040830152606083015161ffff8082166060850152608085015160808501528060a08601511660a0850152505060c083015160c083015292915050565b3480156200045f57600080fd5b50620003536200047136600462003774565b60009081526005602052604090205460ff1690565b3480156200049357600080fd5b506001546001600160a01b031662000389565b348015620004b357600080fd5b50620004cb620004c5366004620038f0565b6200138c565b60405162000261919062003c9f565b348015620004e757600080fd5b506000546001600160a01b031662000389565b620002fd6200050b36600462003b70565b62001421565b3480156200051e57600080fd5b5060025461ffff165b60405161ffff909116815260200162000261565b3480156200054857600080fd5b50620003c76200055a366004620037a6565b620016af565b3480156200056d57600080fd5b50620003536200057f36600462003774565b60009081526006602052604090205460ff1690565b348015620005a157600080fd5b506004546001600160a01b031662000389565b348015620005c157600080fd5b50620005e9620005d336600462003b04565b61ffff166000908152600b602052604090205490565b60405190815260200162000261565b3480156200060557600080fd5b50620004cb6200061736600462003856565b6200181c565b3480156200062a57600080fd5b50600354620005e9565b3480156200064157600080fd5b50620005e962000653366004620036aa565b6001600160a01b03166000908152600a602052604090205490565b620002fd6200067f36600462003739565b62001895565b3480156200069257600080fd5b50620003c7620006a4366004620037a6565b62001b95565b348015620006b757600080fd5b5062000353620006c9366004620036aa565b6001600160a01b031660009081526007602052604090205460ff1690565b348015620006f457600080fd5b506200038962000706366004620037a6565b62001ba5565b3480156200071957600080fd5b50620003896200072b366004620037a6565b62001cc4565b3480156200073e57600080fd5b5060025462010000900461ffff1662000527565b3480156200075f57600080fd5b506200077762000771366004620037a6565b62001dd9565b6040516200026191908151815260208083015160ff169082015260408083015161ffff16908201526060918201519181019190915260800190565b348015620007bf57600080fd5b50620003c7620007d1366004620037a6565b62001fb4565b6040805160a0810182526000808252602082018190529181018290526060810182905260808101829052906200080e838262001fc1565b82526200081d60208262003e6f565b82519091506a546f6b656e427269646765146200088d5760405162461bcd60e51b815260206004820152602360248201527f696e76616c6964205265676973746572436861696e3a2077726f6e67206d6f64604482015262756c6560e81b60648201526084015b60405180910390fd5b62000899838262002023565b60ff166020830152620008ae60018262003e6f565b9050816020015160ff16600114620009155760405162461bcd60e51b815260206004820152602360248201527f696e76616c6964205265676973746572436861696e3a2077726f6e672061637460448201526234b7b760e91b606482015260840162000884565b62000921838262002083565b61ffff1660408301526200093760028262003e6f565b905062000945838262002083565b61ffff1660608301526200095b60028262003e6f565b905062000969838262001fc1565b60808301526200097b60208262003e6f565b905080835114620009db5760405162461bcd60e51b815260206004820152602360248201527f696e76616c6964205265676973746572436861696e3a2077726f6e67206c656e6044820152620cee8d60eb1b606482015260840162000884565b50919050565b6040805160c081018252600080825260208201819052918101829052606081018290526080810182905260a081018290529062000a1f838262002023565b60ff16825262000a3160018262003e6f565b9050816000015160ff1660021462000a805760405162461bcd60e51b8152602060048201526011602482015270696e76616c69642041737365744d65746160781b604482015260640162000884565b62000a8c838262001fc1565b60208084019190915262000aa1908262003e6f565b905062000aaf838262002083565b61ffff16604083015262000ac560028262003e6f565b905062000ad3838262002023565b60ff16606083015262000ae860018262003e6f565b905062000af6838262001fc1565b608083015262000b0860208262003e6f565b905062000b16838262001fc1565b60a083015262000b2860208262003e6f565b905080835114620009db5760405162461bcd60e51b8152602060048201526011602482015270696e76616c69642041737365744d65746160781b604482015260640162000884565b600080600062000b98896001600160a01b031660009081526009602052604090205460ff1690565b1562000c9257886001600160a01b0316639a8a05926040518163ffffffff1660e01b815260040160206040518083038186803b15801562000bd857600080fd5b505afa15801562000bed573d6000803e3d6000fd5b505050506040513d601f19601f8201168201806040525081019062000c13919062003b23565b9150886001600160a01b0316633d6c043b6040518163ffffffff1660e01b815260040160206040518083038186803b15801562000c4f57600080fd5b505afa15801562000c64573d6000803e3d6000fd5b505050506040513d601f19601f8201168201806040525081019062000c8a91906200378d565b905062000ca6565b505060025461ffff166001600160a01b0388165b60408051600481526024810182526020810180516001600160e01b031663313ce56760e01b17905290516000916001600160a01b038c169162000cea919062003c28565b600060405180830381855afa9150503d806000811462000d27576040519150601f19603f3d011682016040523d82523d6000602084013e62000d2c565b606091505b5091505060008180602001905181019062000d48919062003bdb565b905062000d6162000d5a8b83620020e4565b8262002123565b995062000d7160025461ffff1690565b61ffff168461ffff16141562000f8c57604080513060248083019190915282518083039091018152604490910182526020810180516001600160e01b03166370a0823160e01b17905290516000916001600160a01b038e169162000dd6919062003c28565b600060405180830381855afa9150503d806000811462000e13576040519150601f19603f3d011682016040523d82523d6000602084013e62000e18565b606091505b5091505060008180602001905181019062000e3491906200378d565b604051632142170760e11b8152336004820152306024820152604481018e90529091506001600160a01b038e16906342842e0e90606401600060405180830381600087803b15801562000e8657600080fd5b505af115801562000e9b573d6000803e3d6000fd5b5050505060008d6001600160a01b03166370a0823160e01b3060405160240162000ed491906001600160a01b0391909116815260200190565b60408051601f198184030181529181526020820180516001600160e01b03166001600160e01b031990941693909317909252905162000f14919062003c28565b600060405180830381855afa9150503d806000811462000f51576040519150601f19603f3d011682016040523d82523d6000602084013e62000f56565b606091505b5091505060008180602001905181019062000f7291906200378d565b905062000f80838262003fd5565b9d505050505062001057565b604051632142170760e11b8152336004820152306024820152604481018b90526001600160a01b038c16906342842e0e90606401600060405180830381600087803b15801562000fdb57600080fd5b505af115801562000ff0573d6000803e3d6000fd5b5050604051632770a7eb60e21b8152306004820152602481018d90526001600160a01b038e169250639dc29fac9150604401600060405180830381600087803b1580156200103d57600080fd5b505af115801562001052573d6000803e3d6000fd5b505050505b6000620010658b83620020e4565b90506000620010758984620020e4565b90506200108560025461ffff1690565b61ffff168661ffff161415620010a157620010a18d8362002158565b620010b38686848e8e86348f62002225565b9d9c50505050505050505050505050565b61ffff821660009081526008602090815260408083208484529091529020546001600160a01b03165b92915050565b6000806000620011038462002363565b9250925092508181906200112c5760405162461bcd60e51b815260040162000884919062003c9f565b50620011528361014001516000908152600560205260409020805460ff19166001179055565b6000620011638460e0015162001dd9565b90506200117360025461ffff1690565b61ffff16816040015161ffff1614620011c05760405162461bcd60e51b815260206004820152600e60248201526d1ddc9bdb99c818da185a5b881a5960921b604482015260640162000884565b6060810151620011d09062002592565b5050505050565b6040805160e081018252600080825260208201819052918101829052606081018290526080810182905260a0810182905260c08101829052906200121c838262002023565b60ff1682526200122e60018262003e6f565b9050816000015160ff166001146200127c5760405162461bcd60e51b815260206004820152601060248201526f34b73b30b634b2102a3930b739b332b960811b604482015260640162000884565b620012888382620026c9565b6020808401919091526200129d908262003e6f565b9050620012ab838262001fc1565b6040830152620012bd60208262003e6f565b9050620012cb838262002083565b61ffff166060830152620012e160028262003e6f565b9050620012ef838262001fc1565b60808301526200130160208262003e6f565b90506200130f838262002083565b61ffff1660a08301526200132560028262003e6f565b9050620013338382620026c9565b60c08301526200134560208262003e6f565b905080835114620009db5760405162461bcd60e51b815260206004820152601060248201526f34b73b30b634b2102a3930b739b332b960811b604482015260640162000884565b8051602080830151604080850151606080870151608088015160a089015160c08a0151955160f89990991b6001600160f81b031916978901979097526021880195909552604187019290925260f091821b6001600160f01b03199081166061880152606387019490945293901b909116608384015260858301529060a5015b6040516020818303038152906040529050919050565b600080620014376000546001600160a01b031690565b6001600160a01b0316631a90a2196040518163ffffffff1660e01b815260040160206040518083038186803b1580156200147057600080fd5b505afa15801562001485573d6000803e3d6000fd5b505050506040513d601f19601f82011682018060405250810190620014ab91906200378d565b9050348110620015095760405162461bcd60e51b815260206004820152602260248201527f76616c756520697320736d616c6c6572207468616e20776f726d686f6c652066604482015261656560f01b606482015260840162000884565b600062001517823462003fd5565b905080851115620015805760405162461bcd60e51b815260206004820152602c60248201527f66656520697320626967676572207468616e20616d6f756e74206d696e75732060448201526b776f726d686f6c652066656560a01b606482015260840162000884565b60006200158f826012620020e4565b90506000620015a0876012620020e4565b90506000620015b183601262002123565b620015bd908562003fd5565b90508015620015f657604051339082156108fc029083906000818181858888f19350505050158015620015f4573d6000803e3d6000fd5b505b6004546001600160a01b031663d0e30db062001613838762003fd5565b6040518263ffffffff1660e01b81526004016000604051808303818588803b1580156200163f57600080fd5b505af115801562001654573d6000803e3d6000fd5b505050505062001677620016706004546001600160a01b031690565b8462002158565b620016a16200168960025461ffff1690565b6004546001600160a01b0316858d8d878b8e62002225565b9a9950505050505050505050565b6000806000620016bf8462002363565b925092509250818190620016e85760405162461bcd60e51b815260040162000884919062003c9f565b506200170e8361014001516000908152600560205260409020805460ff19166001179055565b60006200171f8460e00151620007d7565b90506200172f60025461ffff1690565b61ffff16816040015161ffff1614806200174f5750604081015161ffff16155b620017905760405162461bcd60e51b815260206004820152601060248201526f1a5b9d985b1a590818da185a5b881a5960821b604482015260640162000884565b606081015161ffff166000908152600b602052604081205414620017f75760405162461bcd60e51b815260206004820152601860248201527f636861696e20616c726561647920726567697374657265640000000000000000604482015260640162000884565b620011d08160600151826080015161ffff9091166000908152600b6020526040902055565b8051602080830151604080850151606080870151608088015160a0890151945160f898891b6001600160f81b031990811698820198909852602181019690965260f09390931b6001600160f01b031916604186015290951b9093166043830152604482019290925260648101919091526084016200140b565b60408051600481526024810182526020810180516001600160e01b031663313ce56760e01b179052905160009182916001600160a01b03861691620018da9162003c28565b600060405180830381855afa9150503d806000811462001917576040519150601f19603f3d011682016040523d82523d6000602084013e6200191c565b606091505b5060408051600481526024810182526020810180516001600160e01b03166395d89b4160e01b1790529051919350600092506001600160a01b0387169162001965919062003c28565b600060405180830381855afa9150503d8060008114620019a2576040519150601f19603f3d011682016040523d82523d6000602084013e620019a7565b606091505b5060408051600481526024810182526020810180516001600160e01b03166306fdde0360e01b1790529051919350600092506001600160a01b03881691620019f0919062003c28565b600060405180830381855afa9150503d806000811462001a2d576040519150601f19603f3d011682016040523d82523d6000602084013e62001a32565b606091505b5091505060008380602001905181019062001a4e919062003bdb565b905060008380602001905181019062001a68919062003820565b905060008380602001905181019062001a82919062003820565b9050600080602084015191506020830151905060006040518060c00160405280600260ff1681526020018d6001600160a01b031660001b815260200162001acc60025461ffff1690565b61ffff1681526020018760ff168152602001848152602001838152509050600062001af7826200181c565b905062001b0c6000546001600160a01b031690565b6001600160a01b031663b19a437e348e84600f6040518563ffffffff1660e01b815260040162001b3f9392919062003d8d565b6020604051808303818588803b15801562001b5957600080fd5b505af115801562001b6e573d6000803e3d6000fd5b50505050506040513d601f19601f82011682018060405250810190620010b3919062003bbe565b62001ba281600062002722565b50565b60008060008062001bbe6000546001600160a01b031690565b6001600160a01b031663c0fd8bde866040518263ffffffff1660e01b815260040162001beb919062003c9f565b60006040518083038186803b15801562001c0457600080fd5b505afa15801562001c19573d6000803e3d6000fd5b505050506040513d6000823e601f3d908101601f1916820160405262001c43919081019062003995565b92509250925081819062001c6c5760405162461bcd60e51b815260040162000884919062003c9f565b5062001c788362002eab565b62001c975760405162461bcd60e51b8152600401620008849062003d64565b600062001ca88460e00151620009e1565b905062001cba818560a0015162002ee8565b9695505050505050565b60008060008062001cdd6000546001600160a01b031690565b6001600160a01b031663c0fd8bde866040518263ffffffff1660e01b815260040162001d0a919062003c9f565b60006040518083038186803b15801562001d2357600080fd5b505afa15801562001d38573d6000803e3d6000fd5b505050506040513d6000823e601f3d908101601f1916820160405262001d62919081019062003995565b92509250925081819062001d8b5760405162461bcd60e51b815260040162000884919062003c9f565b5062001d978362002eab565b62001db65760405162461bcd60e51b8152600401620008849062003d64565b600062001dc78460e00151620009e1565b905062001cba818560a0015162003199565b60408051608081018252600080825260208201819052918101829052606081018290529062001e09838262001fc1565b825262001e1860208262003e6f565b82519091506a546f6b656e4272696467651462001e865760405162461bcd60e51b815260206004820152602560248201527f696e76616c69642055706772616465436f6e74726163743a2077726f6e67206d6044820152646f64756c6560d81b606482015260840162000884565b62001e92838262002023565b60ff16602083015262001ea760018262003e6f565b9050816020015160ff1660021462001f105760405162461bcd60e51b815260206004820152602560248201527f696e76616c69642055706772616465436f6e74726163743a2077726f6e67206160448201526431ba34b7b760d91b606482015260840162000884565b62001f1c838262002083565b61ffff16604083015262001f3260028262003e6f565b905062001f40838262001fc1565b606083015262001f5260208262003e6f565b905080835114620009db5760405162461bcd60e51b815260206004820152602560248201527f696e76616c69642055706772616465436f6e74726163743a2077726f6e67206c6044820152640cadccee8d60db1b606482015260840162000884565b62001ba281600162002722565b600062001fd082602062003e6f565b835110156200201a5760405162461bcd60e51b8152602060048201526015602482015274746f427974657333325f6f75744f66426f756e647360581b604482015260640162000884565b50016020015190565b60006200203282600162003e6f565b835110156200207a5760405162461bcd60e51b8152602060048201526013602482015272746f55696e74385f6f75744f66426f756e647360681b604482015260640162000884565b50016001015190565b60006200209282600262003e6f565b83511015620020db5760405162461bcd60e51b8152602060048201526014602482015273746f55696e7431365f6f75744f66426f756e647360601b604482015260640162000884565b50016002015190565b600060088260ff1611156200211c576200210060088362003fef565b6200210d90600a62003ef4565b62002119908462003e8a565b92505b5090919050565b600060088260ff1611156200211c576200213f60088362003fef565b6200214c90600a62003ef4565b62002119908462003fb3565b6001600160a01b0382166000908152600a60205260409020546001600160401b0362002185838362003e6f565b1115620021f35760405162461bcd60e51b815260206004820152603560248201527f7472616e736665722065786365656473206d6178206f75747374616e64696e6760448201527408189c9a5919d959081d1bdad95b88185b5bdd5b9d605a1b606482015260840162000884565b620022208362002204848462003e6f565b6001600160a01b039091166000908152600a6020526040902055565b505050565b6000868411156200226e5760405162461bcd60e51b815260206004820152601260248201527119995948195e18d959591cc8185b5bdd5b9d60721b604482015260640162000884565b6040805160e081018252600181526020810189905290810189905261ffff808b16606083015260808201879052871660a082015260c081018590526000620022b6826200138c565b9050620022cb6000546001600160a01b031690565b6001600160a01b031663b19a437e868684600f6040518563ffffffff1660e01b8152600401620022fe9392919062003d8d565b6020604051808303818588803b1580156200231857600080fd5b505af11580156200232d573d6000803e3d6000fd5b50505050506040513d601f19601f8201168201806040525081019062002354919062003bbe565b9b9a5050505050505050505050565b604080516101608101825260008082526020820181905291810182905260608082018390526080820183905260a0820183905260c0820183905260e082018190526101008201839052610120820152610140810191909152600060606000806000620023d76000546001600160a01b031690565b6001600160a01b031663c0fd8bde886040518263ffffffff1660e01b815260040162002404919062003c9f565b60006040518083038186803b1580156200241d57600080fd5b505afa15801562002432573d6000803e3d6000fd5b505050506040513d6000823e601f3d908101601f191682016040526200245c919081019062003995565b925092509250816200247557919450925090506200258b565b60025462010000900461ffff1661ffff16836060015161ffff1614620024d35750506040805180820190915260168152753bb937b7339033b7bb32b93730b731b29031b430b4b760511b60208201529093506000925090506200258b565b6003548360800151146200252657505060408051808201909152601981527f77726f6e6720676f7665726e616e636520636f6e74726163740000000000000060208201529093506000925090506200258b565b61014083015160009081526005602052604090205460ff1615620025705782600060405180606001604052806022815260200162004a5a602291399550955095505050506200258b565b50506040805160208101909152600081529093506001925090505b9193909250565b6000620025c67f360894a13ba1a3210667c828492db98dca3e2076cc3735a920a3ca505d382bbc546001600160a01b031690565b9050620025d38262003294565b60408051600481526024810182526020810180516001600160e01b031663204a7f0760e21b179052905160009182916001600160a01b03861691620026189162003c28565b600060405180830381855af49150503d806000811462002655576040519150601f19603f3d011682016040523d82523d6000602084013e6200265a565b606091505b5091509150818190620026825760405162461bcd60e51b815260040162000884919062003c9f565b50836001600160a01b0316836001600160a01b03167f2e4cc16c100f0b55e2df82ab0b1a7e294aa9cbd01b48fbaf622683fbc0507a4960405160405180910390a350505050565b6000620026d882602062003e6f565b835110156200201a5760405162461bcd60e51b8152602060048201526015602482015274746f55696e743235365f6f75744f66426f756e647360581b604482015260640162000884565b60008060006200273a6000546001600160a01b031690565b6001600160a01b031663c0fd8bde866040518263ffffffff1660e01b815260040162002767919062003c9f565b60006040518083038186803b1580156200278057600080fd5b505afa15801562002795573d6000803e3d6000fd5b505050506040513d6000823e601f3d908101601f19168201604052620027bf919081019062003995565b925092509250818190620027e85760405162461bcd60e51b815260040162000884919062003c9f565b50620027f48362002eab565b620028135760405162461bcd60e51b8152600401620008849062003d64565b6000620028248460e00151620011d7565b90506200284584610140015160009081526006602052604090205460ff1690565b15620028945760405162461bcd60e51b815260206004820152601a60248201527f7472616e7366657220616c726561647920636f6d706c65746564000000000000604482015260640162000884565b620028b98461014001516000908152600660205260409020805460ff19166001179055565b60025461ffff1661ffff168160a0015161ffff1614620029135760405162461bcd60e51b815260206004820152601460248201527334b73b30b634b2103a30b933b2ba1031b430b4b760611b604482015260640162000884565b60006200292360025461ffff1690565b61ffff16826060015161ffff161415620029555750604081015160208201516200294f908290620032d6565b620029d6565b60006200296b83606001518460400151620010c4565b90506001600160a01b038116620029d35760405162461bcd60e51b815260206004820152602560248201527f6e6f207772617070657220666f72207468697320746f6b656e2063726561746560448201526419081e595d60da1b606482015260840162000884565b90505b851580620029f157506004546001600160a01b038281169116145b62002a4b5760405162461bcd60e51b815260206004820152602360248201527f696e76616c696420746f6b656e2c2063616e206f6e6c7920756e77726170205760448201526208aa8960eb1b606482015260840162000884565b60408051600481526024810182526020810180516001600160e01b031663313ce56760e01b17905290516000916001600160a01b0384169162002a8f919062003c28565b600060405180830381855afa9150503d806000811462002acc576040519150601f19603f3d011682016040523d82523d6000602084013e62002ad1565b606091505b5091505060008180602001905181019062002aed919062003bdb565b9050600062002b0185602001518362002123565b9050600062002b158660c001518462002123565b9050801562002cfa578181111562002b7b5760405162461bcd60e51b815260206004820152602260248201527f66656520686967686572207468616e207472616e7366657272656420616d6f756044820152611b9d60f21b606482015260840162000884565b891562002c155760048054604051632e1a7d4d60e01b81529182018390526001600160a01b031690632e1a7d4d90602401600060405180830381600087803b15801562002bc757600080fd5b505af115801562002bdc573d6000803e3d6000fd5b505060405133925083156108fc02915083906000818181858888f1935050505015801562002c0e573d6000803e3d6000fd5b5062002cfa565b60025461ffff1661ffff16866060015161ffff161462002c97576040516340c10f1960e01b8152336004820152602481018290526001600160a01b038616906340c10f1990604401600060405180830381600087803b15801562002c7857600080fd5b505af115801562002c8d573d6000803e3d6000fd5b5050505062002cfa565b60405163423f6cef60e01b8152336004820152602481018290526001600160a01b0386169063423f6cef90604401600060405180830381600087803b15801562002ce057600080fd5b505af115801562002cf5573d6000803e3d6000fd5b505050505b600062002d08828462003fd5565b60808801519091508b1562002db35760048054604051632e1a7d4d60e01b81529182018490526001600160a01b031690632e1a7d4d90602401600060405180830381600087803b15801562002d5c57600080fd5b505af115801562002d71573d6000803e3d6000fd5b50506040516001600160a01b038416925084156108fc02915084906000818181858888f1935050505015801562002dac573d6000803e3d6000fd5b5062002e9c565b60025461ffff1661ffff16886060015161ffff161462002e37576040516340c10f1960e01b81526001600160a01b038281166004830152602482018490528816906340c10f1990604401600060405180830381600087803b15801562002e1857600080fd5b505af115801562002e2d573d6000803e3d6000fd5b5050505062002e9c565b60405163423f6cef60e01b81526001600160a01b0382811660048301526024820184905288169063423f6cef90604401600060405180830381600087803b15801562002e8257600080fd5b505af115801562002e97573d6000803e3d6000fd5b505050505b50505050505050505050505050565b6000816080015162002ed1836060015161ffff166000908152600b602052604090205490565b141562002ee057506001919050565b506000919050565b600062002ef860025461ffff1690565b61ffff16836040015161ffff16141562002f665760405162461bcd60e51b815260206004820152602860248201527f63616e206f6e6c79207772617020746f6b656e732066726f6d20666f726569676044820152676e20636861696e7360c01b606482015260840162000884565b60006001600160a01b031662002f8584604001518560200151620010c4565b6001600160a01b03161462002fdd5760405162461bcd60e51b815260206004820152601c60248201527f7772617070656420617373657420616c72656164792065786973747300000000604482015260640162000884565b600063c71f461560e01b62002ff68560a001516200330c565b6200300586608001516200330c565b8660600151863089604001518a602001516040516024016200302e979695949392919062003cf7565b60408051601f19818403018152918152602080830180516001600160e01b03166001600160e01b031990951694909417909352519092506000916200307891309185910162003c79565b60405160208183030381529060405290506000604051806020016200309d90620034ee565b601f1982820381018352601f909101166040819052620030c39190849060200162003c46565b60405160208183030381529060405290506000866040015187602001516040516020016200310a92919060f09290921b6001600160f01b0319168252600282015260220190565b604051602081830303815290604052805190602001209050808251602084016000f59450843b6200313a57600080fd5b6040808801516020808a015161ffff90921660009081526008825283812092815291815282822080546001600160a01b0319166001600160a01b038a1690811790915582526009905220805460ff191660011790555050505092915050565b600080620031b084604001518560200151620010c4565b90506001600160a01b0381166200320a5760405162461bcd60e51b815260206004820152601d60248201527f7772617070656420617373657420646f6573206e6f7420657869737473000000604482015260640162000884565b806001600160a01b031663a18cd7c6620032288660a001516200330c565b6200323787608001516200330c565b866040518463ffffffff1660e01b8152600401620032589392919062003cb4565b600060405180830381600087803b1580156200327357600080fd5b505af115801562003288573d6000803e3d6000fd5b50929695505050505050565b6200329f8162003447565b6040516001600160a01b038216907fbc7cd75a20ee27fd9adebab32041f755214dbc6bffa90cc0225b39da2e5c2d3b90600090a250565b620033088282620032fc856001600160a01b03166000908152600a602052604090205490565b62002204919062003fd5565b5050565b606060005b6020811080156200334f57508281602081106200333e57634e487b7160e01b600052603260045260246000fd5b1a60f81b6001600160f81b03191615155b156200336a5780620033618162004048565b91505062003311565b6000816001600160401b038111156200339357634e487b7160e01b600052604160045260246000fd5b6040519080825280601f01601f191660200182016040528015620033be576020820181803683370190505b50905060005b828110156200343f57848160208110620033ee57634e487b7160e01b600052603260045260246000fd5b1a60f81b8282815181106200341357634e487b7160e01b600052603260045260246000fd5b60200101906001600160f81b031916908160001a90535080620034368162004048565b915050620033c4565b509392505050565b803b620034ad5760405162461bcd60e51b815260206004820152602d60248201527f455243313936373a206e657720696d706c656d656e746174696f6e206973206e60448201526c1bdd08184818dbdb9d1c9858dd609a1b606482015260840162000884565b7f360894a13ba1a3210667c828492db98dca3e2076cc3735a920a3ca505d382bbc80546001600160a01b0319166001600160a01b0392909216919091179055565b61099380620040c783390190565b80356001600160a01b03811681146200351457600080fd5b919050565b600082601f8301126200352a578081fd5b815160206001600160401b038211156200354857620035486200407c565b62003558818360051b0162003e12565b80838252828201915082860187848660071b890101111562003578578586fd5b855b85811015620035e857608080838b03121562003594578788fd5b6200359e62003dc1565b835181528684015187820152604080850151620035bb81620040b6565b90820152606084810151620035d081620040b6565b9082015285529385019391909101906001016200357a565b5090979650505050505050565b805180151581146200351457600080fd5b600082601f83011262003617578081fd5b81516200362e620036288262003e45565b62003e12565b81815284602083860101111562003643578283fd5b6200365682602083016020870162004015565b949350505050565b8035620035148162004092565b8051620035148162004092565b80516200351481620040a3565b80516001600160401b03811681146200351457600080fd5b80516200351481620040b6565b600060208284031215620036bc578081fd5b620036c782620034fc565b9392505050565b60008060008060008060c08789031215620036e7578182fd5b620036f287620034fc565b95506020870135945060408701356200370b8162004092565b9350606087013592506080870135915060a08701356200372b81620040a3565b809150509295509295509295565b600080604083850312156200374c578182fd5b6200375783620034fc565b915060208301356200376981620040a3565b809150509250929050565b60006020828403121562003786578081fd5b5035919050565b6000602082840312156200379f578081fd5b5051919050565b600060208284031215620037b8578081fd5b81356001600160401b03811115620037ce578182fd5b8201601f81018413620037df578182fd5b8035620037f0620036288262003e45565b81815285602083850101111562003805578384fd5b81602084016020830137908101602001929092525092915050565b60006020828403121562003832578081fd5b81516001600160401b0381111562003848578182fd5b620036568482850162003606565b600060c0828403121562003868578081fd5b60405160c081018181106001600160401b03821117156200388d576200388d6200407c565b60405282356200389d81620040b6565b8152602083810135908201526040830135620038b98162004092565b60408201526060830135620038ce81620040b6565b60608201526080838101359082015260a0928301359281019290925250919050565b600060e0828403121562003902578081fd5b60405160e081018181106001600160401b03821117156200392757620039276200407c565b60405282356200393781620040b6565b80825250602083013560208201526040830135604082015260608301356200395f8162004092565b6060820152608083810135908201526200397c60a084016200365e565b60a082015260c083013560c08201528091505092915050565b600080600060608486031215620039aa578081fd5b83516001600160401b0380821115620039c1578283fd5b908501906101608288031215620039d6578283fd5b620039e062003dec565b620039eb836200369d565b8152620039fb6020840162003678565b602082015262003a0e6040840162003678565b604082015262003a21606084016200366b565b60608201526080830151608082015262003a3e60a0840162003685565b60a082015262003a5160c084016200369d565b60c082015260e08301518281111562003a68578485fd5b62003a768982860162003606565b60e08301525061010062003a8c81850162003678565b90820152610120838101518381111562003aa4578586fd5b62003ab28a82870162003519565b91830191909152506101408381015190820152945062003ad560208701620035f5565b9350604086015191508082111562003aeb578283fd5b5062003afa8682870162003606565b9150509250925092565b60006020828403121562003b16578081fd5b8135620036c78162004092565b60006020828403121562003b35578081fd5b8151620036c78162004092565b6000806040838503121562003b55578182fd5b823562003b628162004092565b946020939093013593505050565b6000806000806080858703121562003b86578182fd5b843562003b938162004092565b93506020850135925060408501359150606085013562003bb381620040a3565b939692955090935050565b60006020828403121562003bd0578081fd5b620036c78262003685565b60006020828403121562003bed578081fd5b8151620036c781620040b6565b6000815180845262003c1481602086016020860162004015565b601f01601f19169290920160200192915050565b6000825162003c3c81846020870162004015565b9190910192915050565b6000835162003c5a81846020880162004015565b83519083019062003c7081836020880162004015565b01949350505050565b6001600160a01b0383168152604060208201819052600090620036569083018462003bfa565b602081526000620036c7602083018462003bfa565b60608152600062003cc9606083018662003bfa565b828103602084015262003cdd818662003bfa565b9150506001600160401b0383166040830152949350505050565b60e08152600062003d0c60e083018a62003bfa565b828103602084015262003d20818a62003bfa565b60ff98909816604084015250506001600160401b039490941660608501526001600160a01b0392909216608084015261ffff1660a083015260c09091015292915050565b6020808252600f908201526e34b73b30b634b21032b6b4ba3a32b960891b604082015260600190565b63ffffffff8416815260606020820152600062003dae606083018562003bfa565b905060ff83166040830152949350505050565b604051608081016001600160401b038111828210171562003de65762003de66200407c565b60405290565b60405161016081016001600160401b038111828210171562003de65762003de66200407c565b604051601f8201601f191681016001600160401b038111828210171562003e3d5762003e3d6200407c565b604052919050565b60006001600160401b0382111562003e615762003e616200407c565b50601f01601f191660200190565b6000821982111562003e855762003e8562004066565b500190565b60008262003ea657634e487b7160e01b81526012600452602481fd5b500490565b600181815b8085111562003eec57816000190482111562003ed05762003ed062004066565b8085161562003ede57918102915b93841c939080029062003eb0565b509250929050565b6000620036c760ff84168360008262003f1057506001620010ed565b8162003f1f57506000620010ed565b816001811462003f38576002811462003f435762003f63565b6001915050620010ed565b60ff84111562003f575762003f5762004066565b50506001821b620010ed565b5060208310610133831016604e8410600b841016171562003f88575081810a620010ed565b62003f94838362003eab565b806000190482111562003fab5762003fab62004066565b029392505050565b600081600019048311821515161562003fd05762003fd062004066565b500290565b60008282101562003fea5762003fea62004066565b500390565b600060ff821660ff8416808210156200400c576200400c62004066565b90039392505050565b60005b838110156200403257818101518382015260200162004018565b8381111562004042576000848401525b50505050565b60006000198214156200405f576200405f62004066565b5060010190565b634e487b7160e01b600052601160045260246000fd5b634e487b7160e01b600052604160045260246000fd5b61ffff8116811462001ba257600080fd5b63ffffffff8116811462001ba257600080fd5b60ff8116811462001ba257600080fdfe608060405234801561001057600080fd5b5060405161099338038061099383398101604081905261002f9161048e565b818161005c60017fa3f0ad74e5423aebfd80d3ef4346578335a9a72aeaee59ff6cb3582b35133d51610599565b60008051602061094c8339815191521461008657634e487b7160e01b600052600160045260246000fd5b6100928282600061009b565b505050506105fe565b6100a483610175565b6040516001600160a01b038416907f1cf3b03a6cf19fa2baba4df148e9dcabedea7f8a5c07840e207e5c089be95d3e90600090a26000825111806100e55750805b156101705761016e836001600160a01b0316635c60da1b6040518163ffffffff1660e01b815260040160206040518083038186803b15801561012657600080fd5b505afa15801561013a573d6000803e3d6000fd5b505050506040513d601f19601f8201168201806040525081019061015e9190610474565b8361031560201b6100291760201c565b505b505050565b6101888161034160201b6100551760201c565b6101e75760405162461bcd60e51b815260206004820152602560248201527f455243313936373a206e657720626561636f6e206973206e6f74206120636f6e6044820152641d1c9858dd60da1b60648201526084015b60405180910390fd5b61026a816001600160a01b0316635c60da1b6040518163ffffffff1660e01b815260040160206040518083038186803b15801561022357600080fd5b505afa158015610237573d6000803e3d6000fd5b505050506040513d601f19601f8201168201806040525081019061025b9190610474565b61034160201b6100551760201c565b6102cf5760405162461bcd60e51b815260206004820152603060248201527f455243313936373a20626561636f6e20696d706c656d656e746174696f6e206960448201526f1cc81b9bdd08184818dbdb9d1c9858dd60821b60648201526084016101de565b806102f460008051602061094c83398151915260001b61034760201b61005b1760201c565b80546001600160a01b0319166001600160a01b039290921691909117905550565b606061033a838360405180606001604052806027815260200161096c6027913961034a565b9392505050565b3b151590565b90565b6060833b6103a95760405162461bcd60e51b815260206004820152602660248201527f416464726573733a2064656c65676174652063616c6c20746f206e6f6e2d636f6044820152651b9d1c9858dd60d21b60648201526084016101de565b600080856001600160a01b0316856040516103c4919061054a565b600060405180830381855af49150503d80600081146103ff576040519150601f19603f3d011682016040523d82523d6000602084013e610404565b606091505b50909250905061041582828661041f565b9695505050505050565b6060831561042e57508161033a565b82511561043e5782518084602001fd5b8160405162461bcd60e51b81526004016101de9190610566565b80516001600160a01b038116811461046f57600080fd5b919050565b600060208284031215610485578081fd5b61033a82610458565b600080604083850312156104a0578081fd5b6104a983610458565b60208401519092506001600160401b03808211156104c5578283fd5b818501915085601f8301126104d8578283fd5b8151818111156104ea576104ea6105e8565b604051601f8201601f19908116603f01168101908382118183101715610512576105126105e8565b8160405282815288602084870101111561052a578586fd5b61053b8360208301602088016105bc565b80955050505050509250929050565b6000825161055c8184602087016105bc565b9190910192915050565b60208152600082518060208401526105858160408501602087016105bc565b601f01601f19169190910160400192915050565b6000828210156105b757634e487b7160e01b81526011600452602481fd5b500390565b60005b838110156105d75781810151838201526020016105bf565b8381111561016e5750506000910152565b634e487b7160e01b600052604160045260246000fd5b61033f8061060d6000396000f3fe60806040523661001357610011610017565b005b6100115b61002761002261005e565b610106565b565b606061004e83836040518060600160405280602781526020016102e36027913961012a565b9392505050565b3b151590565b90565b60006100917fa3f0ad74e5423aebfd80d3ef4346578335a9a72aeaee59ff6cb3582b35133d50546001600160a01b031690565b6001600160a01b0316635c60da1b6040518163ffffffff1660e01b815260040160206040518083038186803b1580156100c957600080fd5b505afa1580156100dd573d6000803e3d6000fd5b505050506040513d601f19601f82011682018060405250810190610101919061023c565b905090565b3660008037600080366000845af43d6000803e808015610125573d6000f35b3d6000fd5b6060833b61018e5760405162461bcd60e51b815260206004820152602660248201527f416464726573733a2064656c65676174652063616c6c20746f206e6f6e2d636f6044820152651b9d1c9858dd60d21b60648201526084015b60405180910390fd5b600080856001600160a01b0316856040516101a99190610263565b600060405180830381855af49150503d80600081146101e4576040519150601f19603f3d011682016040523d82523d6000602084013e6101e9565b606091505b50915091506101f9828286610203565b9695505050505050565b6060831561021257508161004e565b8251156102225782518084602001fd5b8160405162461bcd60e51b8152600401610185919061027f565b60006020828403121561024d578081fd5b81516001600160a01b038116811461004e578182fd5b600082516102758184602087016102b2565b9190910192915050565b602081526000825180602084015261029e8160408501602087016102b2565b601f01601f19169190910160400192915050565b60005b838110156102cd5781810151838201526020016102b5565b838111156102dc576000848401525b5050505056fe416464726573733a206c6f772d6c6576656c2064656c65676174652063616c6c206661696c6564a264697066735822122028ae3c7189473f3d77a8ad72c7493d2c9d27e43be2eb4455ffed7ca2f9d10ffa64736f6c63430008040033a3f0ad74e5423aebfd80d3ef4346578335a9a72aeaee59ff6cb3582b35133d50416464726573733a206c6f772d6c6576656c2064656c65676174652063616c6c206661696c6564676f7665726e616e636520616374696f6e20616c726561647920636f6e73756d6564a26469706673582212208b6cf185b190bc1a04e7bc98204ba0aff0943d6ea66dadf3f05c8d04da6c1a3064736f6c63430008040033",
  "immutableReferences": {},
  "source": "// contracts/Bridge.sol\n// SPDX-License-Identifier: Apache 2\n\npragma solidity ^0.8.0;\n\n// import \"@openzeppelin/contracts/token/ERC20/IERC20.sol\";\n// import \"@openzeppelin/contracts/token/ERC20/utils/SafeERC20.sol\";\n\nimport \"./kip7/KIP7/IKIP7.sol\";\n\n\nimport \"../libraries/external/BytesLib.sol\";\n\nimport \"./BridgeGetters.sol\";\nimport \"./BridgeSetters.sol\";\nimport \"./BridgeStructs.sol\";\nimport \"./BridgeGovernance.sol\";\n\nimport \"./token/Token.sol\";\nimport \"./token/TokenImplementation.sol\";\n\n// import \"./kip7/KIP7/KIP7.sol\";\n\ncontract Bridge is BridgeGovernance {\n    using BytesLib for bytes;\n\n    // Produce a AssetMeta message for a given token\n    function attestToken(address tokenAddress, uint32 nonce) public payable returns (uint64 sequence){\n        // decimals, symbol & token are not part of the core ERC20 token standard, so we need to support contracts that dont implement them\n        (,bytes memory queriedDecimals) = tokenAddress.staticcall(abi.encodeWithSignature(\"decimals()\"));\n        (,bytes memory queriedSymbol) = tokenAddress.staticcall(abi.encodeWithSignature(\"symbol()\"));\n        (,bytes memory queriedName) = tokenAddress.staticcall(abi.encodeWithSignature(\"name()\"));\n\n        uint8 decimals = abi.decode(queriedDecimals, (uint8));\n\n        string memory symbolString = abi.decode(queriedSymbol, (string));\n        string memory nameString = abi.decode(queriedName, (string));\n\n        bytes32 symbol;\n        bytes32 name;\n        assembly {\n            // first 32 bytes hold string length\n            symbol := mload(add(symbolString, 32))\n            name := mload(add(nameString, 32))\n        }\n\n        BridgeStructs.AssetMeta memory meta = BridgeStructs.AssetMeta({\n        payloadID : 2,\n        // Address of the token. Left-zero-padded if shorter than 32 bytes\n        tokenAddress : bytes32(uint256(uint160(tokenAddress))),\n        // Chain ID of the token\n        tokenChain : chainId(),\n        // Number of decimals of the token (big-endian uint8)\n        decimals : decimals,\n        // Symbol of the token (UTF-8)\n        symbol : symbol,\n        // Name of the token (UTF-8)\n        name : name\n        });\n\n        bytes memory encoded = encodeAssetMeta(meta);\n\n        sequence = wormhole().publishMessage{\n            value : msg.value\n        }(nonce, encoded, 15);\n    }\n\n    function wrapAndTransferETH(uint16 recipientChain, bytes32 recipient, uint256 arbiterFee, uint32 nonce) public payable returns (uint64 sequence) {\n        uint wormholeFee = wormhole().messageFee();\n\n        require(wormholeFee < msg.value, \"value is smaller than wormhole fee\");\n\n        uint amount = msg.value - wormholeFee;\n\n        require(arbiterFee <= amount, \"fee is bigger than amount minus wormhole fee\");\n\n        uint normalizedAmount = normalizeAmount(amount, 18);\n        uint normalizedArbiterFee = normalizeAmount(arbiterFee, 18);\n\n        // refund dust\n        uint dust = amount - deNormalizeAmount(normalizedAmount, 18);\n        if (dust > 0) {\n            payable(msg.sender).transfer(dust);\n        }\n\n        // deposit into WETH\n        WETH().deposit{\n            value : amount - dust\n        }();\n\n        // track and check outstanding token amounts\n        bridgeOut(address(WETH()), normalizedAmount);\n\n        sequence = logTransfer(chainId(), bytes32(uint256(uint160(address(WETH())))), normalizedAmount, recipientChain, recipient, normalizedArbiterFee, wormholeFee, nonce);\n    }\n\n    // Initiate a Transfer\n    function transferTokens(address token, uint256 amount, uint16 recipientChain, bytes32 recipient, uint256 arbiterFee, uint32 nonce) public payable returns (uint64 sequence) {\n        // determine token parameters\n        uint16 tokenChain;\n        bytes32 tokenAddress;\n        if (isWrappedAsset(token)) {\n            tokenChain = TokenImplementation(token).chainId();\n            tokenAddress = TokenImplementation(token).nativeContract();\n        } else {\n            tokenChain = chainId();\n            tokenAddress = bytes32(uint256(uint160(token)));\n        }\n\n        // query tokens decimals\n        (,bytes memory queriedDecimals) = token.staticcall(abi.encodeWithSignature(\"decimals()\"));\n        uint8 decimals = abi.decode(queriedDecimals, (uint8));\n\n        // don't deposit dust that can not be bridged due to the decimal shift\n        amount = deNormalizeAmount(normalizeAmount(amount, decimals), decimals);\n\n        if (tokenChain == chainId()) {\n            // query own token balance before transfer\n            (,bytes memory queriedBalanceBefore) = token.staticcall(abi.encodeWithSelector(IKIP7.balanceOf.selector, address(this)));\n            uint256 balanceBefore = abi.decode(queriedBalanceBefore, (uint256));\n\n            // transfer tokens\n            IKIP7(token).safeTransferFrom(msg.sender, address(this), amount);\n\n            // query own token balance after transfer\n            (,bytes memory queriedBalanceAfter) = token.staticcall(abi.encodeWithSelector(IKIP7.balanceOf.selector, address(this)));\n            uint256 balanceAfter = abi.decode(queriedBalanceAfter, (uint256));\n\n            // correct amount for potential transfer fees\n            amount = balanceAfter - balanceBefore;\n        } else {\n            IKIP7(token).safeTransferFrom(msg.sender, address(this), amount);\n\n            TokenImplementation(token).burn(address(this), amount);\n        }\n\n        // normalize amounts decimals\n        uint256 normalizedAmount = normalizeAmount(amount, decimals);\n        uint256 normalizedArbiterFee = normalizeAmount(arbiterFee, decimals);\n\n        // track and check outstanding token amounts\n        if (tokenChain == chainId()) {\n            bridgeOut(token, normalizedAmount);\n        }\n\n        sequence = logTransfer(tokenChain, tokenAddress, normalizedAmount, recipientChain, recipient, normalizedArbiterFee, msg.value, nonce);\n    }\n\n    function normalizeAmount(uint256 amount, uint8 decimals) internal pure returns(uint256){\n        if (decimals > 8) {\n            amount /= 10 ** (decimals - 8);\n        }\n        return amount;\n    }\n\n    function deNormalizeAmount(uint256 amount, uint8 decimals) internal pure returns(uint256){\n        if (decimals > 8) {\n            amount *= 10 ** (decimals - 8);\n        }\n        return amount;\n    }\n\n    function logTransfer(uint16 tokenChain, bytes32 tokenAddress, uint256 amount, uint16 recipientChain, bytes32 recipient, uint256 fee, uint256 callValue, uint32 nonce) internal returns (uint64 sequence) {\n        require(fee <= amount, \"fee exceeds amount\");\n\n        BridgeStructs.Transfer memory transfer = BridgeStructs.Transfer({\n            payloadID : 1,\n            amount : amount,\n            tokenAddress : tokenAddress,\n            tokenChain : tokenChain,\n            to : recipient,\n            toChain : recipientChain,\n            fee : fee\n        });\n\n        bytes memory encoded = encodeTransfer(transfer);\n\n        sequence = wormhole().publishMessage{\n            value : callValue\n        }(nonce, encoded, 15);\n    }\n\n    function updateWrapped(bytes memory encodedVm) external returns (address token) {\n        (IWormhole.VM memory vm, bool valid, string memory reason) = wormhole().parseAndVerifyVM(encodedVm);\n\n        require(valid, reason);\n        require(verifyBridgeVM(vm), \"invalid emitter\");\n\n        BridgeStructs.AssetMeta memory meta = parseAssetMeta(vm.payload);\n        return _updateWrapped(meta, vm.sequence);\n    }\n\n    function _updateWrapped(BridgeStructs.AssetMeta memory meta, uint64 sequence) internal returns (address token) {\n        address wrapped = wrappedAsset(meta.tokenChain, meta.tokenAddress);\n        require(wrapped != address(0), \"wrapped asset does not exists\");\n\n        // Update metadata\n        TokenImplementation(wrapped).updateDetails(bytes32ToString(meta.name), bytes32ToString(meta.symbol), sequence);\n\n        return wrapped;\n    }\n\n    function createWrapped(bytes memory encodedVm) external returns (address token) {\n        (IWormhole.VM memory vm, bool valid, string memory reason) = wormhole().parseAndVerifyVM(encodedVm);\n\n        require(valid, reason);\n        require(verifyBridgeVM(vm), \"invalid emitter\");\n\n        BridgeStructs.AssetMeta memory meta = parseAssetMeta(vm.payload);\n        return _createWrapped(meta, vm.sequence);\n    }\n\n    // Creates a wrapped asset using AssetMeta\n    function _createWrapped(BridgeStructs.AssetMeta memory meta, uint64 sequence) internal returns (address token) {\n        require(meta.tokenChain != chainId(), \"can only wrap tokens from foreign chains\");\n        require(wrappedAsset(meta.tokenChain, meta.tokenAddress) == address(0), \"wrapped asset already exists\");\n\n        // initialize the TokenImplementation\n        bytes memory initialisationArgs = abi.encodeWithSelector(\n            TokenImplementation.initialize.selector,\n            bytes32ToString(meta.name),\n            bytes32ToString(meta.symbol),\n            meta.decimals,\n            sequence,\n\n            address(this),\n\n            meta.tokenChain,\n            meta.tokenAddress\n        );\n\n        // initialize the BeaconProxy\n        bytes memory constructorArgs = abi.encode(address(this), initialisationArgs);\n\n        // deployment code\n        bytes memory bytecode = abi.encodePacked(type(BridgeToken).creationCode, constructorArgs);\n\n        bytes32 salt = keccak256(abi.encodePacked(meta.tokenChain, meta.tokenAddress));\n\n        assembly {\n            token := create2(0, add(bytecode, 0x20), mload(bytecode), salt)\n\n            if iszero(extcodesize(token)) {\n                revert(0, 0)\n            }\n        }\n\n        setWrappedAsset(meta.tokenChain, meta.tokenAddress, token);\n    }\n\n    function completeTransfer(bytes memory encodedVm) public {\n        _completeTransfer(encodedVm, false);\n    }\n\n    function completeTransferAndUnwrapETH(bytes memory encodedVm) public {\n        _completeTransfer(encodedVm, true);\n    }\n\n    // Execute a Transfer message\n    function _completeTransfer(bytes memory encodedVm, bool unwrapWETH) internal {\n        (IWormhole.VM memory vm, bool valid, string memory reason) = wormhole().parseAndVerifyVM(encodedVm);\n\n        require(valid, reason);\n        require(verifyBridgeVM(vm), \"invalid emitter\");\n\n        BridgeStructs.Transfer memory transfer = parseTransfer(vm.payload);\n\n        require(!isTransferCompleted(vm.hash), \"transfer already completed\");\n        setTransferCompleted(vm.hash);\n\n        require(transfer.toChain == chainId(), \"invalid target chain\");\n\n        IKIP7 transferToken;\n        if (transfer.tokenChain == chainId()) {\n            transferToken = IKIP7(address(uint160(uint256(transfer.tokenAddress))));\n\n            // track outstanding token amounts\n            bridgedIn(address(transferToken), transfer.amount);\n        } else {\n            address wrapped = wrappedAsset(transfer.tokenChain, transfer.tokenAddress);\n            require(wrapped != address(0), \"no wrapper for this token created yet\");\n\n            transferToken = IKIP7(wrapped);\n        }\n\n        require(unwrapWETH == false || address(transferToken) == address(WETH()), \"invalid token, can only unwrap WETH\");\n\n        // query decimals\n        (,bytes memory queriedDecimals) = address(transferToken).staticcall(abi.encodeWithSignature(\"decimals()\"));\n        uint8 decimals = abi.decode(queriedDecimals, (uint8));\n\n        // adjust decimals\n        uint256 nativeAmount = deNormalizeAmount(transfer.amount, decimals);\n        uint256 nativeFee = deNormalizeAmount(transfer.fee, decimals);\n\n        // transfer fee to arbiter\n        if (nativeFee > 0) {\n            require(nativeFee <= nativeAmount, \"fee higher than transferred amount\");\n\n            if (unwrapWETH) {\n                WETH().withdraw(nativeFee);\n\n                payable(msg.sender).transfer(nativeFee);\n            } else {\n                if (transfer.tokenChain != chainId()) {\n                    // mint wrapped asset\n                    TokenImplementation(address(transferToken)).mint(msg.sender, nativeFee);\n                } else {\n                    transferToken.safeTransfer(msg.sender, nativeFee);\n                }\n            }\n        }\n\n        // transfer bridged amount to recipient\n        uint transferAmount = nativeAmount - nativeFee;\n        address transferRecipient = address(uint160(uint256(transfer.to)));\n\n        if (unwrapWETH) {\n            WETH().withdraw(transferAmount);\n\n            payable(transferRecipient).transfer(transferAmount);\n        } else {\n            if (transfer.tokenChain != chainId()) {\n                // mint wrapped asset\n                TokenImplementation(address(transferToken)).mint(transferRecipient, transferAmount);\n            } else {\n                transferToken.safeTransfer(transferRecipient, transferAmount);\n            }\n        }\n    }\n\n    function bridgeOut(address token, uint normalizedAmount) internal {\n        uint outstanding = outstandingBridged(token);\n        require(outstanding + normalizedAmount <= type(uint64).max, \"transfer exceeds max outstanding bridged token amount\");\n        setOutstandingBridged(token, outstanding + normalizedAmount);\n    }\n\n    function bridgedIn(address token, uint normalizedAmount) internal {\n        setOutstandingBridged(token, outstandingBridged(token) - normalizedAmount);\n    }\n\n    function verifyBridgeVM(IWormhole.VM memory vm) internal view returns (bool){\n        if (bridgeContracts(vm.emitterChainId) == vm.emitterAddress) {\n            return true;\n        }\n\n        return false;\n    }\n\n    function encodeAssetMeta(BridgeStructs.AssetMeta memory meta) public pure returns (bytes memory encoded) {\n        encoded = abi.encodePacked(\n            meta.payloadID,\n            meta.tokenAddress,\n            meta.tokenChain,\n            meta.decimals,\n            meta.symbol,\n            meta.name\n        );\n    }\n\n    function encodeTransfer(BridgeStructs.Transfer memory transfer) public pure returns (bytes memory encoded) {\n        encoded = abi.encodePacked(\n            transfer.payloadID,\n            transfer.amount,\n            transfer.tokenAddress,\n            transfer.tokenChain,\n            transfer.to,\n            transfer.toChain,\n            transfer.fee\n        );\n    }\n\n    function parseAssetMeta(bytes memory encoded) public pure returns (BridgeStructs.AssetMeta memory meta) {\n        uint index = 0;\n\n        meta.payloadID = encoded.toUint8(index);\n        index += 1;\n\n        require(meta.payloadID == 2, \"invalid AssetMeta\");\n\n        meta.tokenAddress = encoded.toBytes32(index);\n        index += 32;\n\n        meta.tokenChain = encoded.toUint16(index);\n        index += 2;\n\n        meta.decimals = encoded.toUint8(index);\n        index += 1;\n\n        meta.symbol = encoded.toBytes32(index);\n        index += 32;\n\n        meta.name = encoded.toBytes32(index);\n        index += 32;\n\n        require(encoded.length == index, \"invalid AssetMeta\");\n    }\n\n    function parseTransfer(bytes memory encoded) public pure returns (BridgeStructs.Transfer memory transfer) {\n        uint index = 0;\n\n        transfer.payloadID = encoded.toUint8(index);\n        index += 1;\n\n        require(transfer.payloadID == 1, \"invalid Transfer\");\n\n        transfer.amount = encoded.toUint256(index);\n        index += 32;\n\n        transfer.tokenAddress = encoded.toBytes32(index);\n        index += 32;\n\n        transfer.tokenChain = encoded.toUint16(index);\n        index += 2;\n\n        transfer.to = encoded.toBytes32(index);\n        index += 32;\n\n        transfer.toChain = encoded.toUint16(index);\n        index += 2;\n\n        transfer.fee = encoded.toUint256(index);\n        index += 32;\n\n        require(encoded.length == index, \"invalid Transfer\");\n    }\n\n    function bytes32ToString(bytes32 input) internal pure returns (string memory) {\n        uint256 i;\n        while (i < 32 && input[i] != 0) {\n            i++;\n        }\n        bytes memory array = new bytes(i);\n        for (uint c = 0; c < i; c++) {\n            array[c] = input[c];\n        }\n        return string(array);\n    }\n\n    // we need to accept ETH sends to unwrap WETH\n    receive() external payable {}\n}",
  "sourcePath": "/Users/nguyenthithuthao/Downloads/Documents/wormhole-kip7/contracts/bridge/Bridge.sol",
  "compiler": {
    "name": "solc",
    "version": "0.8.4+commit.c7e474f2.Emscripten.clang"
  },
  "schemaVersion": "3.4.1",
  "updatedAt": "2022-01-26T09:33:50.428Z",
  "devdoc": {
    "kind": "dev",
    "methods": {},
    "version": 1
  },
  "userdoc": {
    "kind": "user",
    "methods": {},
    "version": 1
  }
}