{
  "contractName": "BridgeImplementation",
  "abi": [
    {
      "anonymous": false,
      "inputs": [
        {
          "indexed": false,
          "internalType": "address",
          "name": "previousAdmin",
          "type": "address"
        },
        {
          "indexed": false,
          "internalType": "address",
          "name": "newAdmin",
          "type": "address"
        }
      ],
      "name": "AdminChanged",
      "type": "event"
    },
    {
      "anonymous": false,
      "inputs": [
        {
          "indexed": true,
          "internalType": "address",
          "name": "beacon",
          "type": "address"
        }
      ],
      "name": "BeaconUpgraded",
      "type": "event"
    },
    {
      "anonymous": false,
      "inputs": [
        {
          "indexed": true,
          "internalType": "address",
          "name": "oldContract",
          "type": "address"
        },
        {
          "indexed": true,
          "internalType": "address",
          "name": "newContract",
          "type": "address"
        }
      ],
      "name": "ContractUpgraded",
      "type": "event"
    },
    {
      "anonymous": false,
      "inputs": [
        {
          "indexed": true,
          "internalType": "address",
          "name": "implementation",
          "type": "address"
        }
      ],
      "name": "Upgraded",
      "type": "event"
    },
    {
      "inputs": [],
      "name": "WETH",
      "outputs": [
        {
          "internalType": "contract IWETH",
          "name": "",
          "type": "address"
        }
      ],
      "stateMutability": "view",
      "type": "function"
    },
    {
      "inputs": [
        {
          "internalType": "address",
          "name": "tokenAddress",
          "type": "address"
        },
        {
          "internalType": "uint32",
          "name": "nonce",
          "type": "uint32"
        }
      ],
      "name": "attestToken",
      "outputs": [
        {
          "internalType": "uint64",
          "name": "sequence",
          "type": "uint64"
        }
      ],
      "stateMutability": "payable",
      "type": "function"
    },
    {
      "inputs": [
        {
          "internalType": "uint16",
          "name": "chainId_",
          "type": "uint16"
        }
      ],
      "name": "bridgeContracts",
      "outputs": [
        {
          "internalType": "bytes32",
          "name": "",
          "type": "bytes32"
        }
      ],
      "stateMutability": "view",
      "type": "function"
    },
    {
      "inputs": [],
      "name": "chainId",
      "outputs": [
        {
          "internalType": "uint16",
          "name": "",
          "type": "uint16"
        }
      ],
      "stateMutability": "view",
      "type": "function"
    },
    {
      "inputs": [
        {
          "internalType": "bytes",
          "name": "encodedVm",
          "type": "bytes"
        }
      ],
      "name": "completeTransfer",
      "outputs": [],
      "stateMutability": "nonpayable",
      "type": "function"
    },
    {
      "inputs": [
        {
          "internalType": "bytes",
          "name": "encodedVm",
          "type": "bytes"
        }
      ],
      "name": "completeTransferAndUnwrapETH",
      "outputs": [],
      "stateMutability": "nonpayable",
      "type": "function"
    },
    {
      "inputs": [
        {
          "internalType": "bytes",
          "name": "encodedVm",
          "type": "bytes"
        }
      ],
      "name": "createWrapped",
      "outputs": [
        {
          "internalType": "address",
          "name": "token",
          "type": "address"
        }
      ],
      "stateMutability": "nonpayable",
      "type": "function"
    },
    {
      "inputs": [
        {
          "components": [
            {
              "internalType": "uint8",
              "name": "payloadID",
              "type": "uint8"
            },
            {
              "internalType": "bytes32",
              "name": "tokenAddress",
              "type": "bytes32"
            },
            {
              "internalType": "uint16",
              "name": "tokenChain",
              "type": "uint16"
            },
            {
              "internalType": "uint8",
              "name": "decimals",
              "type": "uint8"
            },
            {
              "internalType": "bytes32",
              "name": "symbol",
              "type": "bytes32"
            },
            {
              "internalType": "bytes32",
              "name": "name",
              "type": "bytes32"
            }
          ],
          "internalType": "struct BridgeStructs.AssetMeta",
          "name": "meta",
          "type": "tuple"
        }
      ],
      "name": "encodeAssetMeta",
      "outputs": [
        {
          "internalType": "bytes",
          "name": "encoded",
          "type": "bytes"
        }
      ],
      "stateMutability": "pure",
      "type": "function"
    },
    {
      "inputs": [
        {
          "components": [
            {
              "internalType": "uint8",
              "name": "payloadID",
              "type": "uint8"
            },
            {
              "internalType": "uint256",
              "name": "amount",
              "type": "uint256"
            },
            {
              "internalType": "bytes32",
              "name": "tokenAddress",
              "type": "bytes32"
            },
            {
              "internalType": "uint16",
              "name": "tokenChain",
              "type": "uint16"
            },
            {
              "internalType": "bytes32",
              "name": "to",
              "type": "bytes32"
            },
            {
              "internalType": "uint16",
              "name": "toChain",
              "type": "uint16"
            },
            {
              "internalType": "uint256",
              "name": "fee",
              "type": "uint256"
            }
          ],
          "internalType": "struct BridgeStructs.Transfer",
          "name": "transfer",
          "type": "tuple"
        }
      ],
      "name": "encodeTransfer",
      "outputs": [
        {
          "internalType": "bytes",
          "name": "encoded",
          "type": "bytes"
        }
      ],
      "stateMutability": "pure",
      "type": "function"
    },
    {
      "inputs": [
        {
          "internalType": "bytes32",
          "name": "hash",
          "type": "bytes32"
        }
      ],
      "name": "governanceActionIsConsumed",
      "outputs": [
        {
          "internalType": "bool",
          "name": "",
          "type": "bool"
        }
      ],
      "stateMutability": "view",
      "type": "function"
    },
    {
      "inputs": [],
      "name": "governanceChainId",
      "outputs": [
        {
          "internalType": "uint16",
          "name": "",
          "type": "uint16"
        }
      ],
      "stateMutability": "view",
      "type": "function"
    },
    {
      "inputs": [],
      "name": "governanceContract",
      "outputs": [
        {
          "internalType": "bytes32",
          "name": "",
          "type": "bytes32"
        }
      ],
      "stateMutability": "view",
      "type": "function"
    },
    {
      "inputs": [
        {
          "internalType": "address",
          "name": "impl",
          "type": "address"
        }
      ],
      "name": "isInitialized",
      "outputs": [
        {
          "internalType": "bool",
          "name": "",
          "type": "bool"
        }
      ],
      "stateMutability": "view",
      "type": "function"
    },
    {
      "inputs": [
        {
          "internalType": "bytes32",
          "name": "hash",
          "type": "bytes32"
        }
      ],
      "name": "isTransferCompleted",
      "outputs": [
        {
          "internalType": "bool",
          "name": "",
          "type": "bool"
        }
      ],
      "stateMutability": "view",
      "type": "function"
    },
    {
      "inputs": [
        {
          "internalType": "address",
          "name": "token",
          "type": "address"
        }
      ],
      "name": "isWrappedAsset",
      "outputs": [
        {
          "internalType": "bool",
          "name": "",
          "type": "bool"
        }
      ],
      "stateMutability": "view",
      "type": "function"
    },
    {
      "inputs": [
        {
          "internalType": "address",
          "name": "token",
          "type": "address"
        }
      ],
      "name": "outstandingBridged",
      "outputs": [
        {
          "internalType": "uint256",
          "name": "",
          "type": "uint256"
        }
      ],
      "stateMutability": "view",
      "type": "function"
    },
    {
      "inputs": [
        {
          "internalType": "bytes",
          "name": "encoded",
          "type": "bytes"
        }
      ],
      "name": "parseAssetMeta",
      "outputs": [
        {
          "components": [
            {
              "internalType": "uint8",
              "name": "payloadID",
              "type": "uint8"
            },
            {
              "internalType": "bytes32",
              "name": "tokenAddress",
              "type": "bytes32"
            },
            {
              "internalType": "uint16",
              "name": "tokenChain",
              "type": "uint16"
            },
            {
              "internalType": "uint8",
              "name": "decimals",
              "type": "uint8"
            },
            {
              "internalType": "bytes32",
              "name": "symbol",
              "type": "bytes32"
            },
            {
              "internalType": "bytes32",
              "name": "name",
              "type": "bytes32"
            }
          ],
          "internalType": "struct BridgeStructs.AssetMeta",
          "name": "meta",
          "type": "tuple"
        }
      ],
      "stateMutability": "pure",
      "type": "function"
    },
    {
      "inputs": [
        {
          "internalType": "bytes",
          "name": "encoded",
          "type": "bytes"
        }
      ],
      "name": "parseRegisterChain",
      "outputs": [
        {
          "components": [
            {
              "internalType": "bytes32",
              "name": "module",
              "type": "bytes32"
            },
            {
              "internalType": "uint8",
              "name": "action",
              "type": "uint8"
            },
            {
              "internalType": "uint16",
              "name": "chainId",
              "type": "uint16"
            },
            {
              "internalType": "uint16",
              "name": "emitterChainID",
              "type": "uint16"
            },
            {
              "internalType": "bytes32",
              "name": "emitterAddress",
              "type": "bytes32"
            }
          ],
          "internalType": "struct BridgeStructs.RegisterChain",
          "name": "chain",
          "type": "tuple"
        }
      ],
      "stateMutability": "pure",
      "type": "function"
    },
    {
      "inputs": [
        {
          "internalType": "bytes",
          "name": "encoded",
          "type": "bytes"
        }
      ],
      "name": "parseTransfer",
      "outputs": [
        {
          "components": [
            {
              "internalType": "uint8",
              "name": "payloadID",
              "type": "uint8"
            },
            {
              "internalType": "uint256",
              "name": "amount",
              "type": "uint256"
            },
            {
              "internalType": "bytes32",
              "name": "tokenAddress",
              "type": "bytes32"
            },
            {
              "internalType": "uint16",
              "name": "tokenChain",
              "type": "uint16"
            },
            {
              "internalType": "bytes32",
              "name": "to",
              "type": "bytes32"
            },
            {
              "internalType": "uint16",
              "name": "toChain",
              "type": "uint16"
            },
            {
              "internalType": "uint256",
              "name": "fee",
              "type": "uint256"
            }
          ],
          "internalType": "struct BridgeStructs.Transfer",
          "name": "transfer",
          "type": "tuple"
        }
      ],
      "stateMutability": "pure",
      "type": "function"
    },
    {
      "inputs": [
        {
          "internalType": "bytes",
          "name": "encoded",
          "type": "bytes"
        }
      ],
      "name": "parseUpgrade",
      "outputs": [
        {
          "components": [
            {
              "internalType": "bytes32",
              "name": "module",
              "type": "bytes32"
            },
            {
              "internalType": "uint8",
              "name": "action",
              "type": "uint8"
            },
            {
              "internalType": "uint16",
              "name": "chainId",
              "type": "uint16"
            },
            {
              "internalType": "bytes32",
              "name": "newContract",
              "type": "bytes32"
            }
          ],
          "internalType": "struct BridgeStructs.UpgradeContract",
          "name": "chain",
          "type": "tuple"
        }
      ],
      "stateMutability": "pure",
      "type": "function"
    },
    {
      "inputs": [
        {
          "internalType": "bytes",
          "name": "encodedVM",
          "type": "bytes"
        }
      ],
      "name": "registerChain",
      "outputs": [],
      "stateMutability": "nonpayable",
      "type": "function"
    },
    {
      "inputs": [],
      "name": "tokenImplementation",
      "outputs": [
        {
          "internalType": "address",
          "name": "",
          "type": "address"
        }
      ],
      "stateMutability": "view",
      "type": "function"
    },
    {
      "inputs": [
        {
          "internalType": "address",
          "name": "token",
          "type": "address"
        },
        {
          "internalType": "uint256",
          "name": "amount",
          "type": "uint256"
        },
        {
          "internalType": "uint16",
          "name": "recipientChain",
          "type": "uint16"
        },
        {
          "internalType": "bytes32",
          "name": "recipient",
          "type": "bytes32"
        },
        {
          "internalType": "uint256",
          "name": "arbiterFee",
          "type": "uint256"
        },
        {
          "internalType": "uint32",
          "name": "nonce",
          "type": "uint32"
        }
      ],
      "name": "transferTokens",
      "outputs": [
        {
          "internalType": "uint64",
          "name": "sequence",
          "type": "uint64"
        }
      ],
      "stateMutability": "payable",
      "type": "function"
    },
    {
      "inputs": [
        {
          "internalType": "bytes",
          "name": "encodedVm",
          "type": "bytes"
        }
      ],
      "name": "updateWrapped",
      "outputs": [
        {
          "internalType": "address",
          "name": "token",
          "type": "address"
        }
      ],
      "stateMutability": "nonpayable",
      "type": "function"
    },
    {
      "inputs": [
        {
          "internalType": "bytes",
          "name": "encodedVM",
          "type": "bytes"
        }
      ],
      "name": "upgrade",
      "outputs": [],
      "stateMutability": "nonpayable",
      "type": "function"
    },
    {
      "inputs": [],
      "name": "wormhole",
      "outputs": [
        {
          "internalType": "contract IWormhole",
          "name": "",
          "type": "address"
        }
      ],
      "stateMutability": "view",
      "type": "function"
    },
    {
      "inputs": [
        {
          "internalType": "uint16",
          "name": "recipientChain",
          "type": "uint16"
        },
        {
          "internalType": "bytes32",
          "name": "recipient",
          "type": "bytes32"
        },
        {
          "internalType": "uint256",
          "name": "arbiterFee",
          "type": "uint256"
        },
        {
          "internalType": "uint32",
          "name": "nonce",
          "type": "uint32"
        }
      ],
      "name": "wrapAndTransferETH",
      "outputs": [
        {
          "internalType": "uint64",
          "name": "sequence",
          "type": "uint64"
        }
      ],
      "stateMutability": "payable",
      "type": "function"
    },
    {
      "inputs": [
        {
          "internalType": "uint16",
          "name": "tokenChainId",
          "type": "uint16"
        },
        {
          "internalType": "bytes32",
          "name": "tokenAddress",
          "type": "bytes32"
        }
      ],
      "name": "wrappedAsset",
      "outputs": [
        {
          "internalType": "address",
          "name": "",
          "type": "address"
        }
      ],
      "stateMutability": "view",
      "type": "function"
    },
    {
      "stateMutability": "payable",
      "type": "receive"
    },
    {
      "inputs": [],
      "name": "implementation",
      "outputs": [
        {
          "internalType": "address",
          "name": "",
          "type": "address"
        }
      ],
      "stateMutability": "view",
      "type": "function"
    },
    {
      "inputs": [],
      "name": "initialize",
      "outputs": [],
      "stateMutability": "nonpayable",
      "type": "function"
    }
  ],
  "bytecode": "0x608060405234801561001057600080fd5b50614bda806100206000396000f3fe608060405260043610620001f75760003560e01c8063a5799f93116200010b578063c48fa11511620000a1578063f768441f116200006c578063f768441f1462000754578063fbe3c2cd1462000779578063fbeeacd9146200079a578063ff200cde14620007fa57600080fd5b8063c48fa11514620006b6578063c687851914620006cd578063d60b347f14620006f2578063e8059810146200072f57600080fd5b8063ad66a5f111620000e2578063ad66a5f114620005fc578063b046223b1462000640578063b172b2221462000665578063b96c7e4d146200067c57600080fd5b8063a5799f931462000583578063aa4efa5b14620005a8578063ad5c464814620005dc57600080fd5b80632c3c02a4116200018d5780638129fc1c11620001585780638129fc1c146200050a57806384acd1bb14620005225780639981509f14620005425780639a8a0592146200055957600080fd5b80632c3c02a4146200046a5780632f3a3d5d146200049e5780635c60da1b14620004be5780635f85426614620004d657600080fd5b80631a2be4da11620001ce5780631a2be4da146200032e5780631ff1e286146200037c5780632539464514620003ba5780632b51137514620003e157600080fd5b806301f53255146200020457806307dfd8fb14620002825780630f5287b014620002fe57600080fd5b36620001ff57005b600080fd5b3480156200021157600080fd5b506200022962000223366004620038cf565b6200081f565b604051620002799190600060a0820190508251825260ff6020840151166020830152604083015161ffff808216604085015280606086015116606085015250506080830151608083015292915050565b60405180910390f35b3480156200028f57600080fd5b50620002a7620002a1366004620038cf565b62000a29565b604051620002799190600060c08201905060ff83511682526020830151602083015261ffff604084015116604083015260ff60608401511660608301526080830151608083015260a083015160a083015292915050565b620003156200030f366004620037f7565b62000bb8565b6040516001600160401b03909116815260200162000279565b3480156200033b57600080fd5b506200036b6200034d366004620037d3565b6001600160a01b031660009081526009602052604090205460ff1690565b604051901515815260200162000279565b3480156200038957600080fd5b50620003a16200039b36600462003c6b565b6200110c565b6040516001600160a01b03909116815260200162000279565b348015620003c757600080fd5b50620003df620003d9366004620038cf565b6200113b565b005b348015620003ee57600080fd5b506200040662000400366004620038cf565b6200121f565b604051620002799190600060e08201905060ff83511682526020830151602083015260408301516040830152606083015161ffff8082166060850152608085015160808501528060a08601511660a0850152505060c083015160c083015292915050565b3480156200047757600080fd5b506200036b620004893660046200389d565b60009081526005602052604090205460ff1690565b348015620004ab57600080fd5b506001546001600160a01b0316620003a1565b348015620004cb57600080fd5b50620003a1620013d4565b348015620004e357600080fd5b50620004fb620004f536600462003a19565b620013ee565b60405162000279919062003dc8565b3480156200051757600080fd5b50620003df62001483565b3480156200052f57600080fd5b506000546001600160a01b0316620003a1565b620003156200055336600462003c99565b6200154d565b3480156200056657600080fd5b5060025461ffff165b60405161ffff909116815260200162000279565b3480156200059057600080fd5b50620003df620005a2366004620038cf565b620017db565b348015620005b557600080fd5b506200036b620005c73660046200389d565b60009081526006602052604090205460ff1690565b348015620005e957600080fd5b506004546001600160a01b0316620003a1565b3480156200060957600080fd5b50620006316200061b36600462003c2d565b61ffff166000908152600b602052604090205490565b60405190815260200162000279565b3480156200064d57600080fd5b50620004fb6200065f3660046200397f565b62001948565b3480156200067257600080fd5b5060035462000631565b3480156200068957600080fd5b50620006316200069b366004620037d3565b6001600160a01b03166000908152600a602052604090205490565b62000315620006c736600462003862565b620019c1565b348015620006da57600080fd5b50620003df620006ec366004620038cf565b62001cc1565b348015620006ff57600080fd5b506200036b62000711366004620037d3565b6001600160a01b031660009081526007602052604090205460ff1690565b3480156200073c57600080fd5b50620003a16200074e366004620038cf565b62001cce565b3480156200076157600080fd5b50620003a162000773366004620038cf565b62001ded565b3480156200078657600080fd5b5060025462010000900461ffff166200056f565b348015620007a757600080fd5b50620007bf620007b9366004620038cf565b62001f02565b6040516200027991908151815260208083015160ff169082015260408083015161ffff16908201526060918201519181019190915260800190565b3480156200080757600080fd5b50620003df62000819366004620038cf565b620020dd565b6040805160a081018252600080825260208201819052918101829052606081018290526080810182905290620008568382620020ea565b82526200086560208262003f98565b82519091506a546f6b656e42726964676514620008d55760405162461bcd60e51b815260206004820152602360248201527f696e76616c6964205265676973746572436861696e3a2077726f6e67206d6f64604482015262756c6560e81b60648201526084015b60405180910390fd5b620008e183826200214c565b60ff166020830152620008f660018262003f98565b9050816020015160ff166001146200095d5760405162461bcd60e51b815260206004820152602360248201527f696e76616c6964205265676973746572436861696e3a2077726f6e672061637460448201526234b7b760e91b6064820152608401620008cc565b620009698382620021ac565b61ffff1660408301526200097f60028262003f98565b90506200098d8382620021ac565b61ffff166060830152620009a360028262003f98565b9050620009b18382620020ea565b6080830152620009c360208262003f98565b90508083511462000a235760405162461bcd60e51b815260206004820152602360248201527f696e76616c6964205265676973746572436861696e3a2077726f6e67206c656e6044820152620cee8d60eb1b6064820152608401620008cc565b50919050565b6040805160c081018252600080825260208201819052918101829052606081018290526080810182905260a081018290529062000a6783826200214c565b60ff16825262000a7960018262003f98565b9050816000015160ff1660021462000ac85760405162461bcd60e51b8152602060048201526011602482015270696e76616c69642041737365744d65746160781b6044820152606401620008cc565b62000ad48382620020ea565b60208084019190915262000ae9908262003f98565b905062000af78382620021ac565b61ffff16604083015262000b0d60028262003f98565b905062000b1b83826200214c565b60ff16606083015262000b3060018262003f98565b905062000b3e8382620020ea565b608083015262000b5060208262003f98565b905062000b5e8382620020ea565b60a083015262000b7060208262003f98565b90508083511462000a235760405162461bcd60e51b8152602060048201526011602482015270696e76616c69642041737365744d65746160781b6044820152606401620008cc565b600080600062000be0896001600160a01b031660009081526009602052604090205460ff1690565b1562000cda57886001600160a01b0316639a8a05926040518163ffffffff1660e01b815260040160206040518083038186803b15801562000c2057600080fd5b505afa15801562000c35573d6000803e3d6000fd5b505050506040513d601f19601f8201168201806040525081019062000c5b919062003c4c565b9150886001600160a01b0316633d6c043b6040518163ffffffff1660e01b815260040160206040518083038186803b15801562000c9757600080fd5b505afa15801562000cac573d6000803e3d6000fd5b505050506040513d601f19601f8201168201806040525081019062000cd29190620038b6565b905062000cee565b505060025461ffff166001600160a01b0388165b60408051600481526024810182526020810180516001600160e01b031663313ce56760e01b17905290516000916001600160a01b038c169162000d32919062003d51565b600060405180830381855afa9150503d806000811462000d6f576040519150601f19603f3d011682016040523d82523d6000602084013e62000d74565b606091505b5091505060008180602001905181019062000d90919062003d04565b905062000da962000da28b836200220d565b826200224c565b995062000db960025461ffff1690565b61ffff168461ffff16141562000fd457604080513060248083019190915282518083039091018152604490910182526020810180516001600160e01b03166370a0823160e01b17905290516000916001600160a01b038e169162000e1e919062003d51565b600060405180830381855afa9150503d806000811462000e5b576040519150601f19603f3d011682016040523d82523d6000602084013e62000e60565b606091505b5091505060008180602001905181019062000e7c9190620038b6565b604051632142170760e11b8152336004820152306024820152604481018e90529091506001600160a01b038e16906342842e0e90606401600060405180830381600087803b15801562000ece57600080fd5b505af115801562000ee3573d6000803e3d6000fd5b5050505060008d6001600160a01b03166370a0823160e01b3060405160240162000f1c91906001600160a01b0391909116815260200190565b60408051601f198184030181529181526020820180516001600160e01b03166001600160e01b031990941693909317909252905162000f5c919062003d51565b600060405180830381855afa9150503d806000811462000f99576040519150601f19603f3d011682016040523d82523d6000602084013e62000f9e565b606091505b5091505060008180602001905181019062000fba9190620038b6565b905062000fc88382620040fe565b9d50505050506200109f565b604051632142170760e11b8152336004820152306024820152604481018b90526001600160a01b038c16906342842e0e90606401600060405180830381600087803b1580156200102357600080fd5b505af115801562001038573d6000803e3d6000fd5b5050604051632770a7eb60e21b8152306004820152602481018d90526001600160a01b038e169250639dc29fac9150604401600060405180830381600087803b1580156200108557600080fd5b505af11580156200109a573d6000803e3d6000fd5b505050505b6000620010ad8b836200220d565b90506000620010bd89846200220d565b9050620010cd60025461ffff1690565b61ffff168661ffff161415620010e957620010e98d8362002281565b620010fb8686848e8e86348f6200234e565b9d9c50505050505050505050505050565b61ffff821660009081526008602090815260408083208484529091529020546001600160a01b03165b92915050565b60008060006200114b846200248c565b925092509250818190620011745760405162461bcd60e51b8152600401620008cc919062003dc8565b506200119a8361014001516000908152600560205260409020805460ff19166001179055565b6000620011ab8460e0015162001f02565b9050620011bb60025461ffff1690565b61ffff16816040015161ffff1614620012085760405162461bcd60e51b815260206004820152600e60248201526d1ddc9bdb99c818da185a5b881a5960921b6044820152606401620008cc565b60608101516200121890620026bb565b5050505050565b6040805160e081018252600080825260208201819052918101829052606081018290526080810182905260a0810182905260c08101829052906200126483826200214c565b60ff1682526200127660018262003f98565b9050816000015160ff16600114620012c45760405162461bcd60e51b815260206004820152601060248201526f34b73b30b634b2102a3930b739b332b960811b6044820152606401620008cc565b620012d08382620027f2565b602080840191909152620012e5908262003f98565b9050620012f38382620020ea565b60408301526200130560208262003f98565b9050620013138382620021ac565b61ffff1660608301526200132960028262003f98565b9050620013378382620020ea565b60808301526200134960208262003f98565b9050620013578382620021ac565b61ffff1660a08301526200136d60028262003f98565b90506200137b8382620027f2565b60c08301526200138d60208262003f98565b90508083511462000a235760405162461bcd60e51b815260206004820152601060248201526f34b73b30b634b2102a3930b739b332b960811b6044820152606401620008cc565b6000620013e96001546001600160a01b031690565b905090565b8051602080830151604080850151606080870151608088015160a089015160c08a0151955160f89990991b6001600160f81b031916978901979097526021880195909552604187019290925260f091821b6001600160f01b03199081166061880152606387019490945293901b909116608384015260858301529060a5015b6040516020818303038152906040529050919050565b6000620014b77f360894a13ba1a3210667c828492db98dca3e2076cc3735a920a3ca505d382bbc546001600160a01b031690565b9050620014dc816001600160a01b031660009081526007602052604090205460ff1690565b15620015215760405162461bcd60e51b8152602060048201526013602482015272185b1c9958591e481a5b9a5d1a585b1a5e9959606a1b6044820152606401620008cc565b6200154a816001600160a01b03166000908152600760205260409020805460ff19166001179055565b50565b600080620015636000546001600160a01b031690565b6001600160a01b0316631a90a2196040518163ffffffff1660e01b815260040160206040518083038186803b1580156200159c57600080fd5b505afa158015620015b1573d6000803e3d6000fd5b505050506040513d601f19601f82011682018060405250810190620015d79190620038b6565b9050348110620016355760405162461bcd60e51b815260206004820152602260248201527f76616c756520697320736d616c6c6572207468616e20776f726d686f6c652066604482015261656560f01b6064820152608401620008cc565b6000620016438234620040fe565b905080851115620016ac5760405162461bcd60e51b815260206004820152602c60248201527f66656520697320626967676572207468616e20616d6f756e74206d696e75732060448201526b776f726d686f6c652066656560a01b6064820152608401620008cc565b6000620016bb8260126200220d565b90506000620016cc8760126200220d565b90506000620016dd8360126200224c565b620016e99085620040fe565b905080156200172257604051339082156108fc029083906000818181858888f1935050505015801562001720573d6000803e3d6000fd5b505b6004546001600160a01b031663d0e30db06200173f8387620040fe565b6040518263ffffffff1660e01b81526004016000604051808303818588803b1580156200176b57600080fd5b505af115801562001780573d6000803e3d6000fd5b5050505050620017a36200179c6004546001600160a01b031690565b8462002281565b620017cd620017b560025461ffff1690565b6004546001600160a01b0316858d8d878b8e6200234e565b9a9950505050505050505050565b6000806000620017eb846200248c565b925092509250818190620018145760405162461bcd60e51b8152600401620008cc919062003dc8565b506200183a8361014001516000908152600560205260409020805460ff19166001179055565b60006200184b8460e001516200081f565b90506200185b60025461ffff1690565b61ffff16816040015161ffff1614806200187b5750604081015161ffff16155b620018bc5760405162461bcd60e51b815260206004820152601060248201526f1a5b9d985b1a590818da185a5b881a5960821b6044820152606401620008cc565b606081015161ffff166000908152600b602052604081205414620019235760405162461bcd60e51b815260206004820152601860248201527f636861696e20616c7265616479207265676973746572656400000000000000006044820152606401620008cc565b620012188160600151826080015161ffff9091166000908152600b6020526040902055565b8051602080830151604080850151606080870151608088015160a0890151945160f898891b6001600160f81b031990811698820198909852602181019690965260f09390931b6001600160f01b031916604186015290951b9093166043830152604482019290925260648101919091526084016200146d565b60408051600481526024810182526020810180516001600160e01b031663313ce56760e01b179052905160009182916001600160a01b0386169162001a069162003d51565b600060405180830381855afa9150503d806000811462001a43576040519150601f19603f3d011682016040523d82523d6000602084013e62001a48565b606091505b5060408051600481526024810182526020810180516001600160e01b03166395d89b4160e01b1790529051919350600092506001600160a01b0387169162001a91919062003d51565b600060405180830381855afa9150503d806000811462001ace576040519150601f19603f3d011682016040523d82523d6000602084013e62001ad3565b606091505b5060408051600481526024810182526020810180516001600160e01b03166306fdde0360e01b1790529051919350600092506001600160a01b0388169162001b1c919062003d51565b600060405180830381855afa9150503d806000811462001b59576040519150601f19603f3d011682016040523d82523d6000602084013e62001b5e565b606091505b5091505060008380602001905181019062001b7a919062003d04565b905060008380602001905181019062001b94919062003949565b905060008380602001905181019062001bae919062003949565b9050600080602084015191506020830151905060006040518060c00160405280600260ff1681526020018d6001600160a01b031660001b815260200162001bf860025461ffff1690565b61ffff1681526020018760ff168152602001848152602001838152509050600062001c238262001948565b905062001c386000546001600160a01b031690565b6001600160a01b031663b19a437e348e84600f6040518563ffffffff1660e01b815260040162001c6b9392919062003eb6565b6020604051808303818588803b15801562001c8557600080fd5b505af115801562001c9a573d6000803e3d6000fd5b50505050506040513d601f19601f82011682018060405250810190620010fb919062003ce7565b6200154a8160006200284b565b60008060008062001ce76000546001600160a01b031690565b6001600160a01b031663c0fd8bde866040518263ffffffff1660e01b815260040162001d14919062003dc8565b60006040518083038186803b15801562001d2d57600080fd5b505afa15801562001d42573d6000803e3d6000fd5b505050506040513d6000823e601f3d908101601f1916820160405262001d6c919081019062003abe565b92509250925081819062001d955760405162461bcd60e51b8152600401620008cc919062003dc8565b5062001da18362002fd4565b62001dc05760405162461bcd60e51b8152600401620008cc9062003e8d565b600062001dd18460e0015162000a29565b905062001de3818560a0015162003011565b9695505050505050565b60008060008062001e066000546001600160a01b031690565b6001600160a01b031663c0fd8bde866040518263ffffffff1660e01b815260040162001e33919062003dc8565b60006040518083038186803b15801562001e4c57600080fd5b505afa15801562001e61573d6000803e3d6000fd5b505050506040513d6000823e601f3d908101601f1916820160405262001e8b919081019062003abe565b92509250925081819062001eb45760405162461bcd60e51b8152600401620008cc919062003dc8565b5062001ec08362002fd4565b62001edf5760405162461bcd60e51b8152600401620008cc9062003e8d565b600062001ef08460e0015162000a29565b905062001de3818560a00151620032c2565b60408051608081018252600080825260208201819052918101829052606081018290529062001f328382620020ea565b825262001f4160208262003f98565b82519091506a546f6b656e4272696467651462001faf5760405162461bcd60e51b815260206004820152602560248201527f696e76616c69642055706772616465436f6e74726163743a2077726f6e67206d6044820152646f64756c6560d81b6064820152608401620008cc565b62001fbb83826200214c565b60ff16602083015262001fd060018262003f98565b9050816020015160ff16600214620020395760405162461bcd60e51b815260206004820152602560248201527f696e76616c69642055706772616465436f6e74726163743a2077726f6e67206160448201526431ba34b7b760d91b6064820152608401620008cc565b620020458382620021ac565b61ffff1660408301526200205b60028262003f98565b9050620020698382620020ea565b60608301526200207b60208262003f98565b90508083511462000a235760405162461bcd60e51b815260206004820152602560248201527f696e76616c69642055706772616465436f6e74726163743a2077726f6e67206c6044820152640cadccee8d60db1b6064820152608401620008cc565b6200154a8160016200284b565b6000620020f982602062003f98565b83511015620021435760405162461bcd60e51b8152602060048201526015602482015274746f427974657333325f6f75744f66426f756e647360581b6044820152606401620008cc565b50016020015190565b60006200215b82600162003f98565b83511015620021a35760405162461bcd60e51b8152602060048201526013602482015272746f55696e74385f6f75744f66426f756e647360681b6044820152606401620008cc565b50016001015190565b6000620021bb82600262003f98565b83511015620022045760405162461bcd60e51b8152602060048201526014602482015273746f55696e7431365f6f75744f66426f756e647360601b6044820152606401620008cc565b50016002015190565b600060088260ff16111562002245576200222960088362004118565b6200223690600a6200401d565b62002242908462003fb3565b92505b5090919050565b600060088260ff16111562002245576200226860088362004118565b6200227590600a6200401d565b620022429084620040dc565b6001600160a01b0382166000908152600a60205260409020546001600160401b03620022ae838362003f98565b11156200231c5760405162461bcd60e51b815260206004820152603560248201527f7472616e736665722065786365656473206d6178206f75747374616e64696e6760448201527408189c9a5919d959081d1bdad95b88185b5bdd5b9d605a1b6064820152608401620008cc565b62002349836200232d848462003f98565b6001600160a01b039091166000908152600a6020526040902055565b505050565b600086841115620023975760405162461bcd60e51b815260206004820152601260248201527119995948195e18d959591cc8185b5bdd5b9d60721b6044820152606401620008cc565b6040805160e081018252600181526020810189905290810189905261ffff808b16606083015260808201879052871660a082015260c081018590526000620023df82620013ee565b9050620023f46000546001600160a01b031690565b6001600160a01b031663b19a437e868684600f6040518563ffffffff1660e01b8152600401620024279392919062003eb6565b6020604051808303818588803b1580156200244157600080fd5b505af115801562002456573d6000803e3d6000fd5b50505050506040513d601f19601f820116820180604052508101906200247d919062003ce7565b9b9a5050505050505050505050565b604080516101608101825260008082526020820181905291810182905260608082018390526080820183905260a0820183905260c0820183905260e082018190526101008201839052610120820152610140810191909152600060606000806000620025006000546001600160a01b031690565b6001600160a01b031663c0fd8bde886040518263ffffffff1660e01b81526004016200252d919062003dc8565b60006040518083038186803b1580156200254657600080fd5b505afa1580156200255b573d6000803e3d6000fd5b505050506040513d6000823e601f3d908101601f1916820160405262002585919081019062003abe565b925092509250816200259e5791945092509050620026b4565b60025462010000900461ffff1661ffff16836060015161ffff1614620025fc5750506040805180820190915260168152753bb937b7339033b7bb32b93730b731b29031b430b4b760511b6020820152909350600092509050620026b4565b6003548360800151146200264f57505060408051808201909152601981527f77726f6e6720676f7665726e616e636520636f6e7472616374000000000000006020820152909350600092509050620026b4565b61014083015160009081526005602052604090205460ff1615620026995782600060405180606001604052806022815260200162004b8360229139955095509550505050620026b4565b50506040805160208101909152600081529093506001925090505b9193909250565b6000620026ef7f360894a13ba1a3210667c828492db98dca3e2076cc3735a920a3ca505d382bbc546001600160a01b031690565b9050620026fc82620033bd565b60408051600481526024810182526020810180516001600160e01b031663204a7f0760e21b179052905160009182916001600160a01b03861691620027419162003d51565b600060405180830381855af49150503d80600081146200277e576040519150601f19603f3d011682016040523d82523d6000602084013e62002783565b606091505b5091509150818190620027ab5760405162461bcd60e51b8152600401620008cc919062003dc8565b50836001600160a01b0316836001600160a01b03167f2e4cc16c100f0b55e2df82ab0b1a7e294aa9cbd01b48fbaf622683fbc0507a4960405160405180910390a350505050565b60006200280182602062003f98565b83511015620021435760405162461bcd60e51b8152602060048201526015602482015274746f55696e743235365f6f75744f66426f756e647360581b6044820152606401620008cc565b6000806000620028636000546001600160a01b031690565b6001600160a01b031663c0fd8bde866040518263ffffffff1660e01b815260040162002890919062003dc8565b60006040518083038186803b158015620028a957600080fd5b505afa158015620028be573d6000803e3d6000fd5b505050506040513d6000823e601f3d908101601f19168201604052620028e8919081019062003abe565b925092509250818190620029115760405162461bcd60e51b8152600401620008cc919062003dc8565b506200291d8362002fd4565b6200293c5760405162461bcd60e51b8152600401620008cc9062003e8d565b60006200294d8460e001516200121f565b90506200296e84610140015160009081526006602052604090205460ff1690565b15620029bd5760405162461bcd60e51b815260206004820152601a60248201527f7472616e7366657220616c726561647920636f6d706c657465640000000000006044820152606401620008cc565b620029e28461014001516000908152600660205260409020805460ff19166001179055565b60025461ffff1661ffff168160a0015161ffff161462002a3c5760405162461bcd60e51b815260206004820152601460248201527334b73b30b634b2103a30b933b2ba1031b430b4b760611b6044820152606401620008cc565b600062002a4c60025461ffff1690565b61ffff16826060015161ffff16141562002a7e57506040810151602082015162002a78908290620033ff565b62002aff565b600062002a94836060015184604001516200110c565b90506001600160a01b03811662002afc5760405162461bcd60e51b815260206004820152602560248201527f6e6f207772617070657220666f72207468697320746f6b656e2063726561746560448201526419081e595d60da1b6064820152608401620008cc565b90505b85158062002b1a57506004546001600160a01b038281169116145b62002b745760405162461bcd60e51b815260206004820152602360248201527f696e76616c696420746f6b656e2c2063616e206f6e6c7920756e77726170205760448201526208aa8960eb1b6064820152608401620008cc565b60408051600481526024810182526020810180516001600160e01b031663313ce56760e01b17905290516000916001600160a01b0384169162002bb8919062003d51565b600060405180830381855afa9150503d806000811462002bf5576040519150601f19603f3d011682016040523d82523d6000602084013e62002bfa565b606091505b5091505060008180602001905181019062002c16919062003d04565b9050600062002c2a8560200151836200224c565b9050600062002c3e8660c00151846200224c565b9050801562002e23578181111562002ca45760405162461bcd60e51b815260206004820152602260248201527f66656520686967686572207468616e207472616e7366657272656420616d6f756044820152611b9d60f21b6064820152608401620008cc565b891562002d3e5760048054604051632e1a7d4d60e01b81529182018390526001600160a01b031690632e1a7d4d90602401600060405180830381600087803b15801562002cf057600080fd5b505af115801562002d05573d6000803e3d6000fd5b505060405133925083156108fc02915083906000818181858888f1935050505015801562002d37573d6000803e3d6000fd5b5062002e23565b60025461ffff1661ffff16866060015161ffff161462002dc0576040516340c10f1960e01b8152336004820152602481018290526001600160a01b038616906340c10f1990604401600060405180830381600087803b15801562002da157600080fd5b505af115801562002db6573d6000803e3d6000fd5b5050505062002e23565b60405163423f6cef60e01b8152336004820152602481018290526001600160a01b0386169063423f6cef90604401600060405180830381600087803b15801562002e0957600080fd5b505af115801562002e1e573d6000803e3d6000fd5b505050505b600062002e318284620040fe565b60808801519091508b1562002edc5760048054604051632e1a7d4d60e01b81529182018490526001600160a01b031690632e1a7d4d90602401600060405180830381600087803b15801562002e8557600080fd5b505af115801562002e9a573d6000803e3d6000fd5b50506040516001600160a01b038416925084156108fc02915084906000818181858888f1935050505015801562002ed5573d6000803e3d6000fd5b5062002fc5565b60025461ffff1661ffff16886060015161ffff161462002f60576040516340c10f1960e01b81526001600160a01b038281166004830152602482018490528816906340c10f1990604401600060405180830381600087803b15801562002f4157600080fd5b505af115801562002f56573d6000803e3d6000fd5b5050505062002fc5565b60405163423f6cef60e01b81526001600160a01b0382811660048301526024820184905288169063423f6cef90604401600060405180830381600087803b15801562002fab57600080fd5b505af115801562002fc0573d6000803e3d6000fd5b505050505b50505050505050505050505050565b6000816080015162002ffa836060015161ffff166000908152600b602052604090205490565b14156200300957506001919050565b506000919050565b60006200302160025461ffff1690565b61ffff16836040015161ffff1614156200308f5760405162461bcd60e51b815260206004820152602860248201527f63616e206f6e6c79207772617020746f6b656e732066726f6d20666f726569676044820152676e20636861696e7360c01b6064820152608401620008cc565b60006001600160a01b0316620030ae846040015185602001516200110c565b6001600160a01b031614620031065760405162461bcd60e51b815260206004820152601c60248201527f7772617070656420617373657420616c726561647920657869737473000000006044820152606401620008cc565b600063c71f461560e01b6200311f8560a0015162003435565b6200312e866080015162003435565b8660600151863089604001518a6020015160405160240162003157979695949392919062003e20565b60408051601f19818403018152918152602080830180516001600160e01b03166001600160e01b03199095169490941790935251909250600091620031a191309185910162003da2565b6040516020818303038152906040529050600060405180602001620031c69062003617565b601f1982820381018352601f909101166040819052620031ec9190849060200162003d6f565b60405160208183030381529060405290506000866040015187602001516040516020016200323392919060f09290921b6001600160f01b0319168252600282015260220190565b604051602081830303815290604052805190602001209050808251602084016000f59450843b6200326357600080fd5b6040808801516020808a015161ffff90921660009081526008825283812092815291815282822080546001600160a01b0319166001600160a01b038a1690811790915582526009905220805460ff191660011790555050505092915050565b600080620032d9846040015185602001516200110c565b90506001600160a01b038116620033335760405162461bcd60e51b815260206004820152601d60248201527f7772617070656420617373657420646f6573206e6f74206578697374730000006044820152606401620008cc565b806001600160a01b031663a18cd7c6620033518660a0015162003435565b62003360876080015162003435565b866040518463ffffffff1660e01b8152600401620033819392919062003ddd565b600060405180830381600087803b1580156200339c57600080fd5b505af1158015620033b1573d6000803e3d6000fd5b50929695505050505050565b620033c88162003570565b6040516001600160a01b038216907fbc7cd75a20ee27fd9adebab32041f755214dbc6bffa90cc0225b39da2e5c2d3b90600090a250565b62003431828262003425856001600160a01b03166000908152600a602052604090205490565b6200232d9190620040fe565b5050565b606060005b6020811080156200347857508281602081106200346757634e487b7160e01b600052603260045260246000fd5b1a60f81b6001600160f81b03191615155b156200349357806200348a8162004171565b9150506200343a565b6000816001600160401b03811115620034bc57634e487b7160e01b600052604160045260246000fd5b6040519080825280601f01601f191660200182016040528015620034e7576020820181803683370190505b50905060005b8281101562003568578481602081106200351757634e487b7160e01b600052603260045260246000fd5b1a60f81b8282815181106200353c57634e487b7160e01b600052603260045260246000fd5b60200101906001600160f81b031916908160001a905350806200355f8162004171565b915050620034ed565b509392505050565b803b620035d65760405162461bcd60e51b815260206004820152602d60248201527f455243313936373a206e657720696d706c656d656e746174696f6e206973206e60448201526c1bdd08184818dbdb9d1c9858dd609a1b6064820152608401620008cc565b7f360894a13ba1a3210667c828492db98dca3e2076cc3735a920a3ca505d382bbc80546001600160a01b0319166001600160a01b0392909216919091179055565b61099380620041f083390190565b80356001600160a01b03811681146200363d57600080fd5b919050565b600082601f83011262003653578081fd5b815160206001600160401b03821115620036715762003671620041a5565b62003681818360051b0162003f3b565b80838252828201915082860187848660071b8901011115620036a1578586fd5b855b858110156200371157608080838b031215620036bd578788fd5b620036c762003eea565b835181528684015187820152604080850151620036e481620041df565b90820152606084810151620036f981620041df565b908201528552938501939190910190600101620036a3565b5090979650505050505050565b805180151581146200363d57600080fd5b600082601f83011262003740578081fd5b815162003757620037518262003f6e565b62003f3b565b8181528460208386010111156200376c578283fd5b6200377f8260208301602087016200413e565b949350505050565b80356200363d81620041bb565b80516200363d81620041bb565b80516200363d81620041cc565b80516001600160401b03811681146200363d57600080fd5b80516200363d81620041df565b600060208284031215620037e5578081fd5b620037f08262003625565b9392505050565b60008060008060008060c0878903121562003810578182fd5b6200381b8762003625565b95506020870135945060408701356200383481620041bb565b9350606087013592506080870135915060a08701356200385481620041cc565b809150509295509295509295565b6000806040838503121562003875578182fd5b620038808362003625565b915060208301356200389281620041cc565b809150509250929050565b600060208284031215620038af578081fd5b5035919050565b600060208284031215620038c8578081fd5b5051919050565b600060208284031215620038e1578081fd5b81356001600160401b03811115620038f7578182fd5b8201601f8101841362003908578182fd5b803562003919620037518262003f6e565b8181528560208385010111156200392e578384fd5b81602084016020830137908101602001929092525092915050565b6000602082840312156200395b578081fd5b81516001600160401b0381111562003971578182fd5b6200377f848285016200372f565b600060c0828403121562003991578081fd5b60405160c081018181106001600160401b0382111715620039b657620039b6620041a5565b6040528235620039c681620041df565b8152602083810135908201526040830135620039e281620041bb565b60408201526060830135620039f781620041df565b60608201526080838101359082015260a0928301359281019290925250919050565b600060e0828403121562003a2b578081fd5b60405160e081018181106001600160401b038211171562003a505762003a50620041a5565b604052823562003a6081620041df565b808252506020830135602082015260408301356040820152606083013562003a8881620041bb565b60608201526080838101359082015262003aa560a0840162003787565b60a082015260c083013560c08201528091505092915050565b60008060006060848603121562003ad3578081fd5b83516001600160401b038082111562003aea578283fd5b90850190610160828803121562003aff578283fd5b62003b0962003f15565b62003b1483620037c6565b815262003b2460208401620037a1565b602082015262003b3760408401620037a1565b604082015262003b4a6060840162003794565b60608201526080830151608082015262003b6760a08401620037ae565b60a082015262003b7a60c08401620037c6565b60c082015260e08301518281111562003b91578485fd5b62003b9f898286016200372f565b60e08301525061010062003bb5818501620037a1565b90820152610120838101518381111562003bcd578586fd5b62003bdb8a82870162003642565b91830191909152506101408381015190820152945062003bfe602087016200371e565b9350604086015191508082111562003c14578283fd5b5062003c23868287016200372f565b9150509250925092565b60006020828403121562003c3f578081fd5b8135620037f081620041bb565b60006020828403121562003c5e578081fd5b8151620037f081620041bb565b6000806040838503121562003c7e578182fd5b823562003c8b81620041bb565b946020939093013593505050565b6000806000806080858703121562003caf578182fd5b843562003cbc81620041bb565b93506020850135925060408501359150606085013562003cdc81620041cc565b939692955090935050565b60006020828403121562003cf9578081fd5b620037f082620037ae565b60006020828403121562003d16578081fd5b8151620037f081620041df565b6000815180845262003d3d8160208601602086016200413e565b601f01601f19169290920160200192915050565b6000825162003d658184602087016200413e565b9190910192915050565b6000835162003d838184602088016200413e565b83519083019062003d998183602088016200413e565b01949350505050565b6001600160a01b03831681526040602082018190526000906200377f9083018462003d23565b602081526000620037f0602083018462003d23565b60608152600062003df2606083018662003d23565b828103602084015262003e06818662003d23565b9150506001600160401b0383166040830152949350505050565b60e08152600062003e3560e083018a62003d23565b828103602084015262003e49818a62003d23565b60ff98909816604084015250506001600160401b039490941660608501526001600160a01b0392909216608084015261ffff1660a083015260c09091015292915050565b6020808252600f908201526e34b73b30b634b21032b6b4ba3a32b960891b604082015260600190565b63ffffffff8416815260606020820152600062003ed7606083018562003d23565b905060ff83166040830152949350505050565b604051608081016001600160401b038111828210171562003f0f5762003f0f620041a5565b60405290565b60405161016081016001600160401b038111828210171562003f0f5762003f0f620041a5565b604051601f8201601f191681016001600160401b038111828210171562003f665762003f66620041a5565b604052919050565b60006001600160401b0382111562003f8a5762003f8a620041a5565b50601f01601f191660200190565b6000821982111562003fae5762003fae6200418f565b500190565b60008262003fcf57634e487b7160e01b81526012600452602481fd5b500490565b600181815b808511156200401557816000190482111562003ff95762003ff96200418f565b808516156200400757918102915b93841c939080029062003fd9565b509250929050565b6000620037f060ff841683600082620040395750600162001135565b81620040485750600062001135565b81600181146200406157600281146200406c576200408c565b600191505062001135565b60ff8411156200408057620040806200418f565b50506001821b62001135565b5060208310610133831016604e8410600b8410161715620040b1575081810a62001135565b620040bd838362003fd4565b8060001904821115620040d457620040d46200418f565b029392505050565b6000816000190483118215151615620040f957620040f96200418f565b500290565b6000828210156200411357620041136200418f565b500390565b600060ff821660ff8416808210156200413557620041356200418f565b90039392505050565b60005b838110156200415b57818101518382015260200162004141565b838111156200416b576000848401525b50505050565b60006000198214156200418857620041886200418f565b5060010190565b634e487b7160e01b600052601160045260246000fd5b634e487b7160e01b600052604160045260246000fd5b61ffff811681146200154a57600080fd5b63ffffffff811681146200154a57600080fd5b60ff811681146200154a57600080fdfe608060405234801561001057600080fd5b5060405161099338038061099383398101604081905261002f9161048e565b818161005c60017fa3f0ad74e5423aebfd80d3ef4346578335a9a72aeaee59ff6cb3582b35133d51610599565b60008051602061094c8339815191521461008657634e487b7160e01b600052600160045260246000fd5b6100928282600061009b565b505050506105fe565b6100a483610175565b6040516001600160a01b038416907f1cf3b03a6cf19fa2baba4df148e9dcabedea7f8a5c07840e207e5c089be95d3e90600090a26000825111806100e55750805b156101705761016e836001600160a01b0316635c60da1b6040518163ffffffff1660e01b815260040160206040518083038186803b15801561012657600080fd5b505afa15801561013a573d6000803e3d6000fd5b505050506040513d601f19601f8201168201806040525081019061015e9190610474565b8361031560201b6100291760201c565b505b505050565b6101888161034160201b6100551760201c565b6101e75760405162461bcd60e51b815260206004820152602560248201527f455243313936373a206e657720626561636f6e206973206e6f74206120636f6e6044820152641d1c9858dd60da1b60648201526084015b60405180910390fd5b61026a816001600160a01b0316635c60da1b6040518163ffffffff1660e01b815260040160206040518083038186803b15801561022357600080fd5b505afa158015610237573d6000803e3d6000fd5b505050506040513d601f19601f8201168201806040525081019061025b9190610474565b61034160201b6100551760201c565b6102cf5760405162461bcd60e51b815260206004820152603060248201527f455243313936373a20626561636f6e20696d706c656d656e746174696f6e206960448201526f1cc81b9bdd08184818dbdb9d1c9858dd60821b60648201526084016101de565b806102f460008051602061094c83398151915260001b61034760201b61005b1760201c565b80546001600160a01b0319166001600160a01b039290921691909117905550565b606061033a838360405180606001604052806027815260200161096c6027913961034a565b9392505050565b3b151590565b90565b6060833b6103a95760405162461bcd60e51b815260206004820152602660248201527f416464726573733a2064656c65676174652063616c6c20746f206e6f6e2d636f6044820152651b9d1c9858dd60d21b60648201526084016101de565b600080856001600160a01b0316856040516103c4919061054a565b600060405180830381855af49150503d80600081146103ff576040519150601f19603f3d011682016040523d82523d6000602084013e610404565b606091505b50909250905061041582828661041f565b9695505050505050565b6060831561042e57508161033a565b82511561043e5782518084602001fd5b8160405162461bcd60e51b81526004016101de9190610566565b80516001600160a01b038116811461046f57600080fd5b919050565b600060208284031215610485578081fd5b61033a82610458565b600080604083850312156104a0578081fd5b6104a983610458565b60208401519092506001600160401b03808211156104c5578283fd5b818501915085601f8301126104d8578283fd5b8151818111156104ea576104ea6105e8565b604051601f8201601f19908116603f01168101908382118183101715610512576105126105e8565b8160405282815288602084870101111561052a578586fd5b61053b8360208301602088016105bc565b80955050505050509250929050565b6000825161055c8184602087016105bc565b9190910192915050565b60208152600082518060208401526105858160408501602087016105bc565b601f01601f19169190910160400192915050565b6000828210156105b757634e487b7160e01b81526011600452602481fd5b500390565b60005b838110156105d75781810151838201526020016105bf565b8381111561016e5750506000910152565b634e487b7160e01b600052604160045260246000fd5b61033f8061060d6000396000f3fe60806040523661001357610011610017565b005b6100115b61002761002261005e565b610106565b565b606061004e83836040518060600160405280602781526020016102e36027913961012a565b9392505050565b3b151590565b90565b60006100917fa3f0ad74e5423aebfd80d3ef4346578335a9a72aeaee59ff6cb3582b35133d50546001600160a01b031690565b6001600160a01b0316635c60da1b6040518163ffffffff1660e01b815260040160206040518083038186803b1580156100c957600080fd5b505afa1580156100dd573d6000803e3d6000fd5b505050506040513d601f19601f82011682018060405250810190610101919061023c565b905090565b3660008037600080366000845af43d6000803e808015610125573d6000f35b3d6000fd5b6060833b61018e5760405162461bcd60e51b815260206004820152602660248201527f416464726573733a2064656c65676174652063616c6c20746f206e6f6e2d636f6044820152651b9d1c9858dd60d21b60648201526084015b60405180910390fd5b600080856001600160a01b0316856040516101a99190610263565b600060405180830381855af49150503d80600081146101e4576040519150601f19603f3d011682016040523d82523d6000602084013e6101e9565b606091505b50915091506101f9828286610203565b9695505050505050565b6060831561021257508161004e565b8251156102225782518084602001fd5b8160405162461bcd60e51b8152600401610185919061027f565b60006020828403121561024d578081fd5b81516001600160a01b038116811461004e578182fd5b600082516102758184602087016102b2565b9190910192915050565b602081526000825180602084015261029e8160408501602087016102b2565b601f01601f19169190910160400192915050565b60005b838110156102cd5781810151838201526020016102b5565b838111156102dc576000848401525b5050505056fe416464726573733a206c6f772d6c6576656c2064656c65676174652063616c6c206661696c6564a264697066735822122028ae3c7189473f3d77a8ad72c7493d2c9d27e43be2eb4455ffed7ca2f9d10ffa64736f6c63430008040033a3f0ad74e5423aebfd80d3ef4346578335a9a72aeaee59ff6cb3582b35133d50416464726573733a206c6f772d6c6576656c2064656c65676174652063616c6c206661696c6564676f7665726e616e636520616374696f6e20616c726561647920636f6e73756d6564a2646970667358221220cd20903c5cf6a2f6ce2ace31c5d6be9108a8efc28cb2f9bdb4a43b8f18b98a4364736f6c63430008040033",
  "immutableReferences": {},
  "source": "// contracts/Implementation.sol\n// SPDX-License-Identifier: Apache 2\n\npragma solidity ^0.8.0;\npragma experimental ABIEncoderV2;\n\nimport \"@openzeppelin/contracts/proxy/ERC1967/ERC1967Upgrade.sol\";\n\nimport \"./Bridge.sol\";\n\n\ncontract BridgeImplementation is Bridge {\n    // Beacon getter for the token contracts\n    function implementation() public view returns (address) {\n        return tokenImplementation();\n    }\n\n    function initialize() initializer public virtual {\n        // this function needs to be exposed for an upgrade to pass\n    }\n\n    modifier initializer() {\n        address impl = ERC1967Upgrade._getImplementation();\n\n        require(\n            !isInitialized(impl),\n            \"already initialized\"\n        );\n\n        setInitialized(impl);\n\n        _;\n    }\n}\n",
  "sourcePath": "/Users/nguyenthithuthao/Downloads/Documents/wormhole-kip7/contracts/bridge/BridgeImplementation.sol",
  "compiler": {
    "name": "solc",
    "version": "0.8.4+commit.c7e474f2.Emscripten.clang"
  },
  "schemaVersion": "3.4.1",
  "updatedAt": "2022-01-26T09:33:50.470Z",
  "devdoc": {
    "kind": "dev",
    "methods": {},
    "version": 1
  },
  "userdoc": {
    "kind": "user",
    "methods": {},
    "version": 1
  }
}