{
  "contractName": "Getters",
  "abi": [
    {
      "inputs": [
        {
          "internalType": "uint32",
          "name": "index",
          "type": "uint32"
        }
      ],
      "name": "getGuardianSet",
      "outputs": [
        {
          "components": [
            {
              "internalType": "address[]",
              "name": "keys",
              "type": "address[]"
            },
            {
              "internalType": "uint32",
              "name": "expirationTime",
              "type": "uint32"
            }
          ],
          "internalType": "struct Structs.GuardianSet",
          "name": "",
          "type": "tuple"
        }
      ],
      "stateMutability": "view",
      "type": "function"
    },
    {
      "inputs": [],
      "name": "getCurrentGuardianSetIndex",
      "outputs": [
        {
          "internalType": "uint32",
          "name": "",
          "type": "uint32"
        }
      ],
      "stateMutability": "view",
      "type": "function"
    },
    {
      "inputs": [],
      "name": "getGuardianSetExpiry",
      "outputs": [
        {
          "internalType": "uint32",
          "name": "",
          "type": "uint32"
        }
      ],
      "stateMutability": "view",
      "type": "function"
    },
    {
      "inputs": [
        {
          "internalType": "bytes32",
          "name": "hash",
          "type": "bytes32"
        }
      ],
      "name": "governanceActionIsConsumed",
      "outputs": [
        {
          "internalType": "bool",
          "name": "",
          "type": "bool"
        }
      ],
      "stateMutability": "view",
      "type": "function"
    },
    {
      "inputs": [
        {
          "internalType": "address",
          "name": "impl",
          "type": "address"
        }
      ],
      "name": "isInitialized",
      "outputs": [
        {
          "internalType": "bool",
          "name": "",
          "type": "bool"
        }
      ],
      "stateMutability": "view",
      "type": "function"
    },
    {
      "inputs": [],
      "name": "chainId",
      "outputs": [
        {
          "internalType": "uint16",
          "name": "",
          "type": "uint16"
        }
      ],
      "stateMutability": "view",
      "type": "function"
    },
    {
      "inputs": [],
      "name": "governanceChainId",
      "outputs": [
        {
          "internalType": "uint16",
          "name": "",
          "type": "uint16"
        }
      ],
      "stateMutability": "view",
      "type": "function"
    },
    {
      "inputs": [],
      "name": "governanceContract",
      "outputs": [
        {
          "internalType": "bytes32",
          "name": "",
          "type": "bytes32"
        }
      ],
      "stateMutability": "view",
      "type": "function"
    },
    {
      "inputs": [],
      "name": "messageFee",
      "outputs": [
        {
          "internalType": "uint256",
          "name": "",
          "type": "uint256"
        }
      ],
      "stateMutability": "view",
      "type": "function"
    },
    {
      "inputs": [
        {
          "internalType": "address",
          "name": "emitter",
          "type": "address"
        }
      ],
      "name": "nextSequence",
      "outputs": [
        {
          "internalType": "uint64",
          "name": "",
          "type": "uint64"
        }
      ],
      "stateMutability": "view",
      "type": "function"
    }
  ],
  "bytecode": "0x608060405234801561001057600080fd5b50610399806100206000396000f3fe608060405234801561001057600080fd5b506004361061009e5760003560e01c8063b172b22211610066578063b172b22214610173578063d60b347f1461017b578063eb8d3f12146101a7578063f951975a146101bd578063fbe3c2cd146101dd57600080fd5b80631a90a219146100a35780631cfe7951146100ba5780632c3c02a4146100d95780634cf842b51461010c5780639a8a059214610158575b600080fd5b6007545b6040519081526020015b60405180910390f35b60035463ffffffff165b60405163ffffffff90911681526020016100b1565b6100fc6100e73660046102bc565b60009081526005602052604090205460ff1690565b60405190151581526020016100b1565b61013f61011a36600461028e565b6001600160a01b031660009081526004602052604090205467ffffffffffffffff1690565b60405167ffffffffffffffff90911681526020016100b1565b60005461ffff165b60405161ffff90911681526020016100b1565b6001546100a7565b6100fc61018936600461028e565b6001600160a01b031660009081526006602052604090205460ff1690565b600354640100000000900463ffffffff166100c4565b6101d06101cb3660046102d4565b6101ef565b6040516100b191906102f8565b60005462010000900461ffff16610160565b60408051808201825260608082526000602080840182905263ffffffff8616825260028152908490208451815492830281018401865294850182815293949390928492849184018282801561026d57602002820191906000526020600020905b81546001600160a01b0316815260019091019060200180831161024f575b50505091835250506001919091015463ffffffff1660209091015292915050565b60006020828403121561029f578081fd5b81356001600160a01b03811681146102b5578182fd5b9392505050565b6000602082840312156102cd578081fd5b5035919050565b6000602082840312156102e5578081fd5b813563ffffffff811681146102b5578182fd5b6020808252825160408383015280516060840181905260009291820190839060808601905b808310156103465783516001600160a01b0316825292840192600192909201919084019061031d565b5063ffffffff84880151166040870152809450505050509291505056fea26469706673582212203e9c7a77f471c084c1f6437849beb91fb79c1f4c4f0d0d935781bc0cae90a43064736f6c63430008040033",
  "immutableReferences": {},
  "source": "// contracts/Getters.sol\n// SPDX-License-Identifier: Apache 2\n\npragma solidity ^0.8.0;\n\nimport \"./State.sol\";\n\ncontract Getters is State {\n    function getGuardianSet(uint32 index) public view returns (Structs.GuardianSet memory) {\n        return _state.guardianSets[index];\n    }\n\n    function getCurrentGuardianSetIndex() public view returns (uint32) {\n        return _state.guardianSetIndex;\n    }\n\n    function getGuardianSetExpiry() public view returns (uint32) {\n        return _state.guardianSetExpiry;\n    }\n\n    function governanceActionIsConsumed(bytes32 hash) public view returns (bool) {\n        return _state.consumedGovernanceActions[hash];\n    }\n\n    function isInitialized(address impl) public view returns (bool) {\n        return _state.initializedImplementations[impl];\n    }\n\n    function chainId() public view returns (uint16) {\n        return _state.provider.chainId;\n    }\n\n    function governanceChainId() public view returns (uint16){\n        return _state.provider.governanceChainId;\n    }\n\n    function governanceContract() public view returns (bytes32){\n        return _state.provider.governanceContract;\n    }\n\n    function messageFee() public view returns (uint256) {\n        return _state.messageFee;\n    }\n\n    function nextSequence(address emitter) public view returns (uint64) {\n        return _state.sequences[emitter];\n    }\n}",
  "sourcePath": "/Users/nguyenthithuthao/Downloads/Documents/wormhole-kip7/contracts/Getters.sol",
  "compiler": {
    "name": "solc",
    "version": "0.8.4+commit.c7e474f2.Emscripten.clang"
  },
  "schemaVersion": "3.4.1",
  "updatedAt": "2022-01-26T09:33:50.367Z",
  "devdoc": {
    "kind": "dev",
    "methods": {},
    "version": 1
  },
  "userdoc": {
    "kind": "user",
    "methods": {},
    "version": 1
  }
}