{
  "contractName": "Implementation",
  "abi": [
    {
      "anonymous": false,
      "inputs": [
        {
          "indexed": false,
          "internalType": "address",
          "name": "previousAdmin",
          "type": "address"
        },
        {
          "indexed": false,
          "internalType": "address",
          "name": "newAdmin",
          "type": "address"
        }
      ],
      "name": "AdminChanged",
      "type": "event"
    },
    {
      "anonymous": false,
      "inputs": [
        {
          "indexed": true,
          "internalType": "address",
          "name": "beacon",
          "type": "address"
        }
      ],
      "name": "BeaconUpgraded",
      "type": "event"
    },
    {
      "anonymous": false,
      "inputs": [
        {
          "indexed": true,
          "internalType": "address",
          "name": "oldContract",
          "type": "address"
        },
        {
          "indexed": true,
          "internalType": "address",
          "name": "newContract",
          "type": "address"
        }
      ],
      "name": "ContractUpgraded",
      "type": "event"
    },
    {
      "anonymous": false,
      "inputs": [
        {
          "indexed": true,
          "internalType": "uint32",
          "name": "index",
          "type": "uint32"
        }
      ],
      "name": "GuardianSetAdded",
      "type": "event"
    },
    {
      "anonymous": false,
      "inputs": [
        {
          "indexed": true,
          "internalType": "address",
          "name": "sender",
          "type": "address"
        },
        {
          "indexed": false,
          "internalType": "uint64",
          "name": "sequence",
          "type": "uint64"
        },
        {
          "indexed": false,
          "internalType": "uint32",
          "name": "nonce",
          "type": "uint32"
        },
        {
          "indexed": false,
          "internalType": "bytes",
          "name": "payload",
          "type": "bytes"
        },
        {
          "indexed": false,
          "internalType": "uint8",
          "name": "consistencyLevel",
          "type": "uint8"
        }
      ],
      "name": "LogMessagePublished",
      "type": "event"
    },
    {
      "anonymous": false,
      "inputs": [
        {
          "indexed": true,
          "internalType": "address",
          "name": "implementation",
          "type": "address"
        }
      ],
      "name": "Upgraded",
      "type": "event"
    },
    {
      "stateMutability": "payable",
      "type": "fallback"
    },
    {
      "inputs": [],
      "name": "chainId",
      "outputs": [
        {
          "internalType": "uint16",
          "name": "",
          "type": "uint16"
        }
      ],
      "stateMutability": "view",
      "type": "function"
    },
    {
      "inputs": [],
      "name": "getCurrentGuardianSetIndex",
      "outputs": [
        {
          "internalType": "uint32",
          "name": "",
          "type": "uint32"
        }
      ],
      "stateMutability": "view",
      "type": "function"
    },
    {
      "inputs": [
        {
          "internalType": "uint32",
          "name": "index",
          "type": "uint32"
        }
      ],
      "name": "getGuardianSet",
      "outputs": [
        {
          "components": [
            {
              "internalType": "address[]",
              "name": "keys",
              "type": "address[]"
            },
            {
              "internalType": "uint32",
              "name": "expirationTime",
              "type": "uint32"
            }
          ],
          "internalType": "struct Structs.GuardianSet",
          "name": "",
          "type": "tuple"
        }
      ],
      "stateMutability": "view",
      "type": "function"
    },
    {
      "inputs": [],
      "name": "getGuardianSetExpiry",
      "outputs": [
        {
          "internalType": "uint32",
          "name": "",
          "type": "uint32"
        }
      ],
      "stateMutability": "view",
      "type": "function"
    },
    {
      "inputs": [
        {
          "internalType": "bytes32",
          "name": "hash",
          "type": "bytes32"
        }
      ],
      "name": "governanceActionIsConsumed",
      "outputs": [
        {
          "internalType": "bool",
          "name": "",
          "type": "bool"
        }
      ],
      "stateMutability": "view",
      "type": "function"
    },
    {
      "inputs": [],
      "name": "governanceChainId",
      "outputs": [
        {
          "internalType": "uint16",
          "name": "",
          "type": "uint16"
        }
      ],
      "stateMutability": "view",
      "type": "function"
    },
    {
      "inputs": [],
      "name": "governanceContract",
      "outputs": [
        {
          "internalType": "bytes32",
          "name": "",
          "type": "bytes32"
        }
      ],
      "stateMutability": "view",
      "type": "function"
    },
    {
      "inputs": [
        {
          "internalType": "address",
          "name": "impl",
          "type": "address"
        }
      ],
      "name": "isInitialized",
      "outputs": [
        {
          "internalType": "bool",
          "name": "",
          "type": "bool"
        }
      ],
      "stateMutability": "view",
      "type": "function"
    },
    {
      "inputs": [],
      "name": "messageFee",
      "outputs": [
        {
          "internalType": "uint256",
          "name": "",
          "type": "uint256"
        }
      ],
      "stateMutability": "view",
      "type": "function"
    },
    {
      "inputs": [
        {
          "internalType": "address",
          "name": "emitter",
          "type": "address"
        }
      ],
      "name": "nextSequence",
      "outputs": [
        {
          "internalType": "uint64",
          "name": "",
          "type": "uint64"
        }
      ],
      "stateMutability": "view",
      "type": "function"
    },
    {
      "inputs": [
        {
          "internalType": "bytes",
          "name": "encodedVM",
          "type": "bytes"
        }
      ],
      "name": "parseAndVerifyVM",
      "outputs": [
        {
          "components": [
            {
              "internalType": "uint8",
              "name": "version",
              "type": "uint8"
            },
            {
              "internalType": "uint32",
              "name": "timestamp",
              "type": "uint32"
            },
            {
              "internalType": "uint32",
              "name": "nonce",
              "type": "uint32"
            },
            {
              "internalType": "uint16",
              "name": "emitterChainId",
              "type": "uint16"
            },
            {
              "internalType": "bytes32",
              "name": "emitterAddress",
              "type": "bytes32"
            },
            {
              "internalType": "uint64",
              "name": "sequence",
              "type": "uint64"
            },
            {
              "internalType": "uint8",
              "name": "consistencyLevel",
              "type": "uint8"
            },
            {
              "internalType": "bytes",
              "name": "payload",
              "type": "bytes"
            },
            {
              "internalType": "uint32",
              "name": "guardianSetIndex",
              "type": "uint32"
            },
            {
              "components": [
                {
                  "internalType": "bytes32",
                  "name": "r",
                  "type": "bytes32"
                },
                {
                  "internalType": "bytes32",
                  "name": "s",
                  "type": "bytes32"
                },
                {
                  "internalType": "uint8",
                  "name": "v",
                  "type": "uint8"
                },
                {
                  "internalType": "uint8",
                  "name": "guardianIndex",
                  "type": "uint8"
                }
              ],
              "internalType": "struct Structs.Signature[]",
              "name": "signatures",
              "type": "tuple[]"
            },
            {
              "internalType": "bytes32",
              "name": "hash",
              "type": "bytes32"
            }
          ],
          "internalType": "struct Structs.VM",
          "name": "vm",
          "type": "tuple"
        },
        {
          "internalType": "bool",
          "name": "valid",
          "type": "bool"
        },
        {
          "internalType": "string",
          "name": "reason",
          "type": "string"
        }
      ],
      "stateMutability": "view",
      "type": "function"
    },
    {
      "inputs": [
        {
          "internalType": "bytes",
          "name": "encodedUpgrade",
          "type": "bytes"
        }
      ],
      "name": "parseContractUpgrade",
      "outputs": [
        {
          "components": [
            {
              "internalType": "bytes32",
              "name": "module",
              "type": "bytes32"
            },
            {
              "internalType": "uint8",
              "name": "action",
              "type": "uint8"
            },
            {
              "internalType": "uint16",
              "name": "chain",
              "type": "uint16"
            },
            {
              "internalType": "address",
              "name": "newContract",
              "type": "address"
            }
          ],
          "internalType": "struct GovernanceStructs.ContractUpgrade",
          "name": "cu",
          "type": "tuple"
        }
      ],
      "stateMutability": "pure",
      "type": "function"
    },
    {
      "inputs": [
        {
          "internalType": "bytes",
          "name": "encodedUpgrade",
          "type": "bytes"
        }
      ],
      "name": "parseGuardianSetUpgrade",
      "outputs": [
        {
          "components": [
            {
              "internalType": "bytes32",
              "name": "module",
              "type": "bytes32"
            },
            {
              "internalType": "uint8",
              "name": "action",
              "type": "uint8"
            },
            {
              "internalType": "uint16",
              "name": "chain",
              "type": "uint16"
            },
            {
              "components": [
                {
                  "internalType": "address[]",
                  "name": "keys",
                  "type": "address[]"
                },
                {
                  "internalType": "uint32",
                  "name": "expirationTime",
                  "type": "uint32"
                }
              ],
              "internalType": "struct Structs.GuardianSet",
              "name": "newGuardianSet",
              "type": "tuple"
            },
            {
              "internalType": "uint32",
              "name": "newGuardianSetIndex",
              "type": "uint32"
            }
          ],
          "internalType": "struct GovernanceStructs.GuardianSetUpgrade",
          "name": "gsu",
          "type": "tuple"
        }
      ],
      "stateMutability": "pure",
      "type": "function"
    },
    {
      "inputs": [
        {
          "internalType": "bytes",
          "name": "encodedSetMessageFee",
          "type": "bytes"
        }
      ],
      "name": "parseSetMessageFee",
      "outputs": [
        {
          "components": [
            {
              "internalType": "bytes32",
              "name": "module",
              "type": "bytes32"
            },
            {
              "internalType": "uint8",
              "name": "action",
              "type": "uint8"
            },
            {
              "internalType": "uint16",
              "name": "chain",
              "type": "uint16"
            },
            {
              "internalType": "uint256",
              "name": "messageFee",
              "type": "uint256"
            }
          ],
          "internalType": "struct GovernanceStructs.SetMessageFee",
          "name": "smf",
          "type": "tuple"
        }
      ],
      "stateMutability": "pure",
      "type": "function"
    },
    {
      "inputs": [
        {
          "internalType": "bytes",
          "name": "encodedTransferFees",
          "type": "bytes"
        }
      ],
      "name": "parseTransferFees",
      "outputs": [
        {
          "components": [
            {
              "internalType": "bytes32",
              "name": "module",
              "type": "bytes32"
            },
            {
              "internalType": "uint8",
              "name": "action",
              "type": "uint8"
            },
            {
              "internalType": "uint16",
              "name": "chain",
              "type": "uint16"
            },
            {
              "internalType": "uint256",
              "name": "amount",
              "type": "uint256"
            },
            {
              "internalType": "bytes32",
              "name": "recipient",
              "type": "bytes32"
            }
          ],
          "internalType": "struct GovernanceStructs.TransferFees",
          "name": "tf",
          "type": "tuple"
        }
      ],
      "stateMutability": "pure",
      "type": "function"
    },
    {
      "inputs": [
        {
          "internalType": "bytes",
          "name": "encodedVM",
          "type": "bytes"
        }
      ],
      "name": "parseVM",
      "outputs": [
        {
          "components": [
            {
              "internalType": "uint8",
              "name": "version",
              "type": "uint8"
            },
            {
              "internalType": "uint32",
              "name": "timestamp",
              "type": "uint32"
            },
            {
              "internalType": "uint32",
              "name": "nonce",
              "type": "uint32"
            },
            {
              "internalType": "uint16",
              "name": "emitterChainId",
              "type": "uint16"
            },
            {
              "internalType": "bytes32",
              "name": "emitterAddress",
              "type": "bytes32"
            },
            {
              "internalType": "uint64",
              "name": "sequence",
              "type": "uint64"
            },
            {
              "internalType": "uint8",
              "name": "consistencyLevel",
              "type": "uint8"
            },
            {
              "internalType": "bytes",
              "name": "payload",
              "type": "bytes"
            },
            {
              "internalType": "uint32",
              "name": "guardianSetIndex",
              "type": "uint32"
            },
            {
              "components": [
                {
                  "internalType": "bytes32",
                  "name": "r",
                  "type": "bytes32"
                },
                {
                  "internalType": "bytes32",
                  "name": "s",
                  "type": "bytes32"
                },
                {
                  "internalType": "uint8",
                  "name": "v",
                  "type": "uint8"
                },
                {
                  "internalType": "uint8",
                  "name": "guardianIndex",
                  "type": "uint8"
                }
              ],
              "internalType": "struct Structs.Signature[]",
              "name": "signatures",
              "type": "tuple[]"
            },
            {
              "internalType": "bytes32",
              "name": "hash",
              "type": "bytes32"
            }
          ],
          "internalType": "struct Structs.VM",
          "name": "vm",
          "type": "tuple"
        }
      ],
      "stateMutability": "pure",
      "type": "function"
    },
    {
      "inputs": [
        {
          "internalType": "bytes",
          "name": "_vm",
          "type": "bytes"
        }
      ],
      "name": "submitContractUpgrade",
      "outputs": [],
      "stateMutability": "nonpayable",
      "type": "function"
    },
    {
      "inputs": [
        {
          "internalType": "address[]",
          "name": "guardianSet",
          "type": "address[]"
        }
      ],
      "name": "submitNewGuardianSet",
      "outputs": [],
      "stateMutability": "nonpayable",
      "type": "function"
    },
    {
      "inputs": [
        {
          "internalType": "bytes",
          "name": "_vm",
          "type": "bytes"
        }
      ],
      "name": "submitSetMessageFee",
      "outputs": [],
      "stateMutability": "nonpayable",
      "type": "function"
    },
    {
      "inputs": [
        {
          "internalType": "bytes",
          "name": "_vm",
          "type": "bytes"
        }
      ],
      "name": "submitTransferFees",
      "outputs": [],
      "stateMutability": "nonpayable",
      "type": "function"
    },
    {
      "inputs": [
        {
          "internalType": "bytes32",
          "name": "hash",
          "type": "bytes32"
        },
        {
          "components": [
            {
              "internalType": "bytes32",
              "name": "r",
              "type": "bytes32"
            },
            {
              "internalType": "bytes32",
              "name": "s",
              "type": "bytes32"
            },
            {
              "internalType": "uint8",
              "name": "v",
              "type": "uint8"
            },
            {
              "internalType": "uint8",
              "name": "guardianIndex",
              "type": "uint8"
            }
          ],
          "internalType": "struct Structs.Signature[]",
          "name": "signatures",
          "type": "tuple[]"
        },
        {
          "components": [
            {
              "internalType": "address[]",
              "name": "keys",
              "type": "address[]"
            },
            {
              "internalType": "uint32",
              "name": "expirationTime",
              "type": "uint32"
            }
          ],
          "internalType": "struct Structs.GuardianSet",
          "name": "guardianSet",
          "type": "tuple"
        }
      ],
      "name": "verifySignatures",
      "outputs": [
        {
          "internalType": "bool",
          "name": "valid",
          "type": "bool"
        },
        {
          "internalType": "string",
          "name": "reason",
          "type": "string"
        }
      ],
      "stateMutability": "pure",
      "type": "function"
    },
    {
      "inputs": [
        {
          "components": [
            {
              "internalType": "uint8",
              "name": "version",
              "type": "uint8"
            },
            {
              "internalType": "uint32",
              "name": "timestamp",
              "type": "uint32"
            },
            {
              "internalType": "uint32",
              "name": "nonce",
              "type": "uint32"
            },
            {
              "internalType": "uint16",
              "name": "emitterChainId",
              "type": "uint16"
            },
            {
              "internalType": "bytes32",
              "name": "emitterAddress",
              "type": "bytes32"
            },
            {
              "internalType": "uint64",
              "name": "sequence",
              "type": "uint64"
            },
            {
              "internalType": "uint8",
              "name": "consistencyLevel",
              "type": "uint8"
            },
            {
              "internalType": "bytes",
              "name": "payload",
              "type": "bytes"
            },
            {
              "internalType": "uint32",
              "name": "guardianSetIndex",
              "type": "uint32"
            },
            {
              "components": [
                {
                  "internalType": "bytes32",
                  "name": "r",
                  "type": "bytes32"
                },
                {
                  "internalType": "bytes32",
                  "name": "s",
                  "type": "bytes32"
                },
                {
                  "internalType": "uint8",
                  "name": "v",
                  "type": "uint8"
                },
                {
                  "internalType": "uint8",
                  "name": "guardianIndex",
                  "type": "uint8"
                }
              ],
              "internalType": "struct Structs.Signature[]",
              "name": "signatures",
              "type": "tuple[]"
            },
            {
              "internalType": "bytes32",
              "name": "hash",
              "type": "bytes32"
            }
          ],
          "internalType": "struct Structs.VM",
          "name": "vm",
          "type": "tuple"
        }
      ],
      "name": "verifyVM",
      "outputs": [
        {
          "internalType": "bool",
          "name": "valid",
          "type": "bool"
        },
        {
          "internalType": "string",
          "name": "reason",
          "type": "string"
        }
      ],
      "stateMutability": "view",
      "type": "function"
    },
    {
      "stateMutability": "payable",
      "type": "receive"
    },
    {
      "inputs": [
        {
          "internalType": "uint32",
          "name": "nonce",
          "type": "uint32"
        },
        {
          "internalType": "bytes",
          "name": "payload",
          "type": "bytes"
        },
        {
          "internalType": "uint8",
          "name": "consistencyLevel",
          "type": "uint8"
        }
      ],
      "name": "publishMessage",
      "outputs": [
        {
          "internalType": "uint64",
          "name": "sequence",
          "type": "uint64"
        }
      ],
      "stateMutability": "payable",
      "type": "function"
    }
  ],
  "bytecode": "0x608060405234801561001057600080fd5b50612d47806100206000396000f3fe6080604052600436106101445760003560e01c806393df337e116100b6578063c0fd8bde1161006f578063c0fd8bde1461054c578063d60b347f1461057b578063eb8d3f12146105b4578063f42bc641146105d7578063f951975a146105f7578063fbe3c2cd14610624576101ab565b806393df337e1461048f5780639a8a0592146104af578063a0cce1b3146104d7578063a9e11893146104f7578063b172b22214610524578063b19a437e14610539576101ab565b80634cf842b5116101085780634cf842b51461030b5780634fdc60fa14610362578063515f3247146103c55780635cb8cae21461041f57806367921afb14610441578063875be02a14610461576101ab565b80630319e59c146101e157806304ca84cf146102535780631a90a219146102805780631cfe79511461029f5780632c3c02a4146102cb576101ab565b366101ab5760405162461bcd60e51b815260206004820152602c60248201527f74686520576f726d686f6c6520636f6e747261637420646f6573206e6f74206160448201526b63636570742061737365747360a01b60648201526084015b60405180910390fd5b60405162461bcd60e51b815260206004820152600b60248201526a1d5b9cdd5c1c1bdc9d195960aa1b60448201526064016101a2565b3480156101ed57600080fd5b506102016101fc3660046125f1565b610643565b60405161024a9190600060a0820190508251825260ff602084015116602083015261ffff6040840151166040830152606083015160608301526080830151608083015292915050565b60405180910390f35b34801561025f57600080fd5b5061027361026e3660046125f1565b610799565b60405161024a91906129df565b34801561028c57600080fd5b506007545b60405190815260200161024a565b3480156102ab57600080fd5b5060035463ffffffff165b60405163ffffffff909116815260200161024a565b3480156102d757600080fd5b506102fb6102e63660046124af565b60009081526005602052604090205460ff1690565b604051901515815260200161024a565b34801561031757600080fd5b5061034a610326366004612454565b6001600160a01b03166000908152600460205260409020546001600160401b031690565b6040516001600160401b03909116815260200161024a565b34801561036e57600080fd5b5061038261037d3660046125f1565b6109cc565b60405161024a91908151815260208083015160ff169082015260408083015161ffff16908201526060918201516001600160a01b03169181019190915260800190565b3480156103d157600080fd5b506103e56103e03660046125f1565b610b08565b60405161024a91908151815260208083015160ff169082015260408083015161ffff16908201526060918201519181019190915260800190565b34801561042b57600080fd5b5061043f61043a3660046125f1565b610c37565b005b34801561044d57600080fd5b5061043f61045c366004612475565b610d3f565b34801561046d57600080fd5b5061048161047c366004612623565b610dca565b60405161024a9291906129b1565b34801561049b57600080fd5b5061043f6104aa3660046125f1565b610f5e565b3480156104bb57600080fd5b5060005461ffff165b60405161ffff909116815260200161024a565b3480156104e357600080fd5b506104816104f23660046124c7565b6110aa565b34801561050357600080fd5b506105176105123660046125f1565b611287565b60405161024a9190612a4f565b34801561053057600080fd5b50600154610291565b61034a61054736600461275c565b611665565b34801561055857600080fd5b5061056c610567366004612585565b611705565b60405161024a93929190612a62565b34801561058757600080fd5b506102fb610596366004612454565b6001600160a01b031660009081526006602052604090205460ff1690565b3480156105c057600080fd5b50600354640100000000900463ffffffff166102b6565b3480156105e357600080fd5b5061043f6105f23660046125f1565b611767565b34801561060357600080fd5b50610617610612366004612742565b611868565b60405161024a9190612a3c565b34801561063057600080fd5b5060005462010000900461ffff166104c4565b6040805160a0810182526000808252602082018190529181018290526060810182905260808101829052906106788382611907565b8252610685602082612b79565b90506106918382611965565b60ff1660208301526106a4600182612b79565b9050816020015160ff166004146106f45760405162461bcd60e51b8152602060048201526014602482015273696e76616c6964205472616e736665724665657360601b60448201526064016101a2565b6106fe83826119c1565b61ffff166040830152610712600282612b79565b905061071e8382611a1e565b606083015261072e602082612b79565b905061073a8382611907565b608083015261074a602082612b79565b9050808351146107935760405162461bcd60e51b8152602060048201526014602482015273696e76616c6964205472616e736665724665657360601b60448201526064016101a2565b50919050565b6107a161213e565b60006107ad8382611907565b82526107ba602082612b79565b90506107c68382611965565b60ff1660208301526107d9600182612b79565b9050816020015160ff166002146108325760405162461bcd60e51b815260206004820152601a60248201527f696e76616c696420477561726469616e5365745570677261646500000000000060448201526064016101a2565b61083c83826119c1565b61ffff166040830152610850600282612b79565b905061085c8382611a73565b63ffffffff166080830152610872600482612b79565b905060006108808483611965565b905061088d600183612b79565b915060405180604001604052808260ff166001600160401b038111156108c357634e487b7160e01b600052604160045260246000fd5b6040519080825280602002602001820160405280156108ec578160200160208202803683370190505b5081526000602090910181905260608501919091525b8160ff16811015610974576109178584611ad0565b60608501515180518390811061093d57634e487b7160e01b600052603260045260246000fd5b6001600160a01b0390921660209283029190910190910152610960601484612b79565b92508061096c81612c86565b915050610902565b50818451146109c55760405162461bcd60e51b815260206004820152601a60248201527f696e76616c696420477561726469616e5365745570677261646500000000000060448201526064016101a2565b5050919050565b6040805160808101825260008082526020820181905291810182905260608101829052906109fa8382611907565b8252610a07602082612b79565b9050610a138382611965565b60ff166020830152610a26600182612b79565b9050816020015160ff16600114610a795760405162461bcd60e51b8152602060048201526017602482015276696e76616c696420436f6e74726163745570677261646560481b60448201526064016101a2565b610a8383826119c1565b61ffff166040830152610a97600282612b79565b9050610aa38382611907565b6001600160a01b03166060830152610abc602082612b79565b9050808351146107935760405162461bcd60e51b8152602060048201526017602482015276696e76616c696420436f6e74726163745570677261646560481b60448201526064016101a2565b604080516080810182526000808252602082018190529181018290526060810182905290610b368382611907565b8252610b43602082612b79565b9050610b4f8382611965565b60ff166020830152610b62600182612b79565b9050816020015160ff16600314610bb35760405162461bcd60e51b8152602060048201526015602482015274696e76616c6964205365744d65737361676546656560581b60448201526064016101a2565b610bbd83826119c1565b61ffff166040830152610bd1600282612b79565b9050610bdd8382611a1e565b6060830152610bed602082612b79565b9050808351146107935760405162461bcd60e51b8152602060048201526015602482015274696e76616c6964205365744d65737361676546656560581b60448201526064016101a2565b6000610c4282611287565b9050600080610c5083611b35565b91509150818190610c745760405162461bcd60e51b81526004016101a291906129cc565b506000610c848460e001516109cc565b805190915063436f726514610ccc5760405162461bcd60e51b815260206004820152600e60248201526d496e76616c6964204d6f64756c6560901b60448201526064016101a2565b60005461ffff1661ffff16816040015161ffff1614610d1d5760405162461bcd60e51b815260206004820152600d60248201526c24b73b30b634b21021b430b4b760991b60448201526064016101a2565b610d2b846101400151611cab565b610d388160600151611cc6565b5050505050565b6040805180820190915281815260006020820152610d6a610d6560035463ffffffff1690565b611df3565b610d8d81610d7d60035463ffffffff1690565b610d88906001612b91565b611e2b565b610dc6610d9f60035463ffffffff1690565b610daa906001612b91565b6003805463ffffffff191663ffffffff92909216919091179055565b5050565b600060606000610dde846101000151611868565b805151909150610e21576000604051806040016040528060148152602001731a5b9d985b1a590819dd585c991a585b881cd95d60621b8152509250925050915091565b60035463ffffffff1663ffffffff1684610100015163ffffffff1614158015610e53575042816020015163ffffffff16105b15610e9a5760006040518060400160405280601881526020017f677561726469616e2073657420686173206578706972656400000000000000008152509250925050915091565b61012084015151815151600a90600390610eb49083612c20565b610ebe9190612c00565b610ec9906002612c20565b610ed39190612c00565b610ede906001612b79565b1115610f12576000604051806040016040528060098152602001686e6f2071756f72756d60b81b8152509250925050915091565b600080610f2a866101400151876101200151856110aa565b9150915081610f40576000969095509350505050565b60016040518060200160405280600081525094509450505050915091565b6000610f6982611287565b9050600080610f7783611b35565b91509150818190610f9b5760405162461bcd60e51b81526004016101a291906129cc565b506000610fab8460e00151610643565b805190915063436f726514610ff35760405162461bcd60e51b815260206004820152600e60248201526d696e76616c6964204d6f64756c6560901b60448201526064016101a2565b60005461ffff1661ffff16816040015161ffff1614806110195750604081015161ffff16155b6110555760405162461bcd60e51b815260206004820152600d60248201526c34b73b30b634b21021b430b4b760991b60448201526064016101a2565b611063846101400151611cab565b608081015160608201516040516001600160a01b0383169180156108fc02916000818181858888f193505050501580156110a1573d6000803e3d6000fd5b50505050505050565b600060606000805b85518110156112665760008682815181106110dd57634e487b7160e01b600052603260045260246000fd5b6020026020010151905081600014806110ff57508260ff16816060015160ff16115b6111575760405162461bcd60e51b815260206004820152602360248201527f7369676e617475726520696e6469636573206d75737420626520617363656e64604482015262696e6760e81b60648201526084016101a2565b6060810151865180519194509060ff851690811061118557634e487b7160e01b600052603260045260246000fd5b60200260200101516001600160a01b0316600189836040015184600001518560200151604051600081526020016040526040516111de949392919093845260ff9290921660208401526040830152606082015260800190565b6020604051602081039080840390855afa158015611200573d6000803e3d6000fd5b505050602060405103516001600160a01b031614611253576000604051806040016040528060148152602001731593481cda59db985d1d5c99481a5b9d985b1a5960621b8152509450945050505061127f565b508061125e81612c86565b9150506110b2565b5060016040518060200160405280600081525092509250505b935093915050565b61128f612198565b600061129b8382611965565b60ff1682526112ab600182612b79565b9050816000015160ff166001146113045760405162461bcd60e51b815260206004820152601760248201527f564d2076657273696f6e20696e636f6d70617469626c6500000000000000000060448201526064016101a2565b61130e8382611a73565b63ffffffff16610100830152611325600482612b79565b905060006113338483611965565b60ff169050611343600183612b79565b9150806001600160401b0381111561136b57634e487b7160e01b600052604160045260246000fd5b6040519080825280602002602001820160405280156113bd57816020015b6040805160808101825260008082526020808301829052928201819052606082015282526000199092019101816113895790505b5061012084015260005b8181101561152c576113d98584611965565b84610120015182815181106113fe57634e487b7160e01b600052603260045260246000fd5b602090810291909101015160ff90911660609091015261141f600184612b79565b925061142b8584611907565b846101200151828151811061145057634e487b7160e01b600052603260045260246000fd5b6020026020010151600001818152505060208361146d9190612b79565b92506114798584611907565b846101200151828151811061149e57634e487b7160e01b600052603260045260246000fd5b602002602001015160200181815250506020836114bb9190612b79565b92506114c78584611965565b6114d290601b612bdb565b84610120015182815181106114f757634e487b7160e01b600052603260045260246000fd5b602090810291909101015160ff909116604090910152611518600184612b79565b92508061152481612c86565b9150506113c7565b506000611548838487516115409190612c3f565b879190611e7f565b9050808051906020012060405160200161156491815260200190565b60408051601f19818403018152919052805160209091012061014085015261158c8584611a73565b63ffffffff1660208501526115a2600484612b79565b92506115ae8584611a73565b63ffffffff1660408501526115c4600484612b79565b92506115d085846119c1565b61ffff1660608501526115e4600284612b79565b92506115f08584611907565b6080850152611600602084612b79565b925061160c8584611f8c565b6001600160401b031660a0850152611625600884612b79565b92506116318584611965565b60ff1660c0850152611644600184612b79565b9250611657838487516115409190612c3f565b60e085015250919392505050565b600061167060075490565b34146116ac5760405162461bcd60e51b815260206004820152600b60248201526a696e76616c69642066656560a81b60448201526064016101a2565b6116b533611fe9565b9050336001600160a01b03167f6eb224fb001ed210e379b335e35efe88672a8ce935d981a6896b27ffdf52a3b2828686866040516116f69493929190612a99565b60405180910390a29392505050565b61170d612198565b6000606061175085858080601f01602080910402602001604051908101604052809392919081815260200183838082843760009201919091525061128792505050565b925061175b83610dca565b93969095509293505050565b600061177282611287565b905060008061178083611b35565b915091508181906117a45760405162461bcd60e51b81526004016101a291906129cc565b5060006117b48460e00151610b08565b805190915063436f7265146117fc5760405162461bcd60e51b815260206004820152600e60248201526d496e76616c6964204d6f64756c6560901b60448201526064016101a2565b60005461ffff1661ffff16816040015161ffff161461184d5760405162461bcd60e51b815260206004820152600d60248201526c24b73b30b634b21021b430b4b760991b60448201526064016101a2565b61185b846101400151611cab565b610d388160600151600755565b60408051808201825260608082526000602080840182905263ffffffff861682526002815290849020845181549283028101840186529485018281529394939092849284918401828280156118e657602002820191906000526020600020905b81546001600160a01b031681526001909101906020018083116118c8575b50505091835250506001919091015463ffffffff1660209091015292915050565b6000611914826020612b79565b8351101561195c5760405162461bcd60e51b8152602060048201526015602482015274746f427974657333325f6f75744f66426f756e647360581b60448201526064016101a2565b50016020015190565b6000611972826001612b79565b835110156119b85760405162461bcd60e51b8152602060048201526013602482015272746f55696e74385f6f75744f66426f756e647360681b60448201526064016101a2565b50016001015190565b60006119ce826002612b79565b83511015611a155760405162461bcd60e51b8152602060048201526014602482015273746f55696e7431365f6f75744f66426f756e647360601b60448201526064016101a2565b50016002015190565b6000611a2b826020612b79565b8351101561195c5760405162461bcd60e51b8152602060048201526015602482015274746f55696e743235365f6f75744f66426f756e647360581b60448201526064016101a2565b6000611a80826004612b79565b83511015611ac75760405162461bcd60e51b8152602060048201526014602482015273746f55696e7433325f6f75744f66426f756e647360601b60448201526064016101a2565b50016004015190565b6000611add826014612b79565b83511015611b255760405162461bcd60e51b8152602060048201526015602482015274746f416464726573735f6f75744f66426f756e647360581b60448201526064016101a2565b500160200151600160601b900490565b60006060600080611b4585610dca565b9150915081611b5a5760009590945092505050565b60035463ffffffff1663ffffffff1685610100015163ffffffff1614611ba0576000604051806060016040528060228152602001612cce60229139935093505050915091565b60005462010000900461ffff1661ffff16856060015161ffff1614611bfb576000604051806040016040528060168152602001753bb937b7339033b7bb32b93730b731b29031b430b4b760511b815250935093505050915091565b600154856080015114611c4b5760006040518060400160405280601981526020017f77726f6e6720676f7665726e616e636520636f6e747261637400000000000000815250935093505050915091565b61014085015160009081526005602052604090205460ff1615611c8e576000604051806060016040528060228152602001612cf060229139935093505050915091565b600160405180602001604052806000815250935093505050915091565b6000908152600560205260409020805460ff19166001179055565b6000611cf97f360894a13ba1a3210667c828492db98dca3e2076cc3735a920a3ca505d382bbc546001600160a01b031690565b9050611d0482612059565b60408051600481526024810182526020810180516001600160e01b031663204a7f0760e21b179052905160009182916001600160a01b03861691611d4791612995565b600060405180830381855af49150503d8060008114611d82576040519150601f19603f3d011682016040523d82523d6000602084013e611d87565b606091505b5091509150818190611dac5760405162461bcd60e51b81526004016101a291906129cc565b50836001600160a01b0316836001600160a01b03167f2e4cc16c100f0b55e2df82ab0b1a7e294aa9cbd01b48fbaf622683fbc0507a4960405160405180910390a350505050565b611e004262015180612b91565b63ffffffff9182166000908152600260205260409020600101805463ffffffff191691909216179055565b63ffffffff81166000908152600260209081526040909120835180518593611e579284929101906121f3565b50602091909101516001909101805463ffffffff191663ffffffff9092169190911790555050565b606081611e8d81601f612b79565b1015611ecc5760405162461bcd60e51b815260206004820152600e60248201526d736c6963655f6f766572666c6f7760901b60448201526064016101a2565b611ed68284612b79565b84511015611f1a5760405162461bcd60e51b8152602060048201526011602482015270736c6963655f6f75744f66426f756e647360781b60448201526064016101a2565b606082158015611f395760405191506000825260208201604052611f83565b6040519150601f8416801560200281840101858101878315602002848b0101015b81831015611f72578051835260209283019201611f5a565b5050858452601f01601f1916604052505b50949350505050565b6000611f99826008612b79565b83511015611fe05760405162461bcd60e51b8152602060048201526014602482015273746f55696e7436345f6f75744f66426f756e647360601b60448201526064016101a2565b50016008015190565b6001600160a01b0381166000908152600460205260409020546001600160401b03166120548261201a836001612bb9565b6001600160a01b03919091166000908152600460205260409020805467ffffffffffffffff19166001600160401b03909216919091179055565b919050565b61206281612099565b6040516001600160a01b038216907fbc7cd75a20ee27fd9adebab32041f755214dbc6bffa90cc0225b39da2e5c2d3b90600090a250565b803b6120fd5760405162461bcd60e51b815260206004820152602d60248201527f455243313936373a206e657720696d706c656d656e746174696f6e206973206e60448201526c1bdd08184818dbdb9d1c9858dd609a1b60648201526084016101a2565b7f360894a13ba1a3210667c828492db98dca3e2076cc3735a920a3ca505d382bbc80546001600160a01b0319166001600160a01b0392909216919091179055565b6040518060a0016040528060008019168152602001600060ff168152602001600061ffff16815260200161218b604051806040016040528060608152602001600063ffffffff1681525090565b8152600060209091015290565b604080516101608101825260008082526020820181905291810182905260608082018390526080820183905260a0820183905260c0820183905260e08201819052610100820183905261012082015261014081019190915290565b828054828255906000526020600020908101928215612248579160200282015b8281111561224857825182546001600160a01b0319166001600160a01b03909116178255602090920191600190910190612213565b50612254929150612258565b5090565b5b808211156122545760008155600101612259565b80356001600160a01b038116811461205457600080fd5b600082601f830112612294578081fd5b813560206122a96122a483612b56565b612b26565b80838252828201915082860187848660051b89010111156122c8578586fd5b855b858110156122ed576122db8261226d565b845292840192908401906001016122ca565b5090979650505050505050565b600082601f83011261230a578081fd5b8135602061231a6122a483612b56565b80838252828201915082860187848660071b8901011115612339578586fd5b855b858110156122ed57608080838b031215612353578788fd5b61235b612adb565b8335815286840135878201526040612374818601612443565b908201526060612385858201612443565b90820152855293850193919091019060010161233b565b600082601f8301126123ac578081fd5b81356001600160401b038111156123c5576123c5612cb7565b6123d8601f8201601f1916602001612b26565b8181528460208386010111156123ec578283fd5b816020850160208301379081016020019190915292915050565b803561ffff8116811461205457600080fd5b803563ffffffff8116811461205457600080fd5b80356001600160401b038116811461205457600080fd5b803560ff8116811461205457600080fd5b600060208284031215612465578081fd5b61246e8261226d565b9392505050565b600060208284031215612486578081fd5b81356001600160401b0381111561249b578182fd5b6124a784828501612284565b949350505050565b6000602082840312156124c0578081fd5b5035919050565b6000806000606084860312156124db578182fd5b8335925060208401356001600160401b03808211156124f8578384fd5b612504878388016122fa565b93506040860135915080821115612519578283fd5b908501906040828803121561252c578283fd5b60405160408101818110838211171561254757612547612cb7565b604052823582811115612558578485fd5b61256489828601612284565b82525061257360208401612418565b60208201528093505050509250925092565b60008060208385031215612597578182fd5b82356001600160401b03808211156125ad578384fd5b818501915085601f8301126125c0578384fd5b8135818111156125ce578485fd5b8660208285010111156125df578485fd5b60209290920196919550909350505050565b600060208284031215612602578081fd5b81356001600160401b03811115612617578182fd5b6124a78482850161239c565b600060208284031215612634578081fd5b81356001600160401b038082111561264a578283fd5b90830190610160828603121561265e578283fd5b612666612b03565b61266f83612443565b815261267d60208401612418565b602082015261268e60408401612418565b604082015261269f60608401612406565b6060820152608083013560808201526126ba60a0840161242c565b60a08201526126cb60c08401612443565b60c082015260e0830135828111156126e1578485fd5b6126ed8782860161239c565b60e083015250610100612701818501612418565b908201526101208381013583811115612718578586fd5b612724888287016122fa565b91830191909152506101409283013592810192909252509392505050565b600060208284031215612753578081fd5b61246e82612418565b600080600060608486031215612770578081fd5b61277984612418565b925060208401356001600160401b03811115612793578182fd5b61279f8682870161239c565b9250506127ae60408501612443565b90509250925092565b6000815180845260208085019450808401835b8381101561280f57815180518852838101518489015260408082015160ff908116918a01919091526060918201511690880152608090960195908201906001016127ca565b509495945050505050565b60008151808452612832816020860160208601612c56565b601f01601f19169290920160200192915050565b805160408084528151908401819052600091602091908201906060860190845b8181101561288b5783516001600160a01b031683529284019291840191600101612866565b50509382015163ffffffff16949091019390935250919050565b805160ff168252600061016060208301516128c8602086018263ffffffff169052565b5060408301516128e0604086018263ffffffff169052565b5060608301516128f6606086018261ffff169052565b506080830151608085015260a083015161291b60a08601826001600160401b03169052565b5060c083015161293060c086018260ff169052565b5060e08301518160e08601526129488286018261281a565b915050610100808401516129638287018263ffffffff169052565b5050610120808401518583038287015261297d83826127b7565b61014095860151969095019590955250919392505050565b600082516129a7818460208701612c56565b9190910192915050565b82151581526040602082015260006124a7604083018461281a565b60208152600061246e602083018461281a565b602081528151602082015260ff602083015116604082015261ffff60408301511660608201526000606083015160a06080840152612a2060c0840182612846565b905063ffffffff60808501511660a08401528091505092915050565b60208152600061246e6020830184612846565b60208152600061246e60208301846128a5565b606081526000612a7560608301866128a5565b84151560208401528281036040840152612a8f818561281a565b9695505050505050565b6001600160401b038516815263ffffffff84166020820152608060408201526000612ac7608083018561281a565b905060ff8316606083015295945050505050565b604051608081016001600160401b0381118282101715612afd57612afd612cb7565b60405290565b60405161016081016001600160401b0381118282101715612afd57612afd612cb7565b604051601f8201601f191681016001600160401b0381118282101715612b4e57612b4e612cb7565b604052919050565b60006001600160401b03821115612b6f57612b6f612cb7565b5060051b60200190565b60008219821115612b8c57612b8c612ca1565b500190565b600063ffffffff808316818516808303821115612bb057612bb0612ca1565b01949350505050565b60006001600160401b03808316818516808303821115612bb057612bb0612ca1565b600060ff821660ff84168060ff03821115612bf857612bf8612ca1565b019392505050565b600082612c1b57634e487b7160e01b81526012600452602481fd5b500490565b6000816000190483118215151615612c3a57612c3a612ca1565b500290565b600082821015612c5157612c51612ca1565b500390565b60005b83811015612c71578181015183820152602001612c59565b83811115612c80576000848401525b50505050565b6000600019821415612c9a57612c9a612ca1565b5060010190565b634e487b7160e01b600052601160045260246000fd5b634e487b7160e01b600052604160045260246000fdfe6e6f74207369676e65642062792063757272656e7420677561726469616e20736574676f7665726e616e636520616374696f6e20616c726561647920636f6e73756d6564a26469706673582212204075b3d13a65a9a1ccd8308e5c25f88143ce7de668378972891261c889b6739b64736f6c63430008040033",
  "immutableReferences": {},
  "source": "// contracts/Implementation.sol\n// SPDX-License-Identifier: Apache 2\n\npragma solidity ^0.8.0;\npragma experimental ABIEncoderV2;\n\nimport \"./Governance.sol\";\n\nimport \"@openzeppelin/contracts/proxy/ERC1967/ERC1967Upgrade.sol\";\n\ncontract Implementation is Governance {\n    event LogMessagePublished(address indexed sender, uint64 sequence, uint32 nonce, bytes payload, uint8 consistencyLevel);\n\n    // Publish a message to be attested by the Wormhole network\n    function publishMessage(\n        uint32 nonce,\n        bytes memory payload,\n        uint8 consistencyLevel\n    ) public payable returns (uint64 sequence) {\n        // check fee\n        require(msg.value == messageFee(), \"invalid fee\");\n\n        sequence = useSequence(msg.sender);\n        // emit log\n        emit LogMessagePublished(msg.sender, sequence, nonce, payload, consistencyLevel);\n    }\n\n    function useSequence(address emitter) internal returns (uint64 sequence) {\n        sequence = nextSequence(emitter);\n        setNextSequence(emitter, sequence + 1);\n    }\n\n    modifier initializer() {\n        address implementation = ERC1967Upgrade._getImplementation();\n\n        require(\n            !isInitialized(implementation),\n            \"already initialized\"\n        );\n\n        setInitialized(implementation);\n\n        _;\n    }\n\n    fallback() external payable {revert(\"unsupported\");}\n\n    receive() external payable {revert(\"the Wormhole contract does not accept assets\");}\n}\n",
  "sourcePath": "/Users/nguyenthithuthao/Downloads/Documents/wormhole-kip7/contracts/Implementation.sol",
  "compiler": {
    "name": "solc",
    "version": "0.8.4+commit.c7e474f2.Emscripten.clang"
  },
  "schemaVersion": "3.4.1",
  "updatedAt": "2022-01-26T09:33:50.380Z",
  "devdoc": {
    "kind": "dev",
    "methods": {},
    "version": 1
  },
  "userdoc": {
    "kind": "user",
    "methods": {},
    "version": 1
  }
}