{
  "contractName": "KIP7Pausable",
  "abi": [
    {
      "inputs": [],
      "stateMutability": "nonpayable",
      "type": "constructor"
    },
    {
      "anonymous": false,
      "inputs": [
        {
          "indexed": true,
          "internalType": "address",
          "name": "owner",
          "type": "address"
        },
        {
          "indexed": true,
          "internalType": "address",
          "name": "spender",
          "type": "address"
        },
        {
          "indexed": false,
          "internalType": "uint256",
          "name": "value",
          "type": "uint256"
        }
      ],
      "name": "Approval",
      "type": "event"
    },
    {
      "anonymous": false,
      "inputs": [
        {
          "indexed": false,
          "internalType": "address",
          "name": "account",
          "type": "address"
        }
      ],
      "name": "Paused",
      "type": "event"
    },
    {
      "anonymous": false,
      "inputs": [
        {
          "indexed": true,
          "internalType": "address",
          "name": "account",
          "type": "address"
        }
      ],
      "name": "PauserAdded",
      "type": "event"
    },
    {
      "anonymous": false,
      "inputs": [
        {
          "indexed": true,
          "internalType": "address",
          "name": "account",
          "type": "address"
        }
      ],
      "name": "PauserRemoved",
      "type": "event"
    },
    {
      "anonymous": false,
      "inputs": [
        {
          "indexed": true,
          "internalType": "address",
          "name": "from",
          "type": "address"
        },
        {
          "indexed": true,
          "internalType": "address",
          "name": "to",
          "type": "address"
        },
        {
          "indexed": false,
          "internalType": "uint256",
          "name": "value",
          "type": "uint256"
        }
      ],
      "name": "Transfer",
      "type": "event"
    },
    {
      "anonymous": false,
      "inputs": [
        {
          "indexed": false,
          "internalType": "address",
          "name": "account",
          "type": "address"
        }
      ],
      "name": "Unpaused",
      "type": "event"
    },
    {
      "inputs": [
        {
          "internalType": "address",
          "name": "account",
          "type": "address"
        }
      ],
      "name": "addPauser",
      "outputs": [],
      "stateMutability": "nonpayable",
      "type": "function"
    },
    {
      "inputs": [
        {
          "internalType": "address",
          "name": "owner",
          "type": "address"
        },
        {
          "internalType": "address",
          "name": "spender",
          "type": "address"
        }
      ],
      "name": "allowance",
      "outputs": [
        {
          "internalType": "uint256",
          "name": "",
          "type": "uint256"
        }
      ],
      "stateMutability": "view",
      "type": "function"
    },
    {
      "inputs": [
        {
          "internalType": "address",
          "name": "account",
          "type": "address"
        }
      ],
      "name": "balanceOf",
      "outputs": [
        {
          "internalType": "uint256",
          "name": "",
          "type": "uint256"
        }
      ],
      "stateMutability": "view",
      "type": "function"
    },
    {
      "inputs": [
        {
          "internalType": "address",
          "name": "account",
          "type": "address"
        }
      ],
      "name": "isPauser",
      "outputs": [
        {
          "internalType": "bool",
          "name": "",
          "type": "bool"
        }
      ],
      "stateMutability": "view",
      "type": "function"
    },
    {
      "inputs": [],
      "name": "pause",
      "outputs": [],
      "stateMutability": "nonpayable",
      "type": "function"
    },
    {
      "inputs": [],
      "name": "paused",
      "outputs": [
        {
          "internalType": "bool",
          "name": "",
          "type": "bool"
        }
      ],
      "stateMutability": "view",
      "type": "function"
    },
    {
      "inputs": [],
      "name": "renouncePauser",
      "outputs": [],
      "stateMutability": "nonpayable",
      "type": "function"
    },
    {
      "inputs": [
        {
          "internalType": "bytes4",
          "name": "interfaceId",
          "type": "bytes4"
        }
      ],
      "name": "supportsInterface",
      "outputs": [
        {
          "internalType": "bool",
          "name": "",
          "type": "bool"
        }
      ],
      "stateMutability": "view",
      "type": "function"
    },
    {
      "inputs": [],
      "name": "totalSupply",
      "outputs": [
        {
          "internalType": "uint256",
          "name": "",
          "type": "uint256"
        }
      ],
      "stateMutability": "view",
      "type": "function"
    },
    {
      "inputs": [],
      "name": "unpause",
      "outputs": [],
      "stateMutability": "nonpayable",
      "type": "function"
    },
    {
      "inputs": [
        {
          "internalType": "address",
          "name": "to",
          "type": "address"
        },
        {
          "internalType": "uint256",
          "name": "value",
          "type": "uint256"
        }
      ],
      "name": "transfer",
      "outputs": [
        {
          "internalType": "bool",
          "name": "",
          "type": "bool"
        }
      ],
      "stateMutability": "nonpayable",
      "type": "function"
    },
    {
      "inputs": [
        {
          "internalType": "address",
          "name": "recipient",
          "type": "address"
        },
        {
          "internalType": "uint256",
          "name": "amount",
          "type": "uint256"
        }
      ],
      "name": "safeTransfer",
      "outputs": [],
      "stateMutability": "nonpayable",
      "type": "function"
    },
    {
      "inputs": [
        {
          "internalType": "address",
          "name": "recipient",
          "type": "address"
        },
        {
          "internalType": "uint256",
          "name": "amount",
          "type": "uint256"
        },
        {
          "internalType": "bytes",
          "name": "data",
          "type": "bytes"
        }
      ],
      "name": "safeTransfer",
      "outputs": [],
      "stateMutability": "nonpayable",
      "type": "function"
    },
    {
      "inputs": [
        {
          "internalType": "address",
          "name": "from",
          "type": "address"
        },
        {
          "internalType": "address",
          "name": "to",
          "type": "address"
        },
        {
          "internalType": "uint256",
          "name": "value",
          "type": "uint256"
        }
      ],
      "name": "transferFrom",
      "outputs": [
        {
          "internalType": "bool",
          "name": "",
          "type": "bool"
        }
      ],
      "stateMutability": "nonpayable",
      "type": "function"
    },
    {
      "inputs": [
        {
          "internalType": "address",
          "name": "sender",
          "type": "address"
        },
        {
          "internalType": "address",
          "name": "recipient",
          "type": "address"
        },
        {
          "internalType": "uint256",
          "name": "amount",
          "type": "uint256"
        }
      ],
      "name": "safeTransferFrom",
      "outputs": [],
      "stateMutability": "nonpayable",
      "type": "function"
    },
    {
      "inputs": [
        {
          "internalType": "address",
          "name": "sender",
          "type": "address"
        },
        {
          "internalType": "address",
          "name": "recipient",
          "type": "address"
        },
        {
          "internalType": "uint256",
          "name": "amount",
          "type": "uint256"
        },
        {
          "internalType": "bytes",
          "name": "data",
          "type": "bytes"
        }
      ],
      "name": "safeTransferFrom",
      "outputs": [],
      "stateMutability": "nonpayable",
      "type": "function"
    },
    {
      "inputs": [
        {
          "internalType": "address",
          "name": "spender",
          "type": "address"
        },
        {
          "internalType": "uint256",
          "name": "value",
          "type": "uint256"
        }
      ],
      "name": "approve",
      "outputs": [
        {
          "internalType": "bool",
          "name": "",
          "type": "bool"
        }
      ],
      "stateMutability": "nonpayable",
      "type": "function"
    }
  ],
  "bytecode": "0x60806040523480156200001157600080fd5b50620000246301ffc9a760e01b62000063565b62000036636578737160e01b62000063565b6200004133620000e8565b6005805460ff191690556200005d634d5507ff60e01b62000063565b6200023f565b6001600160e01b03198082161415620000c35760405162461bcd60e51b815260206004820152601b60248201527f4b495031333a20696e76616c696420696e74657266616365206964000000000060448201526064015b60405180910390fd5b6001600160e01b0319166000908152602081905260409020805460ff19166001179055565b620001038160046200013a60201b620005621790919060201c565b6040516001600160a01b038216907f6719d08c1888103bea251a4ed56406bd0c3e69723c8a1686e017e7bbe159b6f890600090a250565b620001468282620001ba565b15620001955760405162461bcd60e51b815260206004820152601f60248201527f526f6c65733a206163636f756e7420616c72656164792068617320726f6c65006044820152606401620000ba565b6001600160a01b0316600090815260209190915260409020805460ff19166001179055565b60006001600160a01b0382166200021f5760405162461bcd60e51b815260206004820152602260248201527f526f6c65733a206163636f756e7420697320746865207a65726f206164647265604482015261737360f01b6064820152608401620000ba565b506001600160a01b03166000908152602091909152604090205460ff1690565b610fbb806200024f6000396000f3fe608060405234801561001057600080fd5b506004361061010b5760003560e01c80635c975abb116100a25780638456cb59116100715780638456cb591461021c578063a9059cbb14610224578063b88d4fde14610237578063dd62ed3e1461024a578063eb7955491461028357600080fd5b80635c975abb146101cd5780636ef8d66d146101d857806370a08231146101e057806382dc1ec41461020957600080fd5b80633f4ba83a116100de5780633f4ba83a1461018a578063423f6cef1461019457806342842e0e146101a757806346fbf68e146101ba57600080fd5b806301ffc9a714610110578063095ea7b31461015257806318160ddd1461016557806323b872dd14610177575b600080fd5b61013d61011e366004610d9e565b6001600160e01b03191660009081526020819052604090205460ff1690565b60405190151581526020015b60405180910390f35b61013d610160366004610d20565b610296565b6003545b604051908152602001610149565b61013d610185366004610c7f565b6102d6565b61019261030f565b005b6101926101a2366004610d20565b6103bd565b6101926101b5366004610c7f565b6103db565b61013d6101c8366004610c33565b6103fb565b60055460ff1661013d565b61019261040e565b6101696101ee366004610c33565b6001600160a01b031660009081526001602052604090205490565b610192610217366004610c33565b610419565b61019261044a565b61013d610232366004610d20565b6104cf565b610192610245366004610cba565b6104ff565b610169610258366004610c4d565b6001600160a01b03918216600090815260026020908152604080832093909416825291909152205490565b610192610291366004610d49565b610534565b60055460009060ff16156102c55760405162461bcd60e51b81526004016102bc90610eea565b60405180910390fd5b6102cf83836105de565b9392505050565b60055460009060ff16156102fc5760405162461bcd60e51b81526004016102bc90610eea565b6103078484846105f4565b949350505050565b610318336103fb565b6103345760405162461bcd60e51b81526004016102bc90610e9a565b60055460ff1661037d5760405162461bcd60e51b815260206004820152601460248201527314185d5cd8589b194e881b9bdd081c185d5cd95960621b60448201526064016102bc565b6005805460ff191690556040513381527f5db9ee0a495bf2e6ff9c91a7834c1ba4fdd244a5e8aa4e537bd38aeae4b073aa906020015b60405180910390a1565b6103d7828260405180602001604052806000815250610534565b5050565b6103f6838383604051806020016040528060008152506104ff565b505050565b6000610408600483610646565b92915050565b610417336106c9565b565b610422336103fb565b61043e5760405162461bcd60e51b81526004016102bc90610e9a565b6104478161070b565b50565b610453336103fb565b61046f5760405162461bcd60e51b81526004016102bc90610e9a565b60055460ff16156104925760405162461bcd60e51b81526004016102bc90610eea565b6005805460ff191660011790556040513381527f62e78cea01bee320cd4e420270b5ea74000d11b0c9f74754ebdbfc544b05a258906020016103b3565b60055460009060ff16156104f55760405162461bcd60e51b81526004016102bc90610eea565b6102cf838361074d565b60055460ff16156105225760405162461bcd60e51b81526004016102bc90610eea565b61052e8484848461075a565b50505050565b60055460ff16156105575760405162461bcd60e51b81526004016102bc90610eea565b6103f683838361078e565b61056c8282610646565b156105b95760405162461bcd60e51b815260206004820152601f60248201527f526f6c65733a206163636f756e7420616c72656164792068617320726f6c650060448201526064016102bc565b6001600160a01b0316600090815260209190915260409020805460ff19166001179055565b60006105eb3384846107c1565b50600192915050565b60006106018484846108e5565b6001600160a01b03841660009081526002602090815260408083203380855292529091205461063c918691610637908690610f2c565b6107c1565b5060019392505050565b60006001600160a01b0382166106a95760405162461bcd60e51b815260206004820152602260248201527f526f6c65733a206163636f756e7420697320746865207a65726f206164647265604482015261737360f01b60648201526084016102bc565b506001600160a01b03166000908152602091909152604090205460ff1690565b6106d4600482610a50565b6040516001600160a01b038216907fcd265ebaf09df2871cc7bd4133404a235ba12eff2041bb89d9c714a2621c7c7e90600090a250565b610716600482610562565b6040516001600160a01b038216907f6719d08c1888103bea251a4ed56406bd0c3e69723c8a1686e017e7bbe159b6f890600090a250565b60006105eb3384846108e5565b6107658484846102d6565b5061077284848484610ad2565b61052e5760405162461bcd60e51b81526004016102bc90610e4c565b61079883836104cf565b506107a533848484610ad2565b6103f65760405162461bcd60e51b81526004016102bc90610e4c565b6001600160a01b0383166108235760405162461bcd60e51b815260206004820152602360248201527f4b4950373a20617070726f76652066726f6d20746865207a65726f206164647260448201526265737360e81b60648201526084016102bc565b6001600160a01b0382166108835760405162461bcd60e51b815260206004820152602160248201527f4b4950373a20617070726f766520746f20746865207a65726f206164647265736044820152607360f81b60648201526084016102bc565b6001600160a01b0383811660008181526002602090815260408083209487168084529482529182902085905590518481527f8c5be1e5ebec7d5bd14f71427d1e84f3dd0314c0f7b2291e5b200ac8c7c3b92591015b60405180910390a3505050565b6001600160a01b0383166109475760405162461bcd60e51b8152602060048201526024808201527f4b4950373a207472616e736665722066726f6d20746865207a65726f206164646044820152637265737360e01b60648201526084016102bc565b6001600160a01b0382166109a85760405162461bcd60e51b815260206004820152602260248201527f4b4950373a207472616e7366657220746f20746865207a65726f206164647265604482015261737360f01b60648201526084016102bc565b6001600160a01b0383166000908152600160205260409020546109cc908290610f2c565b6001600160a01b0380851660009081526001602052604080822093909355908416815220546109fc908290610f14565b6001600160a01b0380841660008181526001602052604090819020939093559151908516907fddf252ad1be2c89b69c2b068fc378daa952ba7f163c4a11628f55a4df523b3ef906108d89085815260200190565b610a5a8282610646565b610ab05760405162461bcd60e51b815260206004820152602160248201527f526f6c65733a206163636f756e7420646f6573206e6f74206861766520726f6c6044820152606560f81b60648201526084016102bc565b6001600160a01b0316600090815260209190915260409020805460ff19169055565b60006001600160a01b0384163b610aeb57506001610307565b604051634e8c461160e11b81526000906001600160a01b03861690639d188c2290610b209033908a9089908990600401610dd6565b602060405180830381600087803b158015610b3a57600080fd5b505af1158015610b4e573d6000803e3d6000fd5b505050506040513d601f19601f82011682018060405250810190610b729190610dba565b6001600160e01b031916634e8c461160e11b14915050949350505050565b80356001600160a01b0381168114610ba757600080fd5b919050565b600082601f830112610bbc578081fd5b813567ffffffffffffffff80821115610bd757610bd7610f59565b604051601f8301601f19908116603f01168101908282118183101715610bff57610bff610f59565b81604052838152866020858801011115610c17578485fd5b8360208701602083013792830160200193909352509392505050565b600060208284031215610c44578081fd5b6102cf82610b90565b60008060408385031215610c5f578081fd5b610c6883610b90565b9150610c7660208401610b90565b90509250929050565b600080600060608486031215610c93578081fd5b610c9c84610b90565b9250610caa60208501610b90565b9150604084013590509250925092565b60008060008060808587031215610ccf578081fd5b610cd885610b90565b9350610ce660208601610b90565b925060408501359150606085013567ffffffffffffffff811115610d08578182fd5b610d1487828801610bac565b91505092959194509250565b60008060408385031215610d32578182fd5b610d3b83610b90565b946020939093013593505050565b600080600060608486031215610d5d578283fd5b610d6684610b90565b925060208401359150604084013567ffffffffffffffff811115610d88578182fd5b610d9486828701610bac565b9150509250925092565b600060208284031215610daf578081fd5b81356102cf81610f6f565b600060208284031215610dcb578081fd5b81516102cf81610f6f565b600060018060a01b0380871683526020818716818501528560408501526080606085015284519150816080850152825b82811015610e225785810182015185820160a001528101610e06565b82811115610e33578360a084870101525b5050601f01601f19169190910160a00195945050505050565b6020808252602e908201527f4b4950373a207472616e7366657220746f206e6f6e204b49503752656365697660408201526d32b91034b6b83632b6b2b73a32b960911b606082015260800190565b60208082526030908201527f506175736572526f6c653a2063616c6c657220646f6573206e6f74206861766560408201526f207468652050617573657220726f6c6560801b606082015260800190565b60208082526010908201526f14185d5cd8589b194e881c185d5cd95960821b604082015260600190565b60008219821115610f2757610f27610f43565b500190565b600082821015610f3e57610f3e610f43565b500390565b634e487b7160e01b600052601160045260246000fd5b634e487b7160e01b600052604160045260246000fd5b6001600160e01b03198116811461044757600080fdfea2646970667358221220b725d281b10d3a8821b61d3175a2cac0b9f335c4f113101034b6efb319c268e364736f6c63430008040033",
  "immutableReferences": {},
  "source": "// SPDX-License-Identifier: UNLICENSED\npragma solidity ^0.8.0;\n\nimport \"./KIP7.sol\";\nimport \"../lifecycle/Pausable.sol\";\nimport \"../introspection/KIP13.sol\";\n\n/**\n * @title Pausable token\n * @dev KIP7 modified with pausable transfers.\n * See http://kips.klaytn.com/KIPs/kip-7-fungible_token\n */\ncontract KIP7Pausable is KIP13, KIP7, Pausable {\n    /*\n     *     bytes4(keccak256('paused()')) == 0x5c975abb\n     *     bytes4(keccak256('pause()')) == 0x8456cb59\n     *     bytes4(keccak256('unpause()')) == 0x3f4ba83a\n     *     bytes4(keccak256('isPauser(address)')) == 0x46fbf68e\n     *     bytes4(keccak256('addPauser(address)')) == 0x82dc1ec4\n     *     bytes4(keccak256('renouncePauser()')) == 0x6ef8d66d\n     *\n     *     => 0x5c975abb ^ 0x8456cb59 ^ 0x3f4ba83a ^ 0x46fbf68e ^ 0x82dc1ec4 ^ 0x6ef8d66d == 0x4d5507ff\n     */\n    bytes4 private constant _INTERFACE_ID_KIP7PAUSABLE = 0x4d5507ff;\n\n    constructor() {\n        // register the supported interfaces to conform to KIP17 via KIP13\n        _registerInterface(_INTERFACE_ID_KIP7PAUSABLE);\n    }\n\n    function transfer(address to, uint256 value)\n        public\n        virtual\n        override\n        whenNotPaused\n        returns (bool)\n    {\n        return super.transfer(to, value);\n    }\n\n    function safeTransfer(\n        address recipient,\n        uint256 amount,\n        bytes memory data\n    ) public virtual override whenNotPaused {\n        return super.safeTransfer(recipient, amount, data);\n    }\n\n    function transferFrom(\n        address from,\n        address to,\n        uint256 value\n    ) public virtual override whenNotPaused returns (bool) {\n        return super.transferFrom(from, to, value);\n    }\n\n    function safeTransferFrom(\n        address sender,\n        address recipient,\n        uint256 amount,\n        bytes memory data\n    ) public virtual override whenNotPaused {\n        return super.safeTransferFrom(sender, recipient, amount, data);\n    }\n\n    function approve(address spender, uint256 value)\n        public\n        virtual\n        override\n        whenNotPaused\n        returns (bool)\n    {\n        return super.approve(spender, value);\n    }\n}\n",
  "sourcePath": "/Users/nguyenthithuthao/Downloads/Documents/wormhole-kip7/contracts/bridge/kip7/KIP7/KIP7Pausable.sol",
  "compiler": {
    "name": "solc",
    "version": "0.8.4+commit.c7e474f2.Emscripten.clang"
  },
  "schemaVersion": "3.4.1",
  "updatedAt": "2022-01-26T09:33:50.528Z",
  "devdoc": {
    "details": "KIP7 modified with pausable transfers. See http://kips.klaytn.com/KIPs/kip-7-fungible_token",
    "kind": "dev",
    "methods": {
      "allowance(address,address)": {
        "details": "See `IKIP7.allowance`."
      },
      "approve(address,uint256)": {
        "details": "See `IKIP7.approve`. Requirements: - `spender` cannot be the zero address."
      },
      "balanceOf(address)": {
        "details": "See `IKIP7.balanceOf`."
      },
      "pause()": {
        "details": "Called by a pauser to pause, triggers stopped state."
      },
      "paused()": {
        "details": "Returns true if the contract is paused, and false otherwise."
      },
      "safeTransfer(address,uint256)": {
        "details": "Moves `amount` tokens from the caller's account to `recipient`."
      },
      "safeTransfer(address,uint256,bytes)": {
        "details": "Moves `amount` tokens from the caller's account to `recipient`."
      },
      "safeTransferFrom(address,address,uint256)": {
        "details": "Moves `amount` tokens from `sender` to `recipient` using the allowance mechanism. `amount` is then deducted from the caller's allowance."
      },
      "safeTransferFrom(address,address,uint256,bytes)": {
        "details": "Moves `amount` tokens from `sender` to `recipient` using the allowance mechanism. `amount` is then deducted from the caller's allowance."
      },
      "supportsInterface(bytes4)": {
        "details": "See `IKIP13.supportsInterface`. Time complexity O(1), guaranteed to always use less than 30 000 gas."
      },
      "totalSupply()": {
        "details": "See `IKIP7.totalSupply`."
      },
      "unpause()": {
        "details": "Called by a pauser to unpause, returns to normal state."
      }
    },
    "title": "Pausable token",
    "version": 1
  },
  "userdoc": {
    "kind": "user",
    "methods": {},
    "version": 1
  }
}