{
  "contractName": "KIP7Burnable",
  "abi": [
    {
      "inputs": [],
      "stateMutability": "nonpayable",
      "type": "constructor"
    },
    {
      "anonymous": false,
      "inputs": [
        {
          "indexed": true,
          "internalType": "address",
          "name": "owner",
          "type": "address"
        },
        {
          "indexed": true,
          "internalType": "address",
          "name": "spender",
          "type": "address"
        },
        {
          "indexed": false,
          "internalType": "uint256",
          "name": "value",
          "type": "uint256"
        }
      ],
      "name": "Approval",
      "type": "event"
    },
    {
      "anonymous": false,
      "inputs": [
        {
          "indexed": true,
          "internalType": "address",
          "name": "from",
          "type": "address"
        },
        {
          "indexed": true,
          "internalType": "address",
          "name": "to",
          "type": "address"
        },
        {
          "indexed": false,
          "internalType": "uint256",
          "name": "value",
          "type": "uint256"
        }
      ],
      "name": "Transfer",
      "type": "event"
    },
    {
      "inputs": [
        {
          "internalType": "address",
          "name": "owner",
          "type": "address"
        },
        {
          "internalType": "address",
          "name": "spender",
          "type": "address"
        }
      ],
      "name": "allowance",
      "outputs": [
        {
          "internalType": "uint256",
          "name": "",
          "type": "uint256"
        }
      ],
      "stateMutability": "view",
      "type": "function"
    },
    {
      "inputs": [
        {
          "internalType": "address",
          "name": "spender",
          "type": "address"
        },
        {
          "internalType": "uint256",
          "name": "value",
          "type": "uint256"
        }
      ],
      "name": "approve",
      "outputs": [
        {
          "internalType": "bool",
          "name": "",
          "type": "bool"
        }
      ],
      "stateMutability": "nonpayable",
      "type": "function"
    },
    {
      "inputs": [
        {
          "internalType": "address",
          "name": "account",
          "type": "address"
        }
      ],
      "name": "balanceOf",
      "outputs": [
        {
          "internalType": "uint256",
          "name": "",
          "type": "uint256"
        }
      ],
      "stateMutability": "view",
      "type": "function"
    },
    {
      "inputs": [
        {
          "internalType": "address",
          "name": "recipient",
          "type": "address"
        },
        {
          "internalType": "uint256",
          "name": "amount",
          "type": "uint256"
        }
      ],
      "name": "safeTransfer",
      "outputs": [],
      "stateMutability": "nonpayable",
      "type": "function"
    },
    {
      "inputs": [
        {
          "internalType": "address",
          "name": "recipient",
          "type": "address"
        },
        {
          "internalType": "uint256",
          "name": "amount",
          "type": "uint256"
        },
        {
          "internalType": "bytes",
          "name": "data",
          "type": "bytes"
        }
      ],
      "name": "safeTransfer",
      "outputs": [],
      "stateMutability": "nonpayable",
      "type": "function"
    },
    {
      "inputs": [
        {
          "internalType": "address",
          "name": "sender",
          "type": "address"
        },
        {
          "internalType": "address",
          "name": "recipient",
          "type": "address"
        },
        {
          "internalType": "uint256",
          "name": "amount",
          "type": "uint256"
        }
      ],
      "name": "safeTransferFrom",
      "outputs": [],
      "stateMutability": "nonpayable",
      "type": "function"
    },
    {
      "inputs": [
        {
          "internalType": "address",
          "name": "sender",
          "type": "address"
        },
        {
          "internalType": "address",
          "name": "recipient",
          "type": "address"
        },
        {
          "internalType": "uint256",
          "name": "amount",
          "type": "uint256"
        },
        {
          "internalType": "bytes",
          "name": "data",
          "type": "bytes"
        }
      ],
      "name": "safeTransferFrom",
      "outputs": [],
      "stateMutability": "nonpayable",
      "type": "function"
    },
    {
      "inputs": [
        {
          "internalType": "bytes4",
          "name": "interfaceId",
          "type": "bytes4"
        }
      ],
      "name": "supportsInterface",
      "outputs": [
        {
          "internalType": "bool",
          "name": "",
          "type": "bool"
        }
      ],
      "stateMutability": "view",
      "type": "function"
    },
    {
      "inputs": [],
      "name": "totalSupply",
      "outputs": [
        {
          "internalType": "uint256",
          "name": "",
          "type": "uint256"
        }
      ],
      "stateMutability": "view",
      "type": "function"
    },
    {
      "inputs": [
        {
          "internalType": "address",
          "name": "recipient",
          "type": "address"
        },
        {
          "internalType": "uint256",
          "name": "amount",
          "type": "uint256"
        }
      ],
      "name": "transfer",
      "outputs": [
        {
          "internalType": "bool",
          "name": "",
          "type": "bool"
        }
      ],
      "stateMutability": "nonpayable",
      "type": "function"
    },
    {
      "inputs": [
        {
          "internalType": "address",
          "name": "sender",
          "type": "address"
        },
        {
          "internalType": "address",
          "name": "recipient",
          "type": "address"
        },
        {
          "internalType": "uint256",
          "name": "amount",
          "type": "uint256"
        }
      ],
      "name": "transferFrom",
      "outputs": [
        {
          "internalType": "bool",
          "name": "",
          "type": "bool"
        }
      ],
      "stateMutability": "nonpayable",
      "type": "function"
    },
    {
      "inputs": [
        {
          "internalType": "uint256",
          "name": "amount",
          "type": "uint256"
        }
      ],
      "name": "burn",
      "outputs": [],
      "stateMutability": "nonpayable",
      "type": "function"
    },
    {
      "inputs": [
        {
          "internalType": "address",
          "name": "account",
          "type": "address"
        },
        {
          "internalType": "uint256",
          "name": "amount",
          "type": "uint256"
        }
      ],
      "name": "burnFrom",
      "outputs": [],
      "stateMutability": "nonpayable",
      "type": "function"
    }
  ],
  "bytecode": "0x608060405234801561001057600080fd5b506100216301ffc9a760e01b610046565b610031636578737160e01b610046565b61004163076b417f60e31b610046565b6100c9565b6001600160e01b031980821614156100a45760405162461bcd60e51b815260206004820152601b60248201527f4b495031333a20696e76616c696420696e746572666163652069640000000000604482015260640160405180910390fd5b6001600160e01b0319166000908152602081905260409020805460ff19166001179055565b610bba806100d86000396000f3fe608060405234801561001057600080fd5b50600436106100cf5760003560e01c806342966c681161008c578063a9059cbb11610066578063a9059cbb146101c5578063b88d4fde146101d8578063dd62ed3e146101eb578063eb7955491461022457600080fd5b806342966c681461017657806370a082311461018957806379cc6790146101b257600080fd5b806301ffc9a7146100d4578063095ea7b31461011657806318160ddd1461012957806323b872dd1461013b578063423f6cef1461014e57806342842e0e14610163575b600080fd5b6101016100e23660046109ff565b6001600160e01b03191660009081526020819052604090205460ff1690565b60405190151581526020015b60405180910390f35b610101610124366004610981565b610237565b6003545b60405190815260200161010d565b6101016101493660046108e0565b61024d565b61016161015c366004610981565b61029f565b005b6101616101713660046108e0565b6102bd565b610161610184366004610a37565b6102dd565b61012d61019736600461088d565b6001600160a01b031660009081526001602052604090205490565b6101616101c0366004610981565b6102ea565b6101016101d3366004610981565b6102f4565b6101616101e636600461091b565b610301565b61012d6101f93660046108ae565b6001600160a01b03918216600090815260026020908152604080832093909416825291909152205490565b6101616102323660046109aa565b610344565b6000610244338484610377565b50600192915050565b600061025a84848461049b565b6001600160a01b038416600090815260026020908152604080832033808552925290912054610295918691610290908690610b2b565b610377565b5060019392505050565b6102b9828260405180602001604052806000815250610344565b5050565b6102d883838360405180602001604052806000815250610301565b505050565b6102e73382610606565b50565b6102b982826106eb565b600061024433848461049b565b61030c84848461024d565b506103198484848461072b565b61033e5760405162461bcd60e51b815260040161033590610ac5565b60405180910390fd5b50505050565b61034e83836102f4565b5061035b3384848461072b565b6102d85760405162461bcd60e51b815260040161033590610ac5565b6001600160a01b0383166103d95760405162461bcd60e51b815260206004820152602360248201527f4b4950373a20617070726f76652066726f6d20746865207a65726f206164647260448201526265737360e81b6064820152608401610335565b6001600160a01b0382166104395760405162461bcd60e51b815260206004820152602160248201527f4b4950373a20617070726f766520746f20746865207a65726f206164647265736044820152607360f81b6064820152608401610335565b6001600160a01b0383811660008181526002602090815260408083209487168084529482529182902085905590518481527f8c5be1e5ebec7d5bd14f71427d1e84f3dd0314c0f7b2291e5b200ac8c7c3b92591015b60405180910390a3505050565b6001600160a01b0383166104fd5760405162461bcd60e51b8152602060048201526024808201527f4b4950373a207472616e736665722066726f6d20746865207a65726f206164646044820152637265737360e01b6064820152608401610335565b6001600160a01b03821661055e5760405162461bcd60e51b815260206004820152602260248201527f4b4950373a207472616e7366657220746f20746865207a65726f206164647265604482015261737360f01b6064820152608401610335565b6001600160a01b038316600090815260016020526040902054610582908290610b2b565b6001600160a01b0380851660009081526001602052604080822093909355908416815220546105b2908290610b13565b6001600160a01b0380841660008181526001602052604090819020939093559151908516907fddf252ad1be2c89b69c2b068fc378daa952ba7f163c4a11628f55a4df523b3ef9061048e9085815260200190565b6001600160a01b03821661065c5760405162461bcd60e51b815260206004820181905260248201527f4b4950373a206275726e2066726f6d20746865207a65726f20616464726573736044820152606401610335565b8060035461066a9190610b2b565b6003556001600160a01b038216600090815260016020526040902054610691908290610b2b565b6001600160a01b0383166000818152600160205260408082209390935591517fddf252ad1be2c89b69c2b068fc378daa952ba7f163c4a11628f55a4df523b3ef906106df9085815260200190565b60405180910390a35050565b6106f58282610606565b6001600160a01b0382166000908152600260209081526040808320338085529252909120546102b9918491610290908590610b2b565b60006001600160a01b0384163b610744575060016107e2565b604051634e8c461160e11b81526000906001600160a01b03861690639d188c22906107799033908a9089908990600401610a4f565b602060405180830381600087803b15801561079357600080fd5b505af11580156107a7573d6000803e3d6000fd5b505050506040513d601f19601f820116820180604052508101906107cb9190610a1b565b6001600160e01b031916634e8c461160e11b149150505b949350505050565b80356001600160a01b038116811461080157600080fd5b919050565b600082601f830112610816578081fd5b813567ffffffffffffffff8082111561083157610831610b58565b604051601f8301601f19908116603f0116810190828211818310171561085957610859610b58565b81604052838152866020858801011115610871578485fd5b8360208701602083013792830160200193909352509392505050565b60006020828403121561089e578081fd5b6108a7826107ea565b9392505050565b600080604083850312156108c0578081fd5b6108c9836107ea565b91506108d7602084016107ea565b90509250929050565b6000806000606084860312156108f4578081fd5b6108fd846107ea565b925061090b602085016107ea565b9150604084013590509250925092565b60008060008060808587031215610930578081fd5b610939856107ea565b9350610947602086016107ea565b925060408501359150606085013567ffffffffffffffff811115610969578182fd5b61097587828801610806565b91505092959194509250565b60008060408385031215610993578182fd5b61099c836107ea565b946020939093013593505050565b6000806000606084860312156109be578283fd5b6109c7846107ea565b925060208401359150604084013567ffffffffffffffff8111156109e9578182fd5b6109f586828701610806565b9150509250925092565b600060208284031215610a10578081fd5b81356108a781610b6e565b600060208284031215610a2c578081fd5b81516108a781610b6e565b600060208284031215610a48578081fd5b5035919050565b600060018060a01b0380871683526020818716818501528560408501526080606085015284519150816080850152825b82811015610a9b5785810182015185820160a001528101610a7f565b82811115610aac578360a084870101525b5050601f01601f19169190910160a00195945050505050565b6020808252602e908201527f4b4950373a207472616e7366657220746f206e6f6e204b49503752656365697660408201526d32b91034b6b83632b6b2b73a32b960911b606082015260800190565b60008219821115610b2657610b26610b42565b500190565b600082821015610b3d57610b3d610b42565b500390565b634e487b7160e01b600052601160045260246000fd5b634e487b7160e01b600052604160045260246000fd5b6001600160e01b0319811681146102e757600080fdfea2646970667358221220b5a081d1f8ccedb9dc8acbe1d7c38cfce1f2349f5cc06f202e7e215c9211a1b764736f6c63430008040033",
  "immutableReferences": {},
  "source": "// SPDX-License-Identifier: UNLICENSED\npragma solidity ^0.8.0;\n\nimport \"./KIP7.sol\";\nimport \"../introspection/KIP13.sol\";\n\n/**\n * @dev Extension of `KIP7` that allows token holders to destroy both their own\n * tokens and those that they have an allowance for, in a way that can be\n * recognized off-chain (via event analysis).\n *\n * See http://kips.klaytn.com/KIPs/kip-7-fungible_token\n */\ncontract KIP7Burnable is KIP13, KIP7 {\n    /*\n     *     bytes4(keccak256('burn(uint256)')) == 0x42966c68\n     *     bytes4(keccak256('burnFrom(address,uint256)')) == 0x79cc6790\n     *\n     *     => 0x42966c68 ^ 0x79cc6790 == 0x3b5a0bf8\n     */\n    bytes4 private constant _INTERFACE_ID_KIP7BURNABLE = 0x3b5a0bf8;\n\n    constructor () {\n        // register the supported interfaces to conform to KIP17 via KIP13\n        _registerInterface(_INTERFACE_ID_KIP7BURNABLE);\n    }\n    \n    /**\n     * @dev Destroys `amount` tokens from the caller.\n     *\n     * See `KIP7._burn`.\n     */\n    function burn(uint256 amount) public {\n        _burn(msg.sender, amount);\n    }\n\n    /**\n     * @dev See `KIP7._burnFrom`.\n     */\n    function burnFrom(address account, uint256 amount) public {\n        _burnFrom(account, amount);\n    }\n}\n",
  "sourcePath": "/Users/nguyenthithuthao/Downloads/Documents/wormhole-kip7/contracts/bridge/kip7/KIP7/KIP7Burnable.sol",
  "compiler": {
    "name": "solc",
    "version": "0.8.4+commit.c7e474f2.Emscripten.clang"
  },
  "schemaVersion": "3.4.1",
  "updatedAt": "2022-01-26T09:33:50.520Z",
  "devdoc": {
    "details": "Extension of `KIP7` that allows token holders to destroy both their own tokens and those that they have an allowance for, in a way that can be recognized off-chain (via event analysis). See http://kips.klaytn.com/KIPs/kip-7-fungible_token",
    "kind": "dev",
    "methods": {
      "allowance(address,address)": {
        "details": "See `IKIP7.allowance`."
      },
      "approve(address,uint256)": {
        "details": "See `IKIP7.approve`. Requirements: - `spender` cannot be the zero address."
      },
      "balanceOf(address)": {
        "details": "See `IKIP7.balanceOf`."
      },
      "burn(uint256)": {
        "details": "Destroys `amount` tokens from the caller. See `KIP7._burn`."
      },
      "burnFrom(address,uint256)": {
        "details": "See `KIP7._burnFrom`."
      },
      "safeTransfer(address,uint256)": {
        "details": "Moves `amount` tokens from the caller's account to `recipient`."
      },
      "safeTransfer(address,uint256,bytes)": {
        "details": "Moves `amount` tokens from the caller's account to `recipient`."
      },
      "safeTransferFrom(address,address,uint256)": {
        "details": "Moves `amount` tokens from `sender` to `recipient` using the allowance mechanism. `amount` is then deducted from the caller's allowance."
      },
      "safeTransferFrom(address,address,uint256,bytes)": {
        "details": "Moves `amount` tokens from `sender` to `recipient` using the allowance mechanism. `amount` is then deducted from the caller's allowance."
      },
      "supportsInterface(bytes4)": {
        "details": "See `IKIP13.supportsInterface`. Time complexity O(1), guaranteed to always use less than 30 000 gas."
      },
      "totalSupply()": {
        "details": "See `IKIP7.totalSupply`."
      },
      "transfer(address,uint256)": {
        "details": "See `IKIP7.transfer`. Requirements: - `recipient` cannot be the zero address. - the caller must have a balance of at least `amount`."
      },
      "transferFrom(address,address,uint256)": {
        "details": "See `IKIP7.transferFrom`. Emits an `Approval` event indicating the updated allowance. This is not required by the KIP. See the note at the beginning of `KIP7`; Requirements: - `sender` and `recipient` cannot be the zero address. - `sender` must have a balance of at least `value`. - the caller must have allowance for `sender`'s tokens of at least `amount`."
      }
    },
    "version": 1
  },
  "userdoc": {
    "kind": "user",
    "methods": {},
    "version": 1
  }
}