{
  "contractName": "KIP7Mintable",
  "abi": [
    {
      "inputs": [],
      "stateMutability": "nonpayable",
      "type": "constructor"
    },
    {
      "anonymous": false,
      "inputs": [
        {
          "indexed": true,
          "internalType": "address",
          "name": "owner",
          "type": "address"
        },
        {
          "indexed": true,
          "internalType": "address",
          "name": "spender",
          "type": "address"
        },
        {
          "indexed": false,
          "internalType": "uint256",
          "name": "value",
          "type": "uint256"
        }
      ],
      "name": "Approval",
      "type": "event"
    },
    {
      "anonymous": false,
      "inputs": [
        {
          "indexed": true,
          "internalType": "address",
          "name": "account",
          "type": "address"
        }
      ],
      "name": "MinterAdded",
      "type": "event"
    },
    {
      "anonymous": false,
      "inputs": [
        {
          "indexed": true,
          "internalType": "address",
          "name": "account",
          "type": "address"
        }
      ],
      "name": "MinterRemoved",
      "type": "event"
    },
    {
      "anonymous": false,
      "inputs": [
        {
          "indexed": true,
          "internalType": "address",
          "name": "from",
          "type": "address"
        },
        {
          "indexed": true,
          "internalType": "address",
          "name": "to",
          "type": "address"
        },
        {
          "indexed": false,
          "internalType": "uint256",
          "name": "value",
          "type": "uint256"
        }
      ],
      "name": "Transfer",
      "type": "event"
    },
    {
      "inputs": [
        {
          "internalType": "address",
          "name": "account",
          "type": "address"
        }
      ],
      "name": "addMinter",
      "outputs": [],
      "stateMutability": "nonpayable",
      "type": "function"
    },
    {
      "inputs": [
        {
          "internalType": "address",
          "name": "owner",
          "type": "address"
        },
        {
          "internalType": "address",
          "name": "spender",
          "type": "address"
        }
      ],
      "name": "allowance",
      "outputs": [
        {
          "internalType": "uint256",
          "name": "",
          "type": "uint256"
        }
      ],
      "stateMutability": "view",
      "type": "function"
    },
    {
      "inputs": [
        {
          "internalType": "address",
          "name": "spender",
          "type": "address"
        },
        {
          "internalType": "uint256",
          "name": "value",
          "type": "uint256"
        }
      ],
      "name": "approve",
      "outputs": [
        {
          "internalType": "bool",
          "name": "",
          "type": "bool"
        }
      ],
      "stateMutability": "nonpayable",
      "type": "function"
    },
    {
      "inputs": [
        {
          "internalType": "address",
          "name": "account",
          "type": "address"
        }
      ],
      "name": "balanceOf",
      "outputs": [
        {
          "internalType": "uint256",
          "name": "",
          "type": "uint256"
        }
      ],
      "stateMutability": "view",
      "type": "function"
    },
    {
      "inputs": [
        {
          "internalType": "address",
          "name": "account",
          "type": "address"
        }
      ],
      "name": "isMinter",
      "outputs": [
        {
          "internalType": "bool",
          "name": "",
          "type": "bool"
        }
      ],
      "stateMutability": "view",
      "type": "function"
    },
    {
      "inputs": [],
      "name": "renounceMinter",
      "outputs": [],
      "stateMutability": "nonpayable",
      "type": "function"
    },
    {
      "inputs": [
        {
          "internalType": "address",
          "name": "recipient",
          "type": "address"
        },
        {
          "internalType": "uint256",
          "name": "amount",
          "type": "uint256"
        }
      ],
      "name": "safeTransfer",
      "outputs": [],
      "stateMutability": "nonpayable",
      "type": "function"
    },
    {
      "inputs": [
        {
          "internalType": "address",
          "name": "recipient",
          "type": "address"
        },
        {
          "internalType": "uint256",
          "name": "amount",
          "type": "uint256"
        },
        {
          "internalType": "bytes",
          "name": "data",
          "type": "bytes"
        }
      ],
      "name": "safeTransfer",
      "outputs": [],
      "stateMutability": "nonpayable",
      "type": "function"
    },
    {
      "inputs": [
        {
          "internalType": "address",
          "name": "sender",
          "type": "address"
        },
        {
          "internalType": "address",
          "name": "recipient",
          "type": "address"
        },
        {
          "internalType": "uint256",
          "name": "amount",
          "type": "uint256"
        }
      ],
      "name": "safeTransferFrom",
      "outputs": [],
      "stateMutability": "nonpayable",
      "type": "function"
    },
    {
      "inputs": [
        {
          "internalType": "address",
          "name": "sender",
          "type": "address"
        },
        {
          "internalType": "address",
          "name": "recipient",
          "type": "address"
        },
        {
          "internalType": "uint256",
          "name": "amount",
          "type": "uint256"
        },
        {
          "internalType": "bytes",
          "name": "data",
          "type": "bytes"
        }
      ],
      "name": "safeTransferFrom",
      "outputs": [],
      "stateMutability": "nonpayable",
      "type": "function"
    },
    {
      "inputs": [
        {
          "internalType": "bytes4",
          "name": "interfaceId",
          "type": "bytes4"
        }
      ],
      "name": "supportsInterface",
      "outputs": [
        {
          "internalType": "bool",
          "name": "",
          "type": "bool"
        }
      ],
      "stateMutability": "view",
      "type": "function"
    },
    {
      "inputs": [],
      "name": "totalSupply",
      "outputs": [
        {
          "internalType": "uint256",
          "name": "",
          "type": "uint256"
        }
      ],
      "stateMutability": "view",
      "type": "function"
    },
    {
      "inputs": [
        {
          "internalType": "address",
          "name": "recipient",
          "type": "address"
        },
        {
          "internalType": "uint256",
          "name": "amount",
          "type": "uint256"
        }
      ],
      "name": "transfer",
      "outputs": [
        {
          "internalType": "bool",
          "name": "",
          "type": "bool"
        }
      ],
      "stateMutability": "nonpayable",
      "type": "function"
    },
    {
      "inputs": [
        {
          "internalType": "address",
          "name": "sender",
          "type": "address"
        },
        {
          "internalType": "address",
          "name": "recipient",
          "type": "address"
        },
        {
          "internalType": "uint256",
          "name": "amount",
          "type": "uint256"
        }
      ],
      "name": "transferFrom",
      "outputs": [
        {
          "internalType": "bool",
          "name": "",
          "type": "bool"
        }
      ],
      "stateMutability": "nonpayable",
      "type": "function"
    },
    {
      "inputs": [
        {
          "internalType": "address",
          "name": "account",
          "type": "address"
        },
        {
          "internalType": "uint256",
          "name": "amount",
          "type": "uint256"
        }
      ],
      "name": "mint",
      "outputs": [
        {
          "internalType": "bool",
          "name": "",
          "type": "bool"
        }
      ],
      "stateMutability": "nonpayable",
      "type": "function"
    }
  ],
  "bytecode": "0x60806040523480156200001157600080fd5b50620000246301ffc9a760e01b62000059565b62000036636578737160e01b62000059565b6200004133620000de565b62000053630755c1f160e51b62000059565b62000235565b6001600160e01b03198082161415620000b95760405162461bcd60e51b815260206004820152601b60248201527f4b495031333a20696e76616c696420696e74657266616365206964000000000060448201526064015b60405180910390fd5b6001600160e01b0319166000908152602081905260409020805460ff19166001179055565b620000f98160046200013060201b620004211790919060201c565b6040516001600160a01b038216907f6ae172837ea30b801fbfcdd4108aa1d5bf8ff775444fd70256b44e6bf3dfc3f690600090a250565b6200013c8282620001b0565b156200018b5760405162461bcd60e51b815260206004820152601f60248201527f526f6c65733a206163636f756e7420616c72656164792068617320726f6c65006044820152606401620000b0565b6001600160a01b0316600090815260209190915260409020805460ff19166001179055565b60006001600160a01b038216620002155760405162461bcd60e51b815260206004820152602260248201527f526f6c65733a206163636f756e7420697320746865207a65726f206164647265604482015261737360f01b6064820152608401620000b0565b506001600160a01b03166000908152602091909152604090205460ff1690565b610e6480620002456000396000f3fe608060405234801561001057600080fd5b50600436106100f55760003560e01c806370a0823111610097578063aa271e1a11610066578063aa271e1a14610206578063b88d4fde14610219578063dd62ed3e1461022c578063eb7955491461026557600080fd5b806370a08231146101af578063983b2d56146101d857806398650275146101eb578063a9059cbb146101f357600080fd5b806323b872dd116100d357806323b872dd1461016157806340c10f1914610174578063423f6cef1461018757806342842e0e1461019c57600080fd5b806301ffc9a7146100fa578063095ea7b31461013c57806318160ddd1461014f575b600080fd5b610127610108366004610c71565b6001600160e01b03191660009081526020819052604090205460ff1690565b60405190151581526020015b60405180910390f35b61012761014a366004610bf3565b610278565b6003545b604051908152602001610133565b61012761016f366004610b52565b61028e565b610127610182366004610bf3565b6102e0565b61019a610195366004610bf3565b61031a565b005b61019a6101aa366004610b52565b610338565b6101536101bd366004610aff565b6001600160a01b031660009081526001602052604090205490565b61019a6101e6366004610aff565b610358565b61019a610389565b610127610201366004610bf3565b610394565b610127610214366004610aff565b6103a1565b61019a610227366004610b8d565b6103b4565b61015361023a366004610b20565b6001600160a01b03918216600090815260026020908152604080832093909416825291909152205490565b61019a610273366004610c1c565b6103ee565b600061028533848461049d565b50600192915050565b600061029b8484846105c1565b6001600160a01b0384166000908152600260209081526040808320338085529252909120546102d69186916102d1908690610dd5565b61049d565b5060019392505050565b60006102eb336103a1565b6103105760405162461bcd60e51b815260040161030790610d6d565b60405180910390fd5b610285838361072c565b6103348282604051806020016040528060008152506103ee565b5050565b610353838383604051806020016040528060008152506103b4565b505050565b610361336103a1565b61037d5760405162461bcd60e51b815260040161030790610d6d565b61038681610814565b50565b61039233610856565b565b60006102853384846105c1565b60006103ae600483610898565b92915050565b6103bf84848461028e565b506103cc8484848461091b565b6103e85760405162461bcd60e51b815260040161030790610d1f565b50505050565b6103f88383610394565b506104053384848461091b565b6103535760405162461bcd60e51b815260040161030790610d1f565b61042b8282610898565b156104785760405162461bcd60e51b815260206004820152601f60248201527f526f6c65733a206163636f756e7420616c72656164792068617320726f6c65006044820152606401610307565b6001600160a01b0316600090815260209190915260409020805460ff19166001179055565b6001600160a01b0383166104ff5760405162461bcd60e51b815260206004820152602360248201527f4b4950373a20617070726f76652066726f6d20746865207a65726f206164647260448201526265737360e81b6064820152608401610307565b6001600160a01b03821661055f5760405162461bcd60e51b815260206004820152602160248201527f4b4950373a20617070726f766520746f20746865207a65726f206164647265736044820152607360f81b6064820152608401610307565b6001600160a01b0383811660008181526002602090815260408083209487168084529482529182902085905590518481527f8c5be1e5ebec7d5bd14f71427d1e84f3dd0314c0f7b2291e5b200ac8c7c3b92591015b60405180910390a3505050565b6001600160a01b0383166106235760405162461bcd60e51b8152602060048201526024808201527f4b4950373a207472616e736665722066726f6d20746865207a65726f206164646044820152637265737360e01b6064820152608401610307565b6001600160a01b0382166106845760405162461bcd60e51b815260206004820152602260248201527f4b4950373a207472616e7366657220746f20746865207a65726f206164647265604482015261737360f01b6064820152608401610307565b6001600160a01b0383166000908152600160205260409020546106a8908290610dd5565b6001600160a01b0380851660009081526001602052604080822093909355908416815220546106d8908290610dbd565b6001600160a01b0380841660008181526001602052604090819020939093559151908516907fddf252ad1be2c89b69c2b068fc378daa952ba7f163c4a11628f55a4df523b3ef906105b49085815260200190565b6001600160a01b0382166107825760405162461bcd60e51b815260206004820152601e60248201527f4b4950373a206d696e7420746f20746865207a65726f206164647265737300006044820152606401610307565b806003546107909190610dbd565b6003556001600160a01b0382166000908152600160205260409020546107b7908290610dbd565b6001600160a01b0383166000818152600160205260408082209390935591519091907fddf252ad1be2c89b69c2b068fc378daa952ba7f163c4a11628f55a4df523b3ef906108089085815260200190565b60405180910390a35050565b61081f600482610421565b6040516001600160a01b038216907f6ae172837ea30b801fbfcdd4108aa1d5bf8ff775444fd70256b44e6bf3dfc3f690600090a250565b6108616004826109da565b6040516001600160a01b038216907fe94479a9f7e1952cc78f2d6baab678adc1b772d936c6583def489e524cb6669290600090a250565b60006001600160a01b0382166108fb5760405162461bcd60e51b815260206004820152602260248201527f526f6c65733a206163636f756e7420697320746865207a65726f206164647265604482015261737360f01b6064820152608401610307565b506001600160a01b03166000908152602091909152604090205460ff1690565b60006001600160a01b0384163b610934575060016109d2565b604051634e8c461160e11b81526000906001600160a01b03861690639d188c22906109699033908a9089908990600401610ca9565b602060405180830381600087803b15801561098357600080fd5b505af1158015610997573d6000803e3d6000fd5b505050506040513d601f19601f820116820180604052508101906109bb9190610c8d565b6001600160e01b031916634e8c461160e11b149150505b949350505050565b6109e48282610898565b610a3a5760405162461bcd60e51b815260206004820152602160248201527f526f6c65733a206163636f756e7420646f6573206e6f74206861766520726f6c6044820152606560f81b6064820152608401610307565b6001600160a01b0316600090815260209190915260409020805460ff19169055565b80356001600160a01b0381168114610a7357600080fd5b919050565b600082601f830112610a88578081fd5b813567ffffffffffffffff80821115610aa357610aa3610e02565b604051601f8301601f19908116603f01168101908282118183101715610acb57610acb610e02565b81604052838152866020858801011115610ae3578485fd5b8360208701602083013792830160200193909352509392505050565b600060208284031215610b10578081fd5b610b1982610a5c565b9392505050565b60008060408385031215610b32578081fd5b610b3b83610a5c565b9150610b4960208401610a5c565b90509250929050565b600080600060608486031215610b66578081fd5b610b6f84610a5c565b9250610b7d60208501610a5c565b9150604084013590509250925092565b60008060008060808587031215610ba2578081fd5b610bab85610a5c565b9350610bb960208601610a5c565b925060408501359150606085013567ffffffffffffffff811115610bdb578182fd5b610be787828801610a78565b91505092959194509250565b60008060408385031215610c05578182fd5b610c0e83610a5c565b946020939093013593505050565b600080600060608486031215610c30578283fd5b610c3984610a5c565b925060208401359150604084013567ffffffffffffffff811115610c5b578182fd5b610c6786828701610a78565b9150509250925092565b600060208284031215610c82578081fd5b8135610b1981610e18565b600060208284031215610c9e578081fd5b8151610b1981610e18565b600060018060a01b0380871683526020818716818501528560408501526080606085015284519150816080850152825b82811015610cf55785810182015185820160a001528101610cd9565b82811115610d06578360a084870101525b5050601f01601f19169190910160a00195945050505050565b6020808252602e908201527f4b4950373a207472616e7366657220746f206e6f6e204b49503752656365697660408201526d32b91034b6b83632b6b2b73a32b960911b606082015260800190565b60208082526030908201527f4d696e746572526f6c653a2063616c6c657220646f6573206e6f74206861766560408201526f20746865204d696e74657220726f6c6560801b606082015260800190565b60008219821115610dd057610dd0610dec565b500190565b600082821015610de757610de7610dec565b500390565b634e487b7160e01b600052601160045260246000fd5b634e487b7160e01b600052604160045260246000fd5b6001600160e01b03198116811461038657600080fdfea2646970667358221220b7c7d8acb83885665282748c751a76b3efd002003fdab548887e2d76c5b357f064736f6c63430008040033",
  "immutableReferences": {},
  "source": "// SPDX-License-Identifier: UNLICENSED\npragma solidity ^0.8.0;\n\nimport \"./KIP7.sol\";\nimport \"../access/roles/MinterRole.sol\";\nimport \"../introspection/KIP13.sol\";\n\n/**\n * @dev Extension of `KIP7` that adds a set of accounts with the `MinterRole`,\n * which have permission to mint (create) new tokens as they see fit.\n *\n * At construction, the deployer of the contract is the only minter.\n *\n * See http://kips.klaytn.com/KIPs/kip-7-fungible_token\n */\ncontract KIP7Mintable is KIP13, KIP7, MinterRole {\n    /*\n     *     bytes4(keccak256('mint(address,uint256)')) == 0x40c10f19\n     *     bytes4(keccak256('isMinter(address)')) == 0xaa271e1a\n     *     bytes4(keccak256('addMinter(address)')) == 0x983b2d56\n     *     bytes4(keccak256('renounceMinter()')) == 0x98650275\n     *\n     *     => 0x40c10f19 ^ 0xaa271e1a ^ 0x983b2d56 ^ 0x98650275 == 0xeab83e20\n     */\n    bytes4 private constant _INTERFACE_ID_KIP7MINTABLE = 0xeab83e20;\n\n    constructor () {\n        // register the supported interfaces to conform to KIP17 via KIP13\n        _registerInterface(_INTERFACE_ID_KIP7MINTABLE);\n    }\n\n    /**\n     * @dev See `KIP7._mint`.\n     *\n     * Requirements:\n     *\n     * - the caller must have the `MinterRole`.\n     */\n    function mint(address account, uint256 amount) public onlyMinter returns (bool) {\n        _mint(account, amount);\n        return true;\n    }\n}\n",
  "sourcePath": "/Users/nguyenthithuthao/Downloads/Documents/wormhole-kip7/contracts/bridge/kip7/KIP7/KIP7Mintable.sol",
  "compiler": {
    "name": "solc",
    "version": "0.8.4+commit.c7e474f2.Emscripten.clang"
  },
  "schemaVersion": "3.4.1",
  "updatedAt": "2022-01-26T09:33:50.524Z",
  "devdoc": {
    "details": "Extension of `KIP7` that adds a set of accounts with the `MinterRole`, which have permission to mint (create) new tokens as they see fit. At construction, the deployer of the contract is the only minter. See http://kips.klaytn.com/KIPs/kip-7-fungible_token",
    "kind": "dev",
    "methods": {
      "allowance(address,address)": {
        "details": "See `IKIP7.allowance`."
      },
      "approve(address,uint256)": {
        "details": "See `IKIP7.approve`. Requirements: - `spender` cannot be the zero address."
      },
      "balanceOf(address)": {
        "details": "See `IKIP7.balanceOf`."
      },
      "mint(address,uint256)": {
        "details": "See `KIP7._mint`. Requirements: - the caller must have the `MinterRole`."
      },
      "safeTransfer(address,uint256)": {
        "details": "Moves `amount` tokens from the caller's account to `recipient`."
      },
      "safeTransfer(address,uint256,bytes)": {
        "details": "Moves `amount` tokens from the caller's account to `recipient`."
      },
      "safeTransferFrom(address,address,uint256)": {
        "details": "Moves `amount` tokens from `sender` to `recipient` using the allowance mechanism. `amount` is then deducted from the caller's allowance."
      },
      "safeTransferFrom(address,address,uint256,bytes)": {
        "details": "Moves `amount` tokens from `sender` to `recipient` using the allowance mechanism. `amount` is then deducted from the caller's allowance."
      },
      "supportsInterface(bytes4)": {
        "details": "See `IKIP13.supportsInterface`. Time complexity O(1), guaranteed to always use less than 30 000 gas."
      },
      "totalSupply()": {
        "details": "See `IKIP7.totalSupply`."
      },
      "transfer(address,uint256)": {
        "details": "See `IKIP7.transfer`. Requirements: - `recipient` cannot be the zero address. - the caller must have a balance of at least `amount`."
      },
      "transferFrom(address,address,uint256)": {
        "details": "See `IKIP7.transferFrom`. Emits an `Approval` event indicating the updated allowance. This is not required by the KIP. See the note at the beginning of `KIP7`; Requirements: - `sender` and `recipient` cannot be the zero address. - `sender` must have a balance of at least `value`. - the caller must have allowance for `sender`'s tokens of at least `amount`."
      }
    },
    "version": 1
  },
  "userdoc": {
    "kind": "user",
    "methods": {},
    "version": 1
  }
}