{
  "contractName": "MockImplementation",
  "abi": [
    {
      "anonymous": false,
      "inputs": [
        {
          "indexed": false,
          "internalType": "address",
          "name": "previousAdmin",
          "type": "address"
        },
        {
          "indexed": false,
          "internalType": "address",
          "name": "newAdmin",
          "type": "address"
        }
      ],
      "name": "AdminChanged",
      "type": "event"
    },
    {
      "anonymous": false,
      "inputs": [
        {
          "indexed": true,
          "internalType": "address",
          "name": "beacon",
          "type": "address"
        }
      ],
      "name": "BeaconUpgraded",
      "type": "event"
    },
    {
      "anonymous": false,
      "inputs": [
        {
          "indexed": true,
          "internalType": "address",
          "name": "oldContract",
          "type": "address"
        },
        {
          "indexed": true,
          "internalType": "address",
          "name": "newContract",
          "type": "address"
        }
      ],
      "name": "ContractUpgraded",
      "type": "event"
    },
    {
      "anonymous": false,
      "inputs": [
        {
          "indexed": true,
          "internalType": "uint32",
          "name": "index",
          "type": "uint32"
        }
      ],
      "name": "GuardianSetAdded",
      "type": "event"
    },
    {
      "anonymous": false,
      "inputs": [
        {
          "indexed": true,
          "internalType": "address",
          "name": "sender",
          "type": "address"
        },
        {
          "indexed": false,
          "internalType": "uint64",
          "name": "sequence",
          "type": "uint64"
        },
        {
          "indexed": false,
          "internalType": "uint32",
          "name": "nonce",
          "type": "uint32"
        },
        {
          "indexed": false,
          "internalType": "bytes",
          "name": "payload",
          "type": "bytes"
        },
        {
          "indexed": false,
          "internalType": "uint8",
          "name": "consistencyLevel",
          "type": "uint8"
        }
      ],
      "name": "LogMessagePublished",
      "type": "event"
    },
    {
      "anonymous": false,
      "inputs": [
        {
          "indexed": true,
          "internalType": "address",
          "name": "implementation",
          "type": "address"
        }
      ],
      "name": "Upgraded",
      "type": "event"
    },
    {
      "stateMutability": "payable",
      "type": "fallback"
    },
    {
      "inputs": [],
      "name": "chainId",
      "outputs": [
        {
          "internalType": "uint16",
          "name": "",
          "type": "uint16"
        }
      ],
      "stateMutability": "view",
      "type": "function"
    },
    {
      "inputs": [],
      "name": "getCurrentGuardianSetIndex",
      "outputs": [
        {
          "internalType": "uint32",
          "name": "",
          "type": "uint32"
        }
      ],
      "stateMutability": "view",
      "type": "function"
    },
    {
      "inputs": [
        {
          "internalType": "uint32",
          "name": "index",
          "type": "uint32"
        }
      ],
      "name": "getGuardianSet",
      "outputs": [
        {
          "components": [
            {
              "internalType": "address[]",
              "name": "keys",
              "type": "address[]"
            },
            {
              "internalType": "uint32",
              "name": "expirationTime",
              "type": "uint32"
            }
          ],
          "internalType": "struct Structs.GuardianSet",
          "name": "",
          "type": "tuple"
        }
      ],
      "stateMutability": "view",
      "type": "function"
    },
    {
      "inputs": [],
      "name": "getGuardianSetExpiry",
      "outputs": [
        {
          "internalType": "uint32",
          "name": "",
          "type": "uint32"
        }
      ],
      "stateMutability": "view",
      "type": "function"
    },
    {
      "inputs": [
        {
          "internalType": "bytes32",
          "name": "hash",
          "type": "bytes32"
        }
      ],
      "name": "governanceActionIsConsumed",
      "outputs": [
        {
          "internalType": "bool",
          "name": "",
          "type": "bool"
        }
      ],
      "stateMutability": "view",
      "type": "function"
    },
    {
      "inputs": [],
      "name": "governanceChainId",
      "outputs": [
        {
          "internalType": "uint16",
          "name": "",
          "type": "uint16"
        }
      ],
      "stateMutability": "view",
      "type": "function"
    },
    {
      "inputs": [],
      "name": "governanceContract",
      "outputs": [
        {
          "internalType": "bytes32",
          "name": "",
          "type": "bytes32"
        }
      ],
      "stateMutability": "view",
      "type": "function"
    },
    {
      "inputs": [
        {
          "internalType": "address",
          "name": "impl",
          "type": "address"
        }
      ],
      "name": "isInitialized",
      "outputs": [
        {
          "internalType": "bool",
          "name": "",
          "type": "bool"
        }
      ],
      "stateMutability": "view",
      "type": "function"
    },
    {
      "inputs": [],
      "name": "messageFee",
      "outputs": [
        {
          "internalType": "uint256",
          "name": "",
          "type": "uint256"
        }
      ],
      "stateMutability": "view",
      "type": "function"
    },
    {
      "inputs": [
        {
          "internalType": "address",
          "name": "emitter",
          "type": "address"
        }
      ],
      "name": "nextSequence",
      "outputs": [
        {
          "internalType": "uint64",
          "name": "",
          "type": "uint64"
        }
      ],
      "stateMutability": "view",
      "type": "function"
    },
    {
      "inputs": [
        {
          "internalType": "bytes",
          "name": "encodedVM",
          "type": "bytes"
        }
      ],
      "name": "parseAndVerifyVM",
      "outputs": [
        {
          "components": [
            {
              "internalType": "uint8",
              "name": "version",
              "type": "uint8"
            },
            {
              "internalType": "uint32",
              "name": "timestamp",
              "type": "uint32"
            },
            {
              "internalType": "uint32",
              "name": "nonce",
              "type": "uint32"
            },
            {
              "internalType": "uint16",
              "name": "emitterChainId",
              "type": "uint16"
            },
            {
              "internalType": "bytes32",
              "name": "emitterAddress",
              "type": "bytes32"
            },
            {
              "internalType": "uint64",
              "name": "sequence",
              "type": "uint64"
            },
            {
              "internalType": "uint8",
              "name": "consistencyLevel",
              "type": "uint8"
            },
            {
              "internalType": "bytes",
              "name": "payload",
              "type": "bytes"
            },
            {
              "internalType": "uint32",
              "name": "guardianSetIndex",
              "type": "uint32"
            },
            {
              "components": [
                {
                  "internalType": "bytes32",
                  "name": "r",
                  "type": "bytes32"
                },
                {
                  "internalType": "bytes32",
                  "name": "s",
                  "type": "bytes32"
                },
                {
                  "internalType": "uint8",
                  "name": "v",
                  "type": "uint8"
                },
                {
                  "internalType": "uint8",
                  "name": "guardianIndex",
                  "type": "uint8"
                }
              ],
              "internalType": "struct Structs.Signature[]",
              "name": "signatures",
              "type": "tuple[]"
            },
            {
              "internalType": "bytes32",
              "name": "hash",
              "type": "bytes32"
            }
          ],
          "internalType": "struct Structs.VM",
          "name": "vm",
          "type": "tuple"
        },
        {
          "internalType": "bool",
          "name": "valid",
          "type": "bool"
        },
        {
          "internalType": "string",
          "name": "reason",
          "type": "string"
        }
      ],
      "stateMutability": "view",
      "type": "function"
    },
    {
      "inputs": [
        {
          "internalType": "bytes",
          "name": "encodedUpgrade",
          "type": "bytes"
        }
      ],
      "name": "parseContractUpgrade",
      "outputs": [
        {
          "components": [
            {
              "internalType": "bytes32",
              "name": "module",
              "type": "bytes32"
            },
            {
              "internalType": "uint8",
              "name": "action",
              "type": "uint8"
            },
            {
              "internalType": "uint16",
              "name": "chain",
              "type": "uint16"
            },
            {
              "internalType": "address",
              "name": "newContract",
              "type": "address"
            }
          ],
          "internalType": "struct GovernanceStructs.ContractUpgrade",
          "name": "cu",
          "type": "tuple"
        }
      ],
      "stateMutability": "pure",
      "type": "function"
    },
    {
      "inputs": [
        {
          "internalType": "bytes",
          "name": "encodedUpgrade",
          "type": "bytes"
        }
      ],
      "name": "parseGuardianSetUpgrade",
      "outputs": [
        {
          "components": [
            {
              "internalType": "bytes32",
              "name": "module",
              "type": "bytes32"
            },
            {
              "internalType": "uint8",
              "name": "action",
              "type": "uint8"
            },
            {
              "internalType": "uint16",
              "name": "chain",
              "type": "uint16"
            },
            {
              "components": [
                {
                  "internalType": "address[]",
                  "name": "keys",
                  "type": "address[]"
                },
                {
                  "internalType": "uint32",
                  "name": "expirationTime",
                  "type": "uint32"
                }
              ],
              "internalType": "struct Structs.GuardianSet",
              "name": "newGuardianSet",
              "type": "tuple"
            },
            {
              "internalType": "uint32",
              "name": "newGuardianSetIndex",
              "type": "uint32"
            }
          ],
          "internalType": "struct GovernanceStructs.GuardianSetUpgrade",
          "name": "gsu",
          "type": "tuple"
        }
      ],
      "stateMutability": "pure",
      "type": "function"
    },
    {
      "inputs": [
        {
          "internalType": "bytes",
          "name": "encodedSetMessageFee",
          "type": "bytes"
        }
      ],
      "name": "parseSetMessageFee",
      "outputs": [
        {
          "components": [
            {
              "internalType": "bytes32",
              "name": "module",
              "type": "bytes32"
            },
            {
              "internalType": "uint8",
              "name": "action",
              "type": "uint8"
            },
            {
              "internalType": "uint16",
              "name": "chain",
              "type": "uint16"
            },
            {
              "internalType": "uint256",
              "name": "messageFee",
              "type": "uint256"
            }
          ],
          "internalType": "struct GovernanceStructs.SetMessageFee",
          "name": "smf",
          "type": "tuple"
        }
      ],
      "stateMutability": "pure",
      "type": "function"
    },
    {
      "inputs": [
        {
          "internalType": "bytes",
          "name": "encodedTransferFees",
          "type": "bytes"
        }
      ],
      "name": "parseTransferFees",
      "outputs": [
        {
          "components": [
            {
              "internalType": "bytes32",
              "name": "module",
              "type": "bytes32"
            },
            {
              "internalType": "uint8",
              "name": "action",
              "type": "uint8"
            },
            {
              "internalType": "uint16",
              "name": "chain",
              "type": "uint16"
            },
            {
              "internalType": "uint256",
              "name": "amount",
              "type": "uint256"
            },
            {
              "internalType": "bytes32",
              "name": "recipient",
              "type": "bytes32"
            }
          ],
          "internalType": "struct GovernanceStructs.TransferFees",
          "name": "tf",
          "type": "tuple"
        }
      ],
      "stateMutability": "pure",
      "type": "function"
    },
    {
      "inputs": [
        {
          "internalType": "bytes",
          "name": "encodedVM",
          "type": "bytes"
        }
      ],
      "name": "parseVM",
      "outputs": [
        {
          "components": [
            {
              "internalType": "uint8",
              "name": "version",
              "type": "uint8"
            },
            {
              "internalType": "uint32",
              "name": "timestamp",
              "type": "uint32"
            },
            {
              "internalType": "uint32",
              "name": "nonce",
              "type": "uint32"
            },
            {
              "internalType": "uint16",
              "name": "emitterChainId",
              "type": "uint16"
            },
            {
              "internalType": "bytes32",
              "name": "emitterAddress",
              "type": "bytes32"
            },
            {
              "internalType": "uint64",
              "name": "sequence",
              "type": "uint64"
            },
            {
              "internalType": "uint8",
              "name": "consistencyLevel",
              "type": "uint8"
            },
            {
              "internalType": "bytes",
              "name": "payload",
              "type": "bytes"
            },
            {
              "internalType": "uint32",
              "name": "guardianSetIndex",
              "type": "uint32"
            },
            {
              "components": [
                {
                  "internalType": "bytes32",
                  "name": "r",
                  "type": "bytes32"
                },
                {
                  "internalType": "bytes32",
                  "name": "s",
                  "type": "bytes32"
                },
                {
                  "internalType": "uint8",
                  "name": "v",
                  "type": "uint8"
                },
                {
                  "internalType": "uint8",
                  "name": "guardianIndex",
                  "type": "uint8"
                }
              ],
              "internalType": "struct Structs.Signature[]",
              "name": "signatures",
              "type": "tuple[]"
            },
            {
              "internalType": "bytes32",
              "name": "hash",
              "type": "bytes32"
            }
          ],
          "internalType": "struct Structs.VM",
          "name": "vm",
          "type": "tuple"
        }
      ],
      "stateMutability": "pure",
      "type": "function"
    },
    {
      "inputs": [
        {
          "internalType": "uint32",
          "name": "nonce",
          "type": "uint32"
        },
        {
          "internalType": "bytes",
          "name": "payload",
          "type": "bytes"
        },
        {
          "internalType": "uint8",
          "name": "consistencyLevel",
          "type": "uint8"
        }
      ],
      "name": "publishMessage",
      "outputs": [
        {
          "internalType": "uint64",
          "name": "sequence",
          "type": "uint64"
        }
      ],
      "stateMutability": "payable",
      "type": "function"
    },
    {
      "inputs": [
        {
          "internalType": "bytes",
          "name": "_vm",
          "type": "bytes"
        }
      ],
      "name": "submitContractUpgrade",
      "outputs": [],
      "stateMutability": "nonpayable",
      "type": "function"
    },
    {
      "inputs": [
        {
          "internalType": "address[]",
          "name": "guardianSet",
          "type": "address[]"
        }
      ],
      "name": "submitNewGuardianSet",
      "outputs": [],
      "stateMutability": "nonpayable",
      "type": "function"
    },
    {
      "inputs": [
        {
          "internalType": "bytes",
          "name": "_vm",
          "type": "bytes"
        }
      ],
      "name": "submitSetMessageFee",
      "outputs": [],
      "stateMutability": "nonpayable",
      "type": "function"
    },
    {
      "inputs": [
        {
          "internalType": "bytes",
          "name": "_vm",
          "type": "bytes"
        }
      ],
      "name": "submitTransferFees",
      "outputs": [],
      "stateMutability": "nonpayable",
      "type": "function"
    },
    {
      "inputs": [
        {
          "internalType": "bytes32",
          "name": "hash",
          "type": "bytes32"
        },
        {
          "components": [
            {
              "internalType": "bytes32",
              "name": "r",
              "type": "bytes32"
            },
            {
              "internalType": "bytes32",
              "name": "s",
              "type": "bytes32"
            },
            {
              "internalType": "uint8",
              "name": "v",
              "type": "uint8"
            },
            {
              "internalType": "uint8",
              "name": "guardianIndex",
              "type": "uint8"
            }
          ],
          "internalType": "struct Structs.Signature[]",
          "name": "signatures",
          "type": "tuple[]"
        },
        {
          "components": [
            {
              "internalType": "address[]",
              "name": "keys",
              "type": "address[]"
            },
            {
              "internalType": "uint32",
              "name": "expirationTime",
              "type": "uint32"
            }
          ],
          "internalType": "struct Structs.GuardianSet",
          "name": "guardianSet",
          "type": "tuple"
        }
      ],
      "name": "verifySignatures",
      "outputs": [
        {
          "internalType": "bool",
          "name": "valid",
          "type": "bool"
        },
        {
          "internalType": "string",
          "name": "reason",
          "type": "string"
        }
      ],
      "stateMutability": "pure",
      "type": "function"
    },
    {
      "inputs": [
        {
          "components": [
            {
              "internalType": "uint8",
              "name": "version",
              "type": "uint8"
            },
            {
              "internalType": "uint32",
              "name": "timestamp",
              "type": "uint32"
            },
            {
              "internalType": "uint32",
              "name": "nonce",
              "type": "uint32"
            },
            {
              "internalType": "uint16",
              "name": "emitterChainId",
              "type": "uint16"
            },
            {
              "internalType": "bytes32",
              "name": "emitterAddress",
              "type": "bytes32"
            },
            {
              "internalType": "uint64",
              "name": "sequence",
              "type": "uint64"
            },
            {
              "internalType": "uint8",
              "name": "consistencyLevel",
              "type": "uint8"
            },
            {
              "internalType": "bytes",
              "name": "payload",
              "type": "bytes"
            },
            {
              "internalType": "uint32",
              "name": "guardianSetIndex",
              "type": "uint32"
            },
            {
              "components": [
                {
                  "internalType": "bytes32",
                  "name": "r",
                  "type": "bytes32"
                },
                {
                  "internalType": "bytes32",
                  "name": "s",
                  "type": "bytes32"
                },
                {
                  "internalType": "uint8",
                  "name": "v",
                  "type": "uint8"
                },
                {
                  "internalType": "uint8",
                  "name": "guardianIndex",
                  "type": "uint8"
                }
              ],
              "internalType": "struct Structs.Signature[]",
              "name": "signatures",
              "type": "tuple[]"
            },
            {
              "internalType": "bytes32",
              "name": "hash",
              "type": "bytes32"
            }
          ],
          "internalType": "struct Structs.VM",
          "name": "vm",
          "type": "tuple"
        }
      ],
      "name": "verifyVM",
      "outputs": [
        {
          "internalType": "bool",
          "name": "valid",
          "type": "bool"
        },
        {
          "internalType": "string",
          "name": "reason",
          "type": "string"
        }
      ],
      "stateMutability": "view",
      "type": "function"
    },
    {
      "stateMutability": "payable",
      "type": "receive"
    },
    {
      "inputs": [],
      "name": "initialize",
      "outputs": [],
      "stateMutability": "nonpayable",
      "type": "function"
    },
    {
      "inputs": [],
      "name": "testNewImplementationActive",
      "outputs": [
        {
          "internalType": "bool",
          "name": "",
          "type": "bool"
        }
      ],
      "stateMutability": "pure",
      "type": "function"
    }
  ],
  "bytecode": "0x608060405234801561001057600080fd5b50612e57806100206000396000f3fe60806040526004361061016a5760003560e01c8063875be02a116100d1578063b19a437e1161008a578063eb8d3f1211610064578063eb8d3f12146105ff578063f42bc64114610622578063f951975a14610642578063fbe3c2cd1461066f576101d1565b8063b19a437e14610584578063c0fd8bde14610597578063d60b347f146105c6576101d1565b8063875be02a146104ac57806393df337e146104da5780639a8a0592146104fa578063a0cce1b314610522578063a9e1189314610542578063b172b2221461056f576101d1565b80634cf842b5116101235780634cf842b5146103415780634fdc60fa14610398578063515f3247146103fb5780635cb8cae21461045557806367921afb146104775780638129fc1c14610497576101d1565b80630319e59c1461020757806304ca84cf146102795780631a90a219146102a65780631cfe7951146102c55780631f8cdb2b146102f15780632c3c02a414610311576101d1565b366101d15760405162461bcd60e51b815260206004820152602c60248201527f74686520576f726d686f6c6520636f6e747261637420646f6573206e6f74206160448201526b63636570742061737365747360a01b60648201526084015b60405180910390fd5b60405162461bcd60e51b815260206004820152600b60248201526a1d5b9cdd5c1c1bdc9d195960aa1b60448201526064016101c8565b34801561021357600080fd5b50610227610222366004612701565b61068e565b6040516102709190600060a0820190508251825260ff602084015116602083015261ffff6040840151166040830152606083015160608301526080830151608083015292915050565b60405180910390f35b34801561028557600080fd5b50610299610294366004612701565b6107e4565b6040516102709190612aef565b3480156102b257600080fd5b506007545b604051908152602001610270565b3480156102d157600080fd5b5060035463ffffffff165b60405163ffffffff9091168152602001610270565b3480156102fd57600080fd5b5060015b6040519015158152602001610270565b34801561031d57600080fd5b5061030161032c3660046125bf565b60009081526005602052604090205460ff1690565b34801561034d57600080fd5b5061038061035c366004612564565b6001600160a01b03166000908152600460205260409020546001600160401b031690565b6040516001600160401b039091168152602001610270565b3480156103a457600080fd5b506103b86103b3366004612701565b610a17565b60405161027091908151815260208083015160ff169082015260408083015161ffff16908201526060918201516001600160a01b03169181019190915260800190565b34801561040757600080fd5b5061041b610416366004612701565b610b53565b60405161027091908151815260208083015160ff169082015260408083015161ffff16908201526060918201519181019190915260800190565b34801561046157600080fd5b50610475610470366004612701565b610c82565b005b34801561048357600080fd5b50610475610492366004612585565b610d8a565b3480156104a357600080fd5b50610475610e15565b3480156104b857600080fd5b506104cc6104c7366004612733565b610eda565b604051610270929190612ac1565b3480156104e657600080fd5b506104756104f5366004612701565b61106e565b34801561050657600080fd5b5060005461ffff165b60405161ffff9091168152602001610270565b34801561052e57600080fd5b506104cc61053d3660046125d7565b6111ba565b34801561054e57600080fd5b5061056261055d366004612701565b611397565b6040516102709190612b5f565b34801561057b57600080fd5b506001546102b7565b61038061059236600461286c565b611775565b3480156105a357600080fd5b506105b76105b2366004612695565b611815565b60405161027093929190612b72565b3480156105d257600080fd5b506103016105e1366004612564565b6001600160a01b031660009081526006602052604090205460ff1690565b34801561060b57600080fd5b50600354640100000000900463ffffffff166102dc565b34801561062e57600080fd5b5061047561063d366004612701565b611877565b34801561064e57600080fd5b5061066261065d366004612852565b611978565b6040516102709190612b4c565b34801561067b57600080fd5b5060005462010000900461ffff1661050f565b6040805160a0810182526000808252602082018190529181018290526060810182905260808101829052906106c38382611a17565b82526106d0602082612c89565b90506106dc8382611a75565b60ff1660208301526106ef600182612c89565b9050816020015160ff1660041461073f5760405162461bcd60e51b8152602060048201526014602482015273696e76616c6964205472616e736665724665657360601b60448201526064016101c8565b6107498382611ad1565b61ffff16604083015261075d600282612c89565b90506107698382611b2e565b6060830152610779602082612c89565b90506107858382611a17565b6080830152610795602082612c89565b9050808351146107de5760405162461bcd60e51b8152602060048201526014602482015273696e76616c6964205472616e736665724665657360601b60448201526064016101c8565b50919050565b6107ec61224e565b60006107f88382611a17565b8252610805602082612c89565b90506108118382611a75565b60ff166020830152610824600182612c89565b9050816020015160ff1660021461087d5760405162461bcd60e51b815260206004820152601a60248201527f696e76616c696420477561726469616e5365745570677261646500000000000060448201526064016101c8565b6108878382611ad1565b61ffff16604083015261089b600282612c89565b90506108a78382611b83565b63ffffffff1660808301526108bd600482612c89565b905060006108cb8483611a75565b90506108d8600183612c89565b915060405180604001604052808260ff166001600160401b0381111561090e57634e487b7160e01b600052604160045260246000fd5b604051908082528060200260200182016040528015610937578160200160208202803683370190505b5081526000602090910181905260608501919091525b8160ff168110156109bf576109628584611be0565b60608501515180518390811061098857634e487b7160e01b600052603260045260246000fd5b6001600160a01b03909216602092830291909101909101526109ab601484612c89565b9250806109b781612d96565b91505061094d565b5081845114610a105760405162461bcd60e51b815260206004820152601a60248201527f696e76616c696420477561726469616e5365745570677261646500000000000060448201526064016101c8565b5050919050565b604080516080810182526000808252602082018190529181018290526060810182905290610a458382611a17565b8252610a52602082612c89565b9050610a5e8382611a75565b60ff166020830152610a71600182612c89565b9050816020015160ff16600114610ac45760405162461bcd60e51b8152602060048201526017602482015276696e76616c696420436f6e74726163745570677261646560481b60448201526064016101c8565b610ace8382611ad1565b61ffff166040830152610ae2600282612c89565b9050610aee8382611a17565b6001600160a01b03166060830152610b07602082612c89565b9050808351146107de5760405162461bcd60e51b8152602060048201526017602482015276696e76616c696420436f6e74726163745570677261646560481b60448201526064016101c8565b604080516080810182526000808252602082018190529181018290526060810182905290610b818382611a17565b8252610b8e602082612c89565b9050610b9a8382611a75565b60ff166020830152610bad600182612c89565b9050816020015160ff16600314610bfe5760405162461bcd60e51b8152602060048201526015602482015274696e76616c6964205365744d65737361676546656560581b60448201526064016101c8565b610c088382611ad1565b61ffff166040830152610c1c600282612c89565b9050610c288382611b2e565b6060830152610c38602082612c89565b9050808351146107de5760405162461bcd60e51b8152602060048201526015602482015274696e76616c6964205365744d65737361676546656560581b60448201526064016101c8565b6000610c8d82611397565b9050600080610c9b83611c45565b91509150818190610cbf5760405162461bcd60e51b81526004016101c89190612adc565b506000610ccf8460e00151610a17565b805190915063436f726514610d175760405162461bcd60e51b815260206004820152600e60248201526d496e76616c6964204d6f64756c6560901b60448201526064016101c8565b60005461ffff1661ffff16816040015161ffff1614610d685760405162461bcd60e51b815260206004820152600d60248201526c24b73b30b634b21021b430b4b760991b60448201526064016101c8565b610d76846101400151611dbb565b610d838160600151611dd6565b5050505050565b6040805180820190915281815260006020820152610db5610db060035463ffffffff1690565b611f03565b610dd881610dc860035463ffffffff1690565b610dd3906001612ca1565b611f3b565b610e11610dea60035463ffffffff1690565b610df5906001612ca1565b6003805463ffffffff191663ffffffff92909216919091179055565b5050565b6000610e487f360894a13ba1a3210667c828492db98dca3e2076cc3735a920a3ca505d382bbc546001600160a01b031690565b9050610e6c816001600160a01b031660009081526006602052604090205460ff1690565b15610eaf5760405162461bcd60e51b8152602060048201526013602482015272185b1c9958591e481a5b9a5d1a585b1a5e9959606a1b60448201526064016101c8565b610ed7816001600160a01b03166000908152600660205260409020805460ff19166001179055565b50565b600060606000610eee846101000151611978565b805151909150610f31576000604051806040016040528060148152602001731a5b9d985b1a590819dd585c991a585b881cd95d60621b8152509250925050915091565b60035463ffffffff1663ffffffff1684610100015163ffffffff1614158015610f63575042816020015163ffffffff16105b15610faa5760006040518060400160405280601881526020017f677561726469616e2073657420686173206578706972656400000000000000008152509250925050915091565b61012084015151815151600a90600390610fc49083612d30565b610fce9190612d10565b610fd9906002612d30565b610fe39190612d10565b610fee906001612c89565b1115611022576000604051806040016040528060098152602001686e6f2071756f72756d60b81b8152509250925050915091565b60008061103a866101400151876101200151856111ba565b9150915081611050576000969095509350505050565b60016040518060200160405280600081525094509450505050915091565b600061107982611397565b905060008061108783611c45565b915091508181906110ab5760405162461bcd60e51b81526004016101c89190612adc565b5060006110bb8460e0015161068e565b805190915063436f7265146111035760405162461bcd60e51b815260206004820152600e60248201526d696e76616c6964204d6f64756c6560901b60448201526064016101c8565b60005461ffff1661ffff16816040015161ffff1614806111295750604081015161ffff16155b6111655760405162461bcd60e51b815260206004820152600d60248201526c34b73b30b634b21021b430b4b760991b60448201526064016101c8565b611173846101400151611dbb565b608081015160608201516040516001600160a01b0383169180156108fc02916000818181858888f193505050501580156111b1573d6000803e3d6000fd5b50505050505050565b600060606000805b85518110156113765760008682815181106111ed57634e487b7160e01b600052603260045260246000fd5b60200260200101519050816000148061120f57508260ff16816060015160ff16115b6112675760405162461bcd60e51b815260206004820152602360248201527f7369676e617475726520696e6469636573206d75737420626520617363656e64604482015262696e6760e81b60648201526084016101c8565b6060810151865180519194509060ff851690811061129557634e487b7160e01b600052603260045260246000fd5b60200260200101516001600160a01b0316600189836040015184600001518560200151604051600081526020016040526040516112ee949392919093845260ff9290921660208401526040830152606082015260800190565b6020604051602081039080840390855afa158015611310573d6000803e3d6000fd5b505050602060405103516001600160a01b031614611363576000604051806040016040528060148152602001731593481cda59db985d1d5c99481a5b9d985b1a5960621b8152509450945050505061138f565b508061136e81612d96565b9150506111c2565b5060016040518060200160405280600081525092509250505b935093915050565b61139f6122a8565b60006113ab8382611a75565b60ff1682526113bb600182612c89565b9050816000015160ff166001146114145760405162461bcd60e51b815260206004820152601760248201527f564d2076657273696f6e20696e636f6d70617469626c6500000000000000000060448201526064016101c8565b61141e8382611b83565b63ffffffff16610100830152611435600482612c89565b905060006114438483611a75565b60ff169050611453600183612c89565b9150806001600160401b0381111561147b57634e487b7160e01b600052604160045260246000fd5b6040519080825280602002602001820160405280156114cd57816020015b6040805160808101825260008082526020808301829052928201819052606082015282526000199092019101816114995790505b5061012084015260005b8181101561163c576114e98584611a75565b846101200151828151811061150e57634e487b7160e01b600052603260045260246000fd5b602090810291909101015160ff90911660609091015261152f600184612c89565b925061153b8584611a17565b846101200151828151811061156057634e487b7160e01b600052603260045260246000fd5b6020026020010151600001818152505060208361157d9190612c89565b92506115898584611a17565b84610120015182815181106115ae57634e487b7160e01b600052603260045260246000fd5b602002602001015160200181815250506020836115cb9190612c89565b92506115d78584611a75565b6115e290601b612ceb565b846101200151828151811061160757634e487b7160e01b600052603260045260246000fd5b602090810291909101015160ff909116604090910152611628600184612c89565b92508061163481612d96565b9150506114d7565b506000611658838487516116509190612d4f565b879190611f8f565b9050808051906020012060405160200161167491815260200190565b60408051601f19818403018152919052805160209091012061014085015261169c8584611b83565b63ffffffff1660208501526116b2600484612c89565b92506116be8584611b83565b63ffffffff1660408501526116d4600484612c89565b92506116e08584611ad1565b61ffff1660608501526116f4600284612c89565b92506117008584611a17565b6080850152611710602084612c89565b925061171c858461209c565b6001600160401b031660a0850152611735600884612c89565b92506117418584611a75565b60ff1660c0850152611754600184612c89565b9250611767838487516116509190612d4f565b60e085015250919392505050565b600061178060075490565b34146117bc5760405162461bcd60e51b815260206004820152600b60248201526a696e76616c69642066656560a81b60448201526064016101c8565b6117c5336120f9565b9050336001600160a01b03167f6eb224fb001ed210e379b335e35efe88672a8ce935d981a6896b27ffdf52a3b2828686866040516118069493929190612ba9565b60405180910390a29392505050565b61181d6122a8565b6000606061186085858080601f01602080910402602001604051908101604052809392919081815260200183838082843760009201919091525061139792505050565b925061186b83610eda565b93969095509293505050565b600061188282611397565b905060008061189083611c45565b915091508181906118b45760405162461bcd60e51b81526004016101c89190612adc565b5060006118c48460e00151610b53565b805190915063436f72651461190c5760405162461bcd60e51b815260206004820152600e60248201526d496e76616c6964204d6f64756c6560901b60448201526064016101c8565b60005461ffff1661ffff16816040015161ffff161461195d5760405162461bcd60e51b815260206004820152600d60248201526c24b73b30b634b21021b430b4b760991b60448201526064016101c8565b61196b846101400151611dbb565b610d838160600151600755565b60408051808201825260608082526000602080840182905263ffffffff861682526002815290849020845181549283028101840186529485018281529394939092849284918401828280156119f657602002820191906000526020600020905b81546001600160a01b031681526001909101906020018083116119d8575b50505091835250506001919091015463ffffffff1660209091015292915050565b6000611a24826020612c89565b83511015611a6c5760405162461bcd60e51b8152602060048201526015602482015274746f427974657333325f6f75744f66426f756e647360581b60448201526064016101c8565b50016020015190565b6000611a82826001612c89565b83511015611ac85760405162461bcd60e51b8152602060048201526013602482015272746f55696e74385f6f75744f66426f756e647360681b60448201526064016101c8565b50016001015190565b6000611ade826002612c89565b83511015611b255760405162461bcd60e51b8152602060048201526014602482015273746f55696e7431365f6f75744f66426f756e647360601b60448201526064016101c8565b50016002015190565b6000611b3b826020612c89565b83511015611a6c5760405162461bcd60e51b8152602060048201526015602482015274746f55696e743235365f6f75744f66426f756e647360581b60448201526064016101c8565b6000611b90826004612c89565b83511015611bd75760405162461bcd60e51b8152602060048201526014602482015273746f55696e7433325f6f75744f66426f756e647360601b60448201526064016101c8565b50016004015190565b6000611bed826014612c89565b83511015611c355760405162461bcd60e51b8152602060048201526015602482015274746f416464726573735f6f75744f66426f756e647360581b60448201526064016101c8565b500160200151600160601b900490565b60006060600080611c5585610eda565b9150915081611c6a5760009590945092505050565b60035463ffffffff1663ffffffff1685610100015163ffffffff1614611cb0576000604051806060016040528060228152602001612dde60229139935093505050915091565b60005462010000900461ffff1661ffff16856060015161ffff1614611d0b576000604051806040016040528060168152602001753bb937b7339033b7bb32b93730b731b29031b430b4b760511b815250935093505050915091565b600154856080015114611d5b5760006040518060400160405280601981526020017f77726f6e6720676f7665726e616e636520636f6e747261637400000000000000815250935093505050915091565b61014085015160009081526005602052604090205460ff1615611d9e576000604051806060016040528060228152602001612e0060229139935093505050915091565b600160405180602001604052806000815250935093505050915091565b6000908152600560205260409020805460ff19166001179055565b6000611e097f360894a13ba1a3210667c828492db98dca3e2076cc3735a920a3ca505d382bbc546001600160a01b031690565b9050611e1482612169565b60408051600481526024810182526020810180516001600160e01b031663204a7f0760e21b179052905160009182916001600160a01b03861691611e5791612aa5565b600060405180830381855af49150503d8060008114611e92576040519150601f19603f3d011682016040523d82523d6000602084013e611e97565b606091505b5091509150818190611ebc5760405162461bcd60e51b81526004016101c89190612adc565b50836001600160a01b0316836001600160a01b03167f2e4cc16c100f0b55e2df82ab0b1a7e294aa9cbd01b48fbaf622683fbc0507a4960405160405180910390a350505050565b611f104262015180612ca1565b63ffffffff9182166000908152600260205260409020600101805463ffffffff191691909216179055565b63ffffffff81166000908152600260209081526040909120835180518593611f67928492910190612303565b50602091909101516001909101805463ffffffff191663ffffffff9092169190911790555050565b606081611f9d81601f612c89565b1015611fdc5760405162461bcd60e51b815260206004820152600e60248201526d736c6963655f6f766572666c6f7760901b60448201526064016101c8565b611fe68284612c89565b8451101561202a5760405162461bcd60e51b8152602060048201526011602482015270736c6963655f6f75744f66426f756e647360781b60448201526064016101c8565b6060821580156120495760405191506000825260208201604052612093565b6040519150601f8416801560200281840101858101878315602002848b0101015b8183101561208257805183526020928301920161206a565b5050858452601f01601f1916604052505b50949350505050565b60006120a9826008612c89565b835110156120f05760405162461bcd60e51b8152602060048201526014602482015273746f55696e7436345f6f75744f66426f756e647360601b60448201526064016101c8565b50016008015190565b6001600160a01b0381166000908152600460205260409020546001600160401b03166121648261212a836001612cc9565b6001600160a01b03919091166000908152600460205260409020805467ffffffffffffffff19166001600160401b03909216919091179055565b919050565b612172816121a9565b6040516001600160a01b038216907fbc7cd75a20ee27fd9adebab32041f755214dbc6bffa90cc0225b39da2e5c2d3b90600090a250565b803b61220d5760405162461bcd60e51b815260206004820152602d60248201527f455243313936373a206e657720696d706c656d656e746174696f6e206973206e60448201526c1bdd08184818dbdb9d1c9858dd609a1b60648201526084016101c8565b7f360894a13ba1a3210667c828492db98dca3e2076cc3735a920a3ca505d382bbc80546001600160a01b0319166001600160a01b0392909216919091179055565b6040518060a0016040528060008019168152602001600060ff168152602001600061ffff16815260200161229b604051806040016040528060608152602001600063ffffffff1681525090565b8152600060209091015290565b604080516101608101825260008082526020820181905291810182905260608082018390526080820183905260a0820183905260c0820183905260e08201819052610100820183905261012082015261014081019190915290565b828054828255906000526020600020908101928215612358579160200282015b8281111561235857825182546001600160a01b0319166001600160a01b03909116178255602090920191600190910190612323565b50612364929150612368565b5090565b5b808211156123645760008155600101612369565b80356001600160a01b038116811461216457600080fd5b600082601f8301126123a4578081fd5b813560206123b96123b483612c66565b612c36565b80838252828201915082860187848660051b89010111156123d8578586fd5b855b858110156123fd576123eb8261237d565b845292840192908401906001016123da565b5090979650505050505050565b600082601f83011261241a578081fd5b8135602061242a6123b483612c66565b80838252828201915082860187848660071b8901011115612449578586fd5b855b858110156123fd57608080838b031215612463578788fd5b61246b612beb565b8335815286840135878201526040612484818601612553565b908201526060612495858201612553565b90820152855293850193919091019060010161244b565b600082601f8301126124bc578081fd5b81356001600160401b038111156124d5576124d5612dc7565b6124e8601f8201601f1916602001612c36565b8181528460208386010111156124fc578283fd5b816020850160208301379081016020019190915292915050565b803561ffff8116811461216457600080fd5b803563ffffffff8116811461216457600080fd5b80356001600160401b038116811461216457600080fd5b803560ff8116811461216457600080fd5b600060208284031215612575578081fd5b61257e8261237d565b9392505050565b600060208284031215612596578081fd5b81356001600160401b038111156125ab578182fd5b6125b784828501612394565b949350505050565b6000602082840312156125d0578081fd5b5035919050565b6000806000606084860312156125eb578182fd5b8335925060208401356001600160401b0380821115612608578384fd5b6126148783880161240a565b93506040860135915080821115612629578283fd5b908501906040828803121561263c578283fd5b60405160408101818110838211171561265757612657612dc7565b604052823582811115612668578485fd5b61267489828601612394565b82525061268360208401612528565b60208201528093505050509250925092565b600080602083850312156126a7578182fd5b82356001600160401b03808211156126bd578384fd5b818501915085601f8301126126d0578384fd5b8135818111156126de578485fd5b8660208285010111156126ef578485fd5b60209290920196919550909350505050565b600060208284031215612712578081fd5b81356001600160401b03811115612727578182fd5b6125b7848285016124ac565b600060208284031215612744578081fd5b81356001600160401b038082111561275a578283fd5b90830190610160828603121561276e578283fd5b612776612c13565b61277f83612553565b815261278d60208401612528565b602082015261279e60408401612528565b60408201526127af60608401612516565b6060820152608083013560808201526127ca60a0840161253c565b60a08201526127db60c08401612553565b60c082015260e0830135828111156127f1578485fd5b6127fd878286016124ac565b60e083015250610100612811818501612528565b908201526101208381013583811115612828578586fd5b6128348882870161240a565b91830191909152506101409283013592810192909252509392505050565b600060208284031215612863578081fd5b61257e82612528565b600080600060608486031215612880578081fd5b61288984612528565b925060208401356001600160401b038111156128a3578182fd5b6128af868287016124ac565b9250506128be60408501612553565b90509250925092565b6000815180845260208085019450808401835b8381101561291f57815180518852838101518489015260408082015160ff908116918a01919091526060918201511690880152608090960195908201906001016128da565b509495945050505050565b60008151808452612942816020860160208601612d66565b601f01601f19169290920160200192915050565b805160408084528151908401819052600091602091908201906060860190845b8181101561299b5783516001600160a01b031683529284019291840191600101612976565b50509382015163ffffffff16949091019390935250919050565b805160ff168252600061016060208301516129d8602086018263ffffffff169052565b5060408301516129f0604086018263ffffffff169052565b506060830151612a06606086018261ffff169052565b506080830151608085015260a0830151612a2b60a08601826001600160401b03169052565b5060c0830151612a4060c086018260ff169052565b5060e08301518160e0860152612a588286018261292a565b91505061010080840151612a738287018263ffffffff169052565b50506101208084015185830382870152612a8d83826128c7565b61014095860151969095019590955250919392505050565b60008251612ab7818460208701612d66565b9190910192915050565b82151581526040602082015260006125b7604083018461292a565b60208152600061257e602083018461292a565b602081528151602082015260ff602083015116604082015261ffff60408301511660608201526000606083015160a06080840152612b3060c0840182612956565b905063ffffffff60808501511660a08401528091505092915050565b60208152600061257e6020830184612956565b60208152600061257e60208301846129b5565b606081526000612b8560608301866129b5565b84151560208401528281036040840152612b9f818561292a565b9695505050505050565b6001600160401b038516815263ffffffff84166020820152608060408201526000612bd7608083018561292a565b905060ff8316606083015295945050505050565b604051608081016001600160401b0381118282101715612c0d57612c0d612dc7565b60405290565b60405161016081016001600160401b0381118282101715612c0d57612c0d612dc7565b604051601f8201601f191681016001600160401b0381118282101715612c5e57612c5e612dc7565b604052919050565b60006001600160401b03821115612c7f57612c7f612dc7565b5060051b60200190565b60008219821115612c9c57612c9c612db1565b500190565b600063ffffffff808316818516808303821115612cc057612cc0612db1565b01949350505050565b60006001600160401b03808316818516808303821115612cc057612cc0612db1565b600060ff821660ff84168060ff03821115612d0857612d08612db1565b019392505050565b600082612d2b57634e487b7160e01b81526012600452602481fd5b500490565b6000816000190483118215151615612d4a57612d4a612db1565b500290565b600082821015612d6157612d61612db1565b500390565b60005b83811015612d81578181015183820152602001612d69565b83811115612d90576000848401525b50505050565b6000600019821415612daa57612daa612db1565b5060010190565b634e487b7160e01b600052601160045260246000fd5b634e487b7160e01b600052604160045260246000fdfe6e6f74207369676e65642062792063757272656e7420677561726469616e20736574676f7665726e616e636520616374696f6e20616c726561647920636f6e73756d6564a26469706673582212205e2a3e3e8fc269bd270a8221be0c7e33ea9ff20a80faa7dcff58aa4d9d60324664736f6c63430008040033",
  "immutableReferences": {},
  "source": "// contracts/Implementation.sol\n// SPDX-License-Identifier: Apache 2\n\npragma solidity ^0.8.0;\n\nimport \"../Implementation.sol\";\n\ncontract MockImplementation is Implementation {\n    function initialize() initializer public {\n        // this function needs to be exposed for an upgrade to pass\n    }\n\n    function testNewImplementationActive() external pure returns (bool) {\n        return true;\n    }\n}\n",
  "sourcePath": "/Users/nguyenthithuthao/Downloads/Documents/wormhole-kip7/contracts/mock/MockImplementation.sol",
  "compiler": {
    "name": "solc",
    "version": "0.8.4+commit.c7e474f2.Emscripten.clang"
  },
  "schemaVersion": "3.4.1",
  "updatedAt": "2022-01-26T09:33:50.624Z",
  "devdoc": {
    "kind": "dev",
    "methods": {},
    "version": 1
  },
  "userdoc": {
    "kind": "user",
    "methods": {},
    "version": 1
  }
}