{
  "contractName": "NFTBridgeSetup",
  "abi": [
    {
      "anonymous": false,
      "inputs": [
        {
          "indexed": false,
          "internalType": "address",
          "name": "previousAdmin",
          "type": "address"
        },
        {
          "indexed": false,
          "internalType": "address",
          "name": "newAdmin",
          "type": "address"
        }
      ],
      "name": "AdminChanged",
      "type": "event"
    },
    {
      "anonymous": false,
      "inputs": [
        {
          "indexed": true,
          "internalType": "address",
          "name": "beacon",
          "type": "address"
        }
      ],
      "name": "BeaconUpgraded",
      "type": "event"
    },
    {
      "anonymous": false,
      "inputs": [
        {
          "indexed": true,
          "internalType": "address",
          "name": "implementation",
          "type": "address"
        }
      ],
      "name": "Upgraded",
      "type": "event"
    },
    {
      "inputs": [
        {
          "internalType": "address",
          "name": "implementation",
          "type": "address"
        },
        {
          "internalType": "uint16",
          "name": "chainId",
          "type": "uint16"
        },
        {
          "internalType": "address",
          "name": "wormhole",
          "type": "address"
        },
        {
          "internalType": "uint16",
          "name": "governanceChainId",
          "type": "uint16"
        },
        {
          "internalType": "bytes32",
          "name": "governanceContract",
          "type": "bytes32"
        },
        {
          "internalType": "address",
          "name": "tokenImplementation",
          "type": "address"
        }
      ],
      "name": "setup",
      "outputs": [],
      "stateMutability": "nonpayable",
      "type": "function"
    }
  ],
  "bytecode": "0x608060405234801561001057600080fd5b5061026b806100206000396000f3fe608060405234801561001057600080fd5b506004361061002b5760003560e01c80637e89644614610030575b600080fd5b61004361003e3660046101c9565b610045565b005b60028054600080546001600160a01b0388166001600160a01b031990911617905561ffff858116620100000263ffffffff19909216908816171790556003829055600180546001600160a01b0319166001600160a01b0383161790556100aa866100b2565b505050505050565b6100bb816100f2565b6040516001600160a01b038216907fbc7cd75a20ee27fd9adebab32041f755214dbc6bffa90cc0225b39da2e5c2d3b90600090a250565b803b61015a5760405162461bcd60e51b815260206004820152602d60248201527f455243313936373a206e657720696d706c656d656e746174696f6e206973206e60448201526c1bdd08184818dbdb9d1c9858dd609a1b606482015260840160405180910390fd5b7f360894a13ba1a3210667c828492db98dca3e2076cc3735a920a3ca505d382bbc80546001600160a01b0319166001600160a01b0392909216919091179055565b80356001600160a01b03811681146101b257600080fd5b919050565b803561ffff811681146101b257600080fd5b60008060008060008060c087890312156101e1578182fd5b6101ea8761019b565b95506101f8602088016101b7565b94506102066040880161019b565b9350610214606088016101b7565b92506080870135915061022960a0880161019b565b9050929550929550929556fea2646970667358221220121c9c7f7089e7a32771c6ba82b15ab80895c3f4068dc36d6e45fd354799360364736f6c63430008040033",
  "immutableReferences": {},
  "source": "// contracts/BridgeSetup.sol\n// SPDX-License-Identifier: Apache 2\n\npragma solidity ^0.8.0;\npragma experimental ABIEncoderV2;\n\nimport \"./NFTBridgeGovernance.sol\";\n\nimport \"@openzeppelin/contracts/proxy/ERC1967/ERC1967Upgrade.sol\";\n\ncontract NFTBridgeSetup is NFTBridgeSetters, ERC1967Upgrade {\n    function setup(\n        address implementation,\n        uint16 chainId,\n        address wormhole,\n        uint16 governanceChainId,\n        bytes32 governanceContract,\n        address tokenImplementation\n    ) public {\n        setChainId(chainId);\n\n        setWormhole(wormhole);\n\n        setGovernanceChainId(governanceChainId);\n        setGovernanceContract(governanceContract);\n\n        setTokenImplementation(tokenImplementation);\n\n        _upgradeTo(implementation);\n    }\n}\n",
  "sourcePath": "/Users/nguyenthithuthao/Downloads/Documents/wormhole-kip7/contracts/nft/NFTBridgeSetup.sol",
  "compiler": {
    "name": "solc",
    "version": "0.8.4+commit.c7e474f2.Emscripten.clang"
  },
  "schemaVersion": "3.4.1",
  "updatedAt": "2022-01-26T09:33:50.682Z",
  "devdoc": {
    "kind": "dev",
    "methods": {},
    "version": 1
  },
  "userdoc": {
    "kind": "user",
    "methods": {},
    "version": 1
  }
}