{
  "contractName": "NFTBridge",
  "abi": [
    {
      "anonymous": false,
      "inputs": [
        {
          "indexed": false,
          "internalType": "address",
          "name": "previousAdmin",
          "type": "address"
        },
        {
          "indexed": false,
          "internalType": "address",
          "name": "newAdmin",
          "type": "address"
        }
      ],
      "name": "AdminChanged",
      "type": "event"
    },
    {
      "anonymous": false,
      "inputs": [
        {
          "indexed": true,
          "internalType": "address",
          "name": "beacon",
          "type": "address"
        }
      ],
      "name": "BeaconUpgraded",
      "type": "event"
    },
    {
      "anonymous": false,
      "inputs": [
        {
          "indexed": true,
          "internalType": "address",
          "name": "oldContract",
          "type": "address"
        },
        {
          "indexed": true,
          "internalType": "address",
          "name": "newContract",
          "type": "address"
        }
      ],
      "name": "ContractUpgraded",
      "type": "event"
    },
    {
      "anonymous": false,
      "inputs": [
        {
          "indexed": true,
          "internalType": "address",
          "name": "implementation",
          "type": "address"
        }
      ],
      "name": "Upgraded",
      "type": "event"
    },
    {
      "inputs": [
        {
          "internalType": "uint16",
          "name": "chainId_",
          "type": "uint16"
        }
      ],
      "name": "bridgeContracts",
      "outputs": [
        {
          "internalType": "bytes32",
          "name": "",
          "type": "bytes32"
        }
      ],
      "stateMutability": "view",
      "type": "function"
    },
    {
      "inputs": [],
      "name": "chainId",
      "outputs": [
        {
          "internalType": "uint16",
          "name": "",
          "type": "uint16"
        }
      ],
      "stateMutability": "view",
      "type": "function"
    },
    {
      "inputs": [
        {
          "internalType": "bytes32",
          "name": "hash",
          "type": "bytes32"
        }
      ],
      "name": "governanceActionIsConsumed",
      "outputs": [
        {
          "internalType": "bool",
          "name": "",
          "type": "bool"
        }
      ],
      "stateMutability": "view",
      "type": "function"
    },
    {
      "inputs": [],
      "name": "governanceChainId",
      "outputs": [
        {
          "internalType": "uint16",
          "name": "",
          "type": "uint16"
        }
      ],
      "stateMutability": "view",
      "type": "function"
    },
    {
      "inputs": [],
      "name": "governanceContract",
      "outputs": [
        {
          "internalType": "bytes32",
          "name": "",
          "type": "bytes32"
        }
      ],
      "stateMutability": "view",
      "type": "function"
    },
    {
      "inputs": [
        {
          "internalType": "address",
          "name": "impl",
          "type": "address"
        }
      ],
      "name": "isInitialized",
      "outputs": [
        {
          "internalType": "bool",
          "name": "",
          "type": "bool"
        }
      ],
      "stateMutability": "view",
      "type": "function"
    },
    {
      "inputs": [
        {
          "internalType": "bytes32",
          "name": "hash",
          "type": "bytes32"
        }
      ],
      "name": "isTransferCompleted",
      "outputs": [
        {
          "internalType": "bool",
          "name": "",
          "type": "bool"
        }
      ],
      "stateMutability": "view",
      "type": "function"
    },
    {
      "inputs": [
        {
          "internalType": "address",
          "name": "token",
          "type": "address"
        }
      ],
      "name": "isWrappedAsset",
      "outputs": [
        {
          "internalType": "bool",
          "name": "",
          "type": "bool"
        }
      ],
      "stateMutability": "view",
      "type": "function"
    },
    {
      "inputs": [
        {
          "internalType": "bytes",
          "name": "encoded",
          "type": "bytes"
        }
      ],
      "name": "parseRegisterChain",
      "outputs": [
        {
          "components": [
            {
              "internalType": "bytes32",
              "name": "module",
              "type": "bytes32"
            },
            {
              "internalType": "uint8",
              "name": "action",
              "type": "uint8"
            },
            {
              "internalType": "uint16",
              "name": "chainId",
              "type": "uint16"
            },
            {
              "internalType": "uint16",
              "name": "emitterChainID",
              "type": "uint16"
            },
            {
              "internalType": "bytes32",
              "name": "emitterAddress",
              "type": "bytes32"
            }
          ],
          "internalType": "struct NFTBridgeStructs.RegisterChain",
          "name": "chain",
          "type": "tuple"
        }
      ],
      "stateMutability": "pure",
      "type": "function"
    },
    {
      "inputs": [
        {
          "internalType": "bytes",
          "name": "encoded",
          "type": "bytes"
        }
      ],
      "name": "parseUpgrade",
      "outputs": [
        {
          "components": [
            {
              "internalType": "bytes32",
              "name": "module",
              "type": "bytes32"
            },
            {
              "internalType": "uint8",
              "name": "action",
              "type": "uint8"
            },
            {
              "internalType": "uint16",
              "name": "chainId",
              "type": "uint16"
            },
            {
              "internalType": "bytes32",
              "name": "newContract",
              "type": "bytes32"
            }
          ],
          "internalType": "struct NFTBridgeStructs.UpgradeContract",
          "name": "chain",
          "type": "tuple"
        }
      ],
      "stateMutability": "pure",
      "type": "function"
    },
    {
      "inputs": [
        {
          "internalType": "bytes",
          "name": "encodedVM",
          "type": "bytes"
        }
      ],
      "name": "registerChain",
      "outputs": [],
      "stateMutability": "nonpayable",
      "type": "function"
    },
    {
      "inputs": [
        {
          "internalType": "uint256",
          "name": "tokenId",
          "type": "uint256"
        }
      ],
      "name": "splCache",
      "outputs": [
        {
          "components": [
            {
              "internalType": "bytes32",
              "name": "name",
              "type": "bytes32"
            },
            {
              "internalType": "bytes32",
              "name": "symbol",
              "type": "bytes32"
            }
          ],
          "internalType": "struct NFTBridgeStorage.SPLCache",
          "name": "",
          "type": "tuple"
        }
      ],
      "stateMutability": "view",
      "type": "function"
    },
    {
      "inputs": [],
      "name": "tokenImplementation",
      "outputs": [
        {
          "internalType": "address",
          "name": "",
          "type": "address"
        }
      ],
      "stateMutability": "view",
      "type": "function"
    },
    {
      "inputs": [
        {
          "internalType": "bytes",
          "name": "encodedVM",
          "type": "bytes"
        }
      ],
      "name": "upgrade",
      "outputs": [],
      "stateMutability": "nonpayable",
      "type": "function"
    },
    {
      "inputs": [],
      "name": "wormhole",
      "outputs": [
        {
          "internalType": "contract IWormhole",
          "name": "",
          "type": "address"
        }
      ],
      "stateMutability": "view",
      "type": "function"
    },
    {
      "inputs": [
        {
          "internalType": "uint16",
          "name": "tokenChainId",
          "type": "uint16"
        },
        {
          "internalType": "bytes32",
          "name": "tokenAddress",
          "type": "bytes32"
        }
      ],
      "name": "wrappedAsset",
      "outputs": [
        {
          "internalType": "address",
          "name": "",
          "type": "address"
        }
      ],
      "stateMutability": "view",
      "type": "function"
    },
    {
      "inputs": [
        {
          "internalType": "address",
          "name": "token",
          "type": "address"
        },
        {
          "internalType": "uint256",
          "name": "tokenID",
          "type": "uint256"
        },
        {
          "internalType": "uint16",
          "name": "recipientChain",
          "type": "uint16"
        },
        {
          "internalType": "bytes32",
          "name": "recipient",
          "type": "bytes32"
        },
        {
          "internalType": "uint32",
          "name": "nonce",
          "type": "uint32"
        }
      ],
      "name": "transferNFT",
      "outputs": [
        {
          "internalType": "uint64",
          "name": "sequence",
          "type": "uint64"
        }
      ],
      "stateMutability": "payable",
      "type": "function"
    },
    {
      "inputs": [
        {
          "internalType": "bytes",
          "name": "encodedVm",
          "type": "bytes"
        }
      ],
      "name": "completeTransfer",
      "outputs": [],
      "stateMutability": "nonpayable",
      "type": "function"
    },
    {
      "inputs": [
        {
          "components": [
            {
              "internalType": "bytes32",
              "name": "tokenAddress",
              "type": "bytes32"
            },
            {
              "internalType": "uint16",
              "name": "tokenChain",
              "type": "uint16"
            },
            {
              "internalType": "bytes32",
              "name": "symbol",
              "type": "bytes32"
            },
            {
              "internalType": "bytes32",
              "name": "name",
              "type": "bytes32"
            },
            {
              "internalType": "uint256",
              "name": "tokenID",
              "type": "uint256"
            },
            {
              "internalType": "string",
              "name": "uri",
              "type": "string"
            },
            {
              "internalType": "bytes32",
              "name": "to",
              "type": "bytes32"
            },
            {
              "internalType": "uint16",
              "name": "toChain",
              "type": "uint16"
            }
          ],
          "internalType": "struct NFTBridgeStructs.Transfer",
          "name": "transfer",
          "type": "tuple"
        }
      ],
      "name": "encodeTransfer",
      "outputs": [
        {
          "internalType": "bytes",
          "name": "encoded",
          "type": "bytes"
        }
      ],
      "stateMutability": "pure",
      "type": "function"
    },
    {
      "inputs": [
        {
          "internalType": "bytes",
          "name": "encoded",
          "type": "bytes"
        }
      ],
      "name": "parseTransfer",
      "outputs": [
        {
          "components": [
            {
              "internalType": "bytes32",
              "name": "tokenAddress",
              "type": "bytes32"
            },
            {
              "internalType": "uint16",
              "name": "tokenChain",
              "type": "uint16"
            },
            {
              "internalType": "bytes32",
              "name": "symbol",
              "type": "bytes32"
            },
            {
              "internalType": "bytes32",
              "name": "name",
              "type": "bytes32"
            },
            {
              "internalType": "uint256",
              "name": "tokenID",
              "type": "uint256"
            },
            {
              "internalType": "string",
              "name": "uri",
              "type": "string"
            },
            {
              "internalType": "bytes32",
              "name": "to",
              "type": "bytes32"
            },
            {
              "internalType": "uint16",
              "name": "toChain",
              "type": "uint16"
            }
          ],
          "internalType": "struct NFTBridgeStructs.Transfer",
          "name": "transfer",
          "type": "tuple"
        }
      ],
      "stateMutability": "pure",
      "type": "function"
    },
    {
      "inputs": [
        {
          "internalType": "address",
          "name": "operator",
          "type": "address"
        },
        {
          "internalType": "address",
          "name": "",
          "type": "address"
        },
        {
          "internalType": "uint256",
          "name": "",
          "type": "uint256"
        },
        {
          "internalType": "bytes",
          "name": "",
          "type": "bytes"
        }
      ],
      "name": "onERC721Received",
      "outputs": [
        {
          "internalType": "bytes4",
          "name": "",
          "type": "bytes4"
        }
      ],
      "stateMutability": "view",
      "type": "function"
    }
  ],
  "bytecode": "0x608060405234801561001057600080fd5b50613a49806100206000396000f3fe608060405260043610620001435760003560e01c80639a8a059211620000b9578063c68785191162000078578063c687851914620004b7578063c96616e114620004dc578063d60b347f146200050c578063e6a853e01462000549578063fbe3c2cd146200057d578063fbeeacd9146200059e57600080fd5b80639a8a059214620003d9578063a5799f931462000403578063aa4efa5b1462000428578063ad66a5f1146200045c578063b172b22214620004a057600080fd5b80632b51137511620001065780632b51137514620002b85780632c3c02a414620002ec5780632f3a3d5d14620003205780633ca64826146200034057806384acd1bb14620003b957600080fd5b806301f532551462000148578063150b7a0214620001c65780631a2be4da14620002055780631ff1e2861462000253578063253946451462000291575b600080fd5b3480156200015557600080fd5b506200016d620001673660046200290a565b620005fe565b604051620001bd9190600060a0820190508251825260ff6020840151166020830152604083015161ffff808216604085015280606086015116606085015250506080830151608083015292915050565b60405180910390f35b348015620001d357600080fd5b50620001eb620001e5366004620027ba565b62000806565b6040516001600160e01b03199091168152602001620001bd565b3480156200021257600080fd5b5062000242620002243660046200279d565b6001600160a01b031660009081526008602052604090205460ff1690565b6040519015158152602001620001bd565b3480156200026057600080fd5b50620002786200027236600462002c00565b6200088a565b6040516001600160a01b039091168152602001620001bd565b3480156200029e57600080fd5b50620002b6620002b03660046200290a565b620008b6565b005b348015620002c557600080fd5b50620002dd620002d73660046200290a565b6200099a565b604051620001bd919062002e02565b348015620002f957600080fd5b50620002426200030b366004620028d8565b60009081526004602052604090205460ff1690565b3480156200032d57600080fd5b506001546001600160a01b031662000278565b3480156200034d57600080fd5b506200039d6200035f366004620028d8565b6040805180820190915260008082526020820152506000908152600a6020908152604091829020825180840190935280548352600101549082015290565b60408051825181526020928301519281019290925201620001bd565b348015620003c657600080fd5b506000546001600160a01b031662000278565b348015620003e657600080fd5b5060025461ffff165b60405161ffff9091168152602001620001bd565b3480156200041057600080fd5b50620002b6620004223660046200290a565b62000b70565b3480156200043557600080fd5b506200024262000447366004620028d8565b60009081526005602052604090205460ff1690565b3480156200046957600080fd5b50620004916200047b36600462002bc2565b61ffff1660009081526009602052604090205490565b604051908152602001620001bd565b348015620004ad57600080fd5b5060035462000491565b348015620004c457600080fd5b50620002b6620004d63660046200290a565b62000c76565b620004f3620004ed36600462002858565b62000c84565b6040516001600160401b039091168152602001620001bd565b3480156200051957600080fd5b50620002426200052b3660046200279d565b6001600160a01b031660009081526006602052604090205460ff1690565b3480156200055657600080fd5b506200056e620005683660046200298a565b62001343565b604051620001bd919062002d99565b3480156200058a57600080fd5b5060025462010000900461ffff16620003ef565b348015620005ab57600080fd5b50620005c3620005bd3660046200290a565b620013ff565b604051620001bd91908151815260208083015160ff169082015260408083015161ffff16908201526060918201519181019190915260800190565b6040805160a081018252600080825260208201819052918101829052606081018290526080810182905290620006358382620015d8565b82526200064460208262002f88565b8251909150684e465442726964676514620006b25760405162461bcd60e51b815260206004820152602360248201527f696e76616c6964205265676973746572436861696e3a2077726f6e67206d6f64604482015262756c6560e81b60648201526084015b60405180910390fd5b620006be83826200163a565b60ff166020830152620006d360018262002f88565b9050816020015160ff166001146200073a5760405162461bcd60e51b815260206004820152602360248201527f696e76616c6964205265676973746572436861696e3a2077726f6e672061637460448201526234b7b760e91b6064820152608401620006a9565b6200074683826200169a565b61ffff1660408301526200075c60028262002f88565b90506200076a83826200169a565b61ffff1660608301526200078060028262002f88565b90506200078e8382620015d8565b6080830152620007a060208262002f88565b905080835114620008005760405162461bcd60e51b815260206004820152602360248201527f696e76616c6964205265676973746572436861696e3a2077726f6e67206c656e6044820152620cee8d60eb1b6064820152608401620006a9565b50919050565b60006001600160a01b0386163014620008785760405162461bcd60e51b815260206004820152602d60248201527f63616e206f6e6c792062726964676520746f6b656e7320766961207472616e7360448201526c19995c939195081b595d1a1bd9609a1b6064820152608401620006a9565b50630a85bd0160e11b95945050505050565b61ffff91909116600090815260076020908152604080832093835292905220546001600160a01b031690565b6000806000620008c684620016fb565b925092509250818190620008ef5760405162461bcd60e51b8152600401620006a9919062002d99565b50620009158361014001516000908152600460205260409020805460ff19166001179055565b6000620009268460e00151620013ff565b90506200093660025461ffff1690565b61ffff16816040015161ffff1614620009835760405162461bcd60e51b815260206004820152600e60248201526d1ddc9bdb99c818da185a5b881a5960921b6044820152606401620006a9565b606081015162000993906200192a565b5050505050565b604080516101008101825260008082526020820181905291810182905260608082018390526080820183905260a082015260c0810182905260e081018290529080620009e784826200163a565b9050620009f660018362002f88565b91508060ff1660011462000a405760405162461bcd60e51b815260206004820152601060248201526f34b73b30b634b2102a3930b739b332b960811b6044820152606401620006a9565b62000a4c8483620015d8565b835262000a5b60208362002f88565b915062000a6984836200169a565b61ffff16602084015262000a7f60028362002f88565b915062000a8d8483620015d8565b604084015262000a9f60208362002f88565b915062000aad8483620015d8565b606084015262000abf60208362002f88565b915062000acd848362001a61565b608084015262000adf60208362002f88565b915062000aee60018362002f88565b915062000b1b82602284875162000b06919062002fa3565b62000b12919062002fa3565b86919062001aba565b60a08401528351915062000b3160028362002fa3565b915062000b3f84836200169a565b61ffff1660e084015262000b5560208362002fa3565b915062000b638483620015d8565b60c0840152509092915050565b600080600062000b8084620016fb565b92509250925081819062000ba95760405162461bcd60e51b8152600401620006a9919062002d99565b5062000bcf8361014001516000908152600460205260409020805460ff19166001179055565b600062000be08460e00151620005fe565b905062000bf060025461ffff1690565b61ffff16816040015161ffff16148062000c105750604081015161ffff16155b62000c515760405162461bcd60e51b815260206004820152601060248201526f1a5b9d985b1a590818da185a5b881a5960821b6044820152606401620006a9565b620009938160600151826080015161ffff909116600090815260096020526040902055565b62000c818162001bd3565b50565b600080600062000cac886001600160a01b031660009081526008602052604090205460ff1690565b1562000da657876001600160a01b0316639a8a05926040518163ffffffff1660e01b815260040160206040518083038186803b15801562000cec57600080fd5b505afa15801562000d01573d6000803e3d6000fd5b505050506040513d601f19601f8201168201806040525081019062000d27919062002be1565b9150876001600160a01b0316633d6c043b6040518163ffffffff1660e01b815260040160206040518083038186803b15801562000d6357600080fd5b505afa15801562000d78573d6000803e3d6000fd5b505050506040513d601f19601f8201168201806040525081019062000d9e9190620028f1565b905062000f70565b60025461ffff166040516301ffc9a760e01b81526380ac58cd60e01b60048201529092506001600160a01b038916915081906301ffc9a79060240160206040518083038186803b15801562000dfa57600080fd5b505afa15801562000e0f573d6000803e3d6000fd5b505050506040513d601f19601f8201168201806040525081019062000e359190620028bb565b62000e8d5760405162461bcd60e51b815260206004820152602160248201527f6d75737420737570706f7274207468652045524337323120696e7465726661636044820152606560f81b6064820152608401620006a9565b6040516301ffc9a760e01b8152635b5e139f60e01b60048201526001600160a01b038916906301ffc9a79060240160206040518083038186803b15801562000ed457600080fd5b505afa15801562000ee9573d6000803e3d6000fd5b505050506040513d601f19601f8201168201806040525081019062000f0f9190620028bb565b62000f705760405162461bcd60e51b815260206004820152602a60248201527f6d75737420737570706f727420746865204552433732312d4d657461646174616044820152691032bc3a32b739b4b7b760b11b6064820152608401620006a9565b60608060608461ffff16600114620010ca5760408051600481526024810182526020810180516001600160e01b03166395d89b4160e01b17905290516000916001600160a01b038e169162000fc6919062002c79565b600060405180830381855afa9150503d806000811462001003576040519150601f19603f3d011682016040523d82523d6000602084013e62001008565b606091505b5060408051600481526024810182526020810180516001600160e01b03166306fdde0360e01b1790529051919350600092506001600160a01b038f169162001051919062002c79565b600060405180830381855afa9150503d80600081146200108e576040519150601f19603f3d011682016040523d82523d6000602084013e62001093565b606091505b5091505081806020019051810190620010ad919062002954565b945080806020019051810190620010c5919062002954565b935050505b60008b6001600160a01b03168b604051602401620010ea91815260200190565b60408051601f198184030181529181526020820180516001600160e01b031663c87b56dd60e01b1790525162001121919062002c79565b600060405180830381855afa9150503d80600081146200115e576040519150601f19603f3d011682016040523d82523d6000602084013e62001163565b606091505b50915050808060200190518101906200117d919062002954565b9150506000808661ffff1660011415620011fa57604080518082018252600080825260209182018190528e8152600a82528281208351808501909452805484526001015491830191909152906020810151815190945092509050620011f38d6000908152600a6020526040812081815560010155565b5062001207565b5050602083810151908301515b60025461ffff888116911614156200128757604051632142170760e11b8152336004820152306024820152604481018d90526001600160a01b038e16906342842e0e90606401600060405180830381600087803b1580156200126857600080fd5b505af11580156200127d573d6000803e3d6000fd5b50505050620012e4565b604051630852cd8d60e31b8152600481018d90526001600160a01b038e16906342966c6890602401600060405180830381600087803b158015620012ca57600080fd5b505af1158015620012df573d6000803e3d6000fd5b505050505b620013326040518061010001604052808881526020018961ffff1681526020018481526020018381526020018e81526020018581526020018c81526020018d61ffff16815250348b62001fb7565b9d9c50505050505050505050505050565b606060c88260a00151511115620013a85760405162461bcd60e51b815260206004820152602260248201527f746f6b656e555249206d757374206e6f74206578636565642032303020627974604482015261657360f01b6064820152608401620006a9565b81516020808401516040808601516060870151608088015160a0890151805160c08b015160e08c01519651620013e99a60019a909998939493910162002cca565b6040516020818303038152906040529050919050565b6040805160808101825260008082526020820181905291810182905260608101829052906200142f8382620015d8565b82526200143e60208262002f88565b8251909150684e465442726964676514620014aa5760405162461bcd60e51b815260206004820152602560248201527f696e76616c69642055706772616465436f6e74726163743a2077726f6e67206d6044820152646f64756c6560d81b6064820152608401620006a9565b620014b683826200163a565b60ff166020830152620014cb60018262002f88565b9050816020015160ff16600214620015345760405162461bcd60e51b815260206004820152602560248201527f696e76616c69642055706772616465436f6e74726163743a2077726f6e67206160448201526431ba34b7b760d91b6064820152608401620006a9565b6200154083826200169a565b61ffff1660408301526200155660028262002f88565b9050620015648382620015d8565b60608301526200157660208262002f88565b905080835114620008005760405162461bcd60e51b815260206004820152602560248201527f696e76616c69642055706772616465436f6e74726163743a2077726f6e67206c6044820152640cadccee8d60db1b6064820152608401620006a9565b6000620015e782602062002f88565b83511015620016315760405162461bcd60e51b8152602060048201526015602482015274746f427974657333325f6f75744f66426f756e647360581b6044820152606401620006a9565b50016020015190565b60006200164982600162002f88565b83511015620016915760405162461bcd60e51b8152602060048201526013602482015272746f55696e74385f6f75744f66426f756e647360681b6044820152606401620006a9565b50016001015190565b6000620016a982600262002f88565b83511015620016f25760405162461bcd60e51b8152602060048201526014602482015273746f55696e7431365f6f75744f66426f756e647360601b6044820152606401620006a9565b50016002015190565b604080516101608101825260008082526020820181905291810182905260608082018390526080820183905260a0820183905260c0820183905260e0820181905261010082018390526101208201526101408101919091526000606060008060006200176f6000546001600160a01b031690565b6001600160a01b031663c0fd8bde886040518263ffffffff1660e01b81526004016200179c919062002d99565b60006040518083038186803b158015620017b557600080fd5b505afa158015620017ca573d6000803e3d6000fd5b505050506040513d6000823e601f3d908101601f19168201604052620017f4919081019062002a53565b925092509250816200180d579194509250905062001923565b60025462010000900461ffff1661ffff16836060015161ffff16146200186b5750506040805180820190915260168152753bb937b7339033b7bb32b93730b731b29031b430b4b760511b602082015290935060009250905062001923565b600354836080015114620018be57505060408051808201909152601981527f77726f6e6720676f7665726e616e636520636f6e747261637400000000000000602082015290935060009250905062001923565b61014083015160009081526004602052604090205460ff16156200190857826000604051806060016040528060228152602001620039f26022913995509550955050505062001923565b50506040805160208101909152600081529093506001925090505b9193909250565b60006200195e7f360894a13ba1a3210667c828492db98dca3e2076cc3735a920a3ca505d382bbc546001600160a01b031690565b90506200196b826200206c565b60408051600481526024810182526020810180516001600160e01b031663204a7f0760e21b179052905160009182916001600160a01b03861691620019b09162002c79565b600060405180830381855af49150503d8060008114620019ed576040519150601f19603f3d011682016040523d82523d6000602084013e620019f2565b606091505b509150915081819062001a1a5760405162461bcd60e51b8152600401620006a9919062002d99565b50836001600160a01b0316836001600160a01b03167f2e4cc16c100f0b55e2df82ab0b1a7e294aa9cbd01b48fbaf622683fbc0507a4960405160405180910390a350505050565b600062001a7082602062002f88565b83511015620016315760405162461bcd60e51b8152602060048201526015602482015274746f55696e743235365f6f75744f66426f756e647360581b6044820152606401620006a9565b60608162001aca81601f62002f88565b101562001b0b5760405162461bcd60e51b815260206004820152600e60248201526d736c6963655f6f766572666c6f7760901b6044820152606401620006a9565b62001b17828462002f88565b8451101562001b5d5760405162461bcd60e51b8152602060048201526011602482015270736c6963655f6f75744f66426f756e647360781b6044820152606401620006a9565b60608215801562001b7e576040519150600082526020820160405262001bca565b6040519150601f8416801560200281840101858101878315602002848b0101015b8183101562001bb957805183526020928301920162001b9f565b5050858452601f01601f1916604052505b50949350505050565b600080600062001beb6000546001600160a01b031690565b6001600160a01b031663c0fd8bde856040518263ffffffff1660e01b815260040162001c18919062002d99565b60006040518083038186803b15801562001c3157600080fd5b505afa15801562001c46573d6000803e3d6000fd5b505050506040513d6000823e601f3d908101601f1916820160405262001c70919081019062002a53565b92509250925081819062001c995760405162461bcd60e51b8152600401620006a9919062002d99565b5062001ca583620020ae565b62001ce55760405162461bcd60e51b815260206004820152600f60248201526e34b73b30b634b21032b6b4ba3a32b960891b6044820152606401620006a9565b600062001cf68460e001516200099a565b905062001d1784610140015160009081526005602052604090205460ff1690565b1562001d665760405162461bcd60e51b815260206004820152601a60248201527f7472616e7366657220616c726561647920636f6d706c657465640000000000006044820152606401620006a9565b62001d8b8461014001516000908152600560205260409020805460ff19166001179055565b60025461ffff1661ffff168160e0015161ffff161462001de55760405162461bcd60e51b815260206004820152601460248201527334b73b30b634b2103a30b933b2ba1031b430b4b760611b6044820152606401620006a9565b600062001df560025461ffff1690565b61ffff16826020015161ffff16141562001e125750805162001e5d565b600062001e28836020015184600001516200088a565b90506001600160a01b03811662001e5a5762001e578360200151846000015185606001518660400151620020eb565b90505b90505b60c082015160025461ffff1661ffff16836020015161ffff161462001f3c57826020015161ffff166001141562001ec8576080830151604080518082018252606086015181528186015160208083019182526000948552600a90529190922091518255516001909101555b608083015160a08401516040516334ff261960e21b81526001600160a01b0385169263d3fc98649262001f02928692919060040162002d70565b600060405180830381600087803b15801562001f1d57600080fd5b505af115801562001f32573d6000803e3d6000fd5b5050505062001fae565b6080830151604051632142170760e11b81523060048201526001600160a01b0383811660248301526044820192909252908316906342842e0e90606401600060405180830381600087803b15801562001f9457600080fd5b505af115801562001fa9573d6000803e3d6000fd5b505050505b50505050505050565b60008062001fc58562001343565b905062001fda6000546001600160a01b031690565b6001600160a01b031663b19a437e858584600f6040518563ffffffff1660e01b81526004016200200d9392919062002e80565b6020604051808303818588803b1580156200202757600080fd5b505af11580156200203c573d6000803e3d6000fd5b50505050506040513d601f19601f8201168201806040525081019062002063919062002c2e565b95945050505050565b620020778162002398565b6040516001600160a01b038216907fbc7cd75a20ee27fd9adebab32041f755214dbc6bffa90cc0225b39da2e5c2d3b90600090a250565b60008160800151620020d4836060015161ffff1660009081526009602052604090205490565b1415620020e357506001919050565b506000919050565b6000620020fb60025461ffff1690565b61ffff168561ffff161415620021655760405162461bcd60e51b815260206004820152602860248201527f63616e206f6e6c79207772617020746f6b656e732066726f6d20666f726569676044820152676e20636861696e7360c01b6064820152608401620006a9565b60006200217386866200088a565b6001600160a01b031614620021cb5760405162461bcd60e51b815260206004820152601c60248201527f7772617070656420617373657420616c726561647920657869737473000000006044820152606401620006a9565b8461ffff16600114156200220d577f576f726d686f6c65204272696467656420536f6c616e612d4e4654000000000092506915d3d49354d41313919560b21b91505b6000627ce50b60e31b62002221856200243f565b6200222c856200243f565b3089896040516024016200224595949392919062002dae565b60408051601f19818403018152918152602080830180516001600160e01b03166001600160e01b031990951694909417909352519092506000916200228f91309185910162002d4a565b6040516020818303038152906040529050600060405180602001620022b4906200257a565b601f1982820381018352601f909101166040819052620022da9190849060200162002c97565b60408051601f19818403018152908290526001600160f01b031960f08b901b166020830152602282018990529150600090604201604051602081830303815290604052805190602001209050808251602084016000f59450843b6200233e57600080fd5b61ffff891660009081526007602090815260408083208b8452825280832080546001600160a01b0319166001600160a01b038a16908117909155835260089091529020805460ff1916600117905550505050949350505050565b803b620023fe5760405162461bcd60e51b815260206004820152602d60248201527f455243313936373a206e657720696d706c656d656e746174696f6e206973206e60448201526c1bdd08184818dbdb9d1c9858dd609a1b6064820152608401620006a9565b7f360894a13ba1a3210667c828492db98dca3e2076cc3735a920a3ca505d382bbc80546001600160a01b0319166001600160a01b0392909216919091179055565b606060005b6020811080156200248257508281602081106200247157634e487b7160e01b600052603260045260246000fd5b1a60f81b6001600160f81b03191615155b156200249d5780620024948162002ff0565b91505062002444565b6000816001600160401b03811115620024c657634e487b7160e01b600052604160045260246000fd5b6040519080825280601f01601f191660200182016040528015620024f1576020820181803683370190505b50905060005b8281101562002572578481602081106200252157634e487b7160e01b600052603260045260246000fd5b1a60f81b8282815181106200254657634e487b7160e01b600052603260045260246000fd5b60200101906001600160f81b031916908160001a90535080620025698162002ff0565b915050620024f7565b509392505050565b610993806200305f83390190565b60006200259f620025998462002f5e565b62002f2b565b9050828152838383011115620025b457600080fd5b828260208301376000602084830101529392505050565b80356001600160a01b0381168114620025e357600080fd5b919050565b600082601f830112620025f9578081fd5b815160206001600160401b0382111562002617576200261762003024565b62002627818360051b0162002f2b565b80838252828201915082860187848660071b890101111562002647578586fd5b855b85811015620026b357608080838b03121562002663578788fd5b6200266d62002eb4565b8351815286840151878201526040620026888186016200278b565b9082015260606200269b8582016200278b565b90820152855293850193919091019060010162002649565b5090979650505050505050565b80518015158114620025e357600080fd5b600082601f830112620026e2578081fd5b8151620026f3620025998262002f5e565b81815284602083860101111562002708578283fd5b6200271b82602083016020870162002fbd565b949350505050565b600082601f83011262002734578081fd5b620027458383356020850162002588565b9392505050565b8035620025e3816200303a565b8051620025e3816200303a565b8051620025e3816200304b565b80516001600160401b0381168114620025e357600080fd5b805160ff81168114620025e357600080fd5b600060208284031215620027af578081fd5b6200274582620025cb565b600080600080600060808688031215620027d2578081fd5b620027dd86620025cb565b9450620027ed60208701620025cb565b93506040860135925060608601356001600160401b038082111562002810578283fd5b818801915088601f83011262002824578283fd5b81358181111562002833578384fd5b89602082850101111562002845578384fd5b9699959850939650602001949392505050565b600080600080600060a0868803121562002870578283fd5b6200287b86620025cb565b945060208601359350604086013562002894816200303a565b9250606086013591506080860135620028ad816200304b565b809150509295509295909350565b600060208284031215620028cd578081fd5b6200274582620026c0565b600060208284031215620028ea578081fd5b5035919050565b60006020828403121562002903578081fd5b5051919050565b6000602082840312156200291c578081fd5b81356001600160401b0381111562002932578182fd5b8201601f8101841362002943578182fd5b6200271b8482356020840162002588565b60006020828403121562002966578081fd5b81516001600160401b038111156200297c578182fd5b6200271b84828501620026d1565b6000602082840312156200299c578081fd5b81356001600160401b0380821115620029b3578283fd5b908301906101008286031215620029c8578283fd5b620029d262002edf565b82358152620029e4602084016200274c565b602082015260408301356040820152606083013560608201526080830135608082015260a08301358281111562002a19578485fd5b62002a278782860162002723565b60a08301525060c083013560c082015262002a4560e084016200274c565b60e082015295945050505050565b60008060006060848603121562002a68578081fd5b83516001600160401b038082111562002a7f578283fd5b90850190610160828803121562002a94578283fd5b62002a9e62002f05565b62002aa9836200278b565b815262002ab96020840162002766565b602082015262002acc6040840162002766565b604082015262002adf6060840162002759565b60608201526080830151608082015262002afc60a0840162002773565b60a082015262002b0f60c084016200278b565b60c082015260e08301518281111562002b26578485fd5b62002b3489828601620026d1565b60e08301525061010062002b4a81850162002766565b90820152610120838101518381111562002b62578586fd5b62002b708a828701620025e8565b91830191909152506101408381015190820152945062002b9360208701620026c0565b9350604086015191508082111562002ba9578283fd5b5062002bb886828701620026d1565b9150509250925092565b60006020828403121562002bd4578081fd5b813562002745816200303a565b60006020828403121562002bf3578081fd5b815162002745816200303a565b6000806040838503121562002c13578182fd5b823562002c20816200303a565b946020939093013593505050565b60006020828403121562002c40578081fd5b620027458262002773565b6000815180845262002c6581602086016020860162002fbd565b601f01601f19169290920160200192915050565b6000825162002c8d81846020870162002fbd565b9190910192915050565b6000835162002cab81846020880162002fbd565b83519083019062002cc181836020880162002fbd565b01949350505050565b600060ff60f81b808d60f81b1683528b600184015261ffff60f01b808c60f01b1660218501528a6023850152896043850152886063850152818860f81b1660838501528651915062002d24826084860160208a0162002fbd565b920160848101949094525060f09190911b1660a482015260a60198975050505050505050565b6001600160a01b03831681526040602082018190526000906200271b9083018462002c4b565b60018060a01b038416815282602082015260606040820152600062002063606083018462002c4b565b60208152600062002745602083018462002c4b565b60a08152600062002dc360a083018862002c4b565b828103602084015262002dd7818862002c4b565b6001600160a01b03969096166040840152505061ffff92909216606083015260809091015292915050565b60208152815160208201526000602083015161ffff80821660408501526040850151606085015260608501516080850152608085015160a085015260a085015191506101008060c086015262002e5d61012086018462002c4b565b925060c086015160e08601528160e0870151168186015250508091505092915050565b63ffffffff8416815260606020820152600062002ea1606083018562002c4b565b905060ff83166040830152949350505050565b604051608081016001600160401b038111828210171562002ed95762002ed962003024565b60405290565b60405161010081016001600160401b038111828210171562002ed95762002ed962003024565b60405161016081016001600160401b038111828210171562002ed95762002ed962003024565b604051601f8201601f191681016001600160401b038111828210171562002f565762002f5662003024565b604052919050565b60006001600160401b0382111562002f7a5762002f7a62003024565b50601f01601f191660200190565b6000821982111562002f9e5762002f9e6200300e565b500190565b60008282101562002fb85762002fb86200300e565b500390565b60005b8381101562002fda57818101518382015260200162002fc0565b8381111562002fea576000848401525b50505050565b60006000198214156200300757620030076200300e565b5060010190565b634e487b7160e01b600052601160045260246000fd5b634e487b7160e01b600052604160045260246000fd5b61ffff8116811462000c8157600080fd5b63ffffffff8116811462000c8157600080fdfe608060405234801561001057600080fd5b5060405161099338038061099383398101604081905261002f9161048e565b818161005c60017fa3f0ad74e5423aebfd80d3ef4346578335a9a72aeaee59ff6cb3582b35133d51610599565b60008051602061094c8339815191521461008657634e487b7160e01b600052600160045260246000fd5b6100928282600061009b565b505050506105fe565b6100a483610175565b6040516001600160a01b038416907f1cf3b03a6cf19fa2baba4df148e9dcabedea7f8a5c07840e207e5c089be95d3e90600090a26000825111806100e55750805b156101705761016e836001600160a01b0316635c60da1b6040518163ffffffff1660e01b815260040160206040518083038186803b15801561012657600080fd5b505afa15801561013a573d6000803e3d6000fd5b505050506040513d601f19601f8201168201806040525081019061015e9190610474565b8361031560201b6100291760201c565b505b505050565b6101888161034160201b6100551760201c565b6101e75760405162461bcd60e51b815260206004820152602560248201527f455243313936373a206e657720626561636f6e206973206e6f74206120636f6e6044820152641d1c9858dd60da1b60648201526084015b60405180910390fd5b61026a816001600160a01b0316635c60da1b6040518163ffffffff1660e01b815260040160206040518083038186803b15801561022357600080fd5b505afa158015610237573d6000803e3d6000fd5b505050506040513d601f19601f8201168201806040525081019061025b9190610474565b61034160201b6100551760201c565b6102cf5760405162461bcd60e51b815260206004820152603060248201527f455243313936373a20626561636f6e20696d706c656d656e746174696f6e206960448201526f1cc81b9bdd08184818dbdb9d1c9858dd60821b60648201526084016101de565b806102f460008051602061094c83398151915260001b61034760201b61005b1760201c565b80546001600160a01b0319166001600160a01b039290921691909117905550565b606061033a838360405180606001604052806027815260200161096c6027913961034a565b9392505050565b3b151590565b90565b6060833b6103a95760405162461bcd60e51b815260206004820152602660248201527f416464726573733a2064656c65676174652063616c6c20746f206e6f6e2d636f6044820152651b9d1c9858dd60d21b60648201526084016101de565b600080856001600160a01b0316856040516103c4919061054a565b600060405180830381855af49150503d80600081146103ff576040519150601f19603f3d011682016040523d82523d6000602084013e610404565b606091505b50909250905061041582828661041f565b9695505050505050565b6060831561042e57508161033a565b82511561043e5782518084602001fd5b8160405162461bcd60e51b81526004016101de9190610566565b80516001600160a01b038116811461046f57600080fd5b919050565b600060208284031215610485578081fd5b61033a82610458565b600080604083850312156104a0578081fd5b6104a983610458565b60208401519092506001600160401b03808211156104c5578283fd5b818501915085601f8301126104d8578283fd5b8151818111156104ea576104ea6105e8565b604051601f8201601f19908116603f01168101908382118183101715610512576105126105e8565b8160405282815288602084870101111561052a578586fd5b61053b8360208301602088016105bc565b80955050505050509250929050565b6000825161055c8184602087016105bc565b9190910192915050565b60208152600082518060208401526105858160408501602087016105bc565b601f01601f19169190910160400192915050565b6000828210156105b757634e487b7160e01b81526011600452602481fd5b500390565b60005b838110156105d75781810151838201526020016105bf565b8381111561016e5750506000910152565b634e487b7160e01b600052604160045260246000fd5b61033f8061060d6000396000f3fe60806040523661001357610011610017565b005b6100115b61002761002261005e565b610106565b565b606061004e83836040518060600160405280602781526020016102e36027913961012a565b9392505050565b3b151590565b90565b60006100917fa3f0ad74e5423aebfd80d3ef4346578335a9a72aeaee59ff6cb3582b35133d50546001600160a01b031690565b6001600160a01b0316635c60da1b6040518163ffffffff1660e01b815260040160206040518083038186803b1580156100c957600080fd5b505afa1580156100dd573d6000803e3d6000fd5b505050506040513d601f19601f82011682018060405250810190610101919061023c565b905090565b3660008037600080366000845af43d6000803e808015610125573d6000f35b3d6000fd5b6060833b61018e5760405162461bcd60e51b815260206004820152602660248201527f416464726573733a2064656c65676174652063616c6c20746f206e6f6e2d636f6044820152651b9d1c9858dd60d21b60648201526084015b60405180910390fd5b600080856001600160a01b0316856040516101a99190610263565b600060405180830381855af49150503d80600081146101e4576040519150601f19603f3d011682016040523d82523d6000602084013e6101e9565b606091505b50915091506101f9828286610203565b9695505050505050565b6060831561021257508161004e565b8251156102225782518084602001fd5b8160405162461bcd60e51b8152600401610185919061027f565b60006020828403121561024d578081fd5b81516001600160a01b038116811461004e578182fd5b600082516102758184602087016102b2565b9190910192915050565b602081526000825180602084015261029e8160408501602087016102b2565b601f01601f19169190910160400192915050565b60005b838110156102cd5781810151838201526020016102b5565b838111156102dc576000848401525b5050505056fe416464726573733a206c6f772d6c6576656c2064656c65676174652063616c6c206661696c6564a2646970667358221220cf7580a65aef4945588e32aadd1a40f0c362e7214c260033ce3c79be91b67f3a64736f6c63430008040033a3f0ad74e5423aebfd80d3ef4346578335a9a72aeaee59ff6cb3582b35133d50416464726573733a206c6f772d6c6576656c2064656c65676174652063616c6c206661696c6564676f7665726e616e636520616374696f6e20616c726561647920636f6e73756d6564a26469706673582212206d52fd55366ad5b043dc419772300b5e33cf42ced6454253b8304b97acfc8e0664736f6c63430008040033",
  "immutableReferences": {},
  "source": "// contracts/Bridge.sol\n// SPDX-License-Identifier: Apache 2\n\npragma solidity ^0.8.0;\n\nimport \"@openzeppelin/contracts/token/ERC721/IERC721.sol\";\nimport \"@openzeppelin/contracts/token/ERC721/IERC721Receiver.sol\";\n\nimport \"../libraries/external/BytesLib.sol\";\n\nimport \"./NFTBridgeGetters.sol\";\nimport \"./NFTBridgeSetters.sol\";\nimport \"./NFTBridgeStructs.sol\";\nimport \"./NFTBridgeGovernance.sol\";\n\nimport \"./token/NFT.sol\";\nimport \"./token/NFTImplementation.sol\";\n\ncontract NFTBridge is NFTBridgeGovernance {\n    using BytesLib for bytes;\n\n    // Initiate a Transfer\n    function transferNFT(address token, uint256 tokenID, uint16 recipientChain, bytes32 recipient, uint32 nonce) public payable returns (uint64 sequence) {\n        // determine token parameters\n        uint16 tokenChain;\n        bytes32 tokenAddress;\n        if (isWrappedAsset(token)) {\n            tokenChain = NFTImplementation(token).chainId();\n            tokenAddress = NFTImplementation(token).nativeContract();\n        } else {\n            tokenChain = chainId();\n            tokenAddress = bytes32(uint256(uint160(token)));\n            // Verify that the correct interfaces are implemented\n            require(ERC165(token).supportsInterface(type(IERC721).interfaceId), \"must support the ERC721 interface\");\n            require(ERC165(token).supportsInterface(type(IERC721Metadata).interfaceId), \"must support the ERC721-Metadata extension\");\n        }\n\n        string memory symbolString;\n        string memory nameString;\n        string memory uriString;\n        {\n            if (tokenChain != 1) { // SPL tokens use cache\n                (,bytes memory queriedSymbol) = token.staticcall(abi.encodeWithSignature(\"symbol()\"));\n                (,bytes memory queriedName) = token.staticcall(abi.encodeWithSignature(\"name()\"));\n                symbolString = abi.decode(queriedSymbol, (string));\n                nameString = abi.decode(queriedName, (string));\n            }\n\n            (,bytes memory queriedURI) = token.staticcall(abi.encodeWithSignature(\"tokenURI(uint256)\", tokenID));\n            uriString = abi.decode(queriedURI, (string));\n        }\n\n        bytes32 symbol;\n        bytes32 name;\n        if (tokenChain == 1) {\n            // use cached SPL token info, as the contracts uses unified values\n            NFTBridgeStorage.SPLCache memory cache = splCache(tokenID);\n            symbol = cache.symbol;\n            name = cache.name;\n            clearSplCache(tokenID);\n        } else {\n            assembly {\n            // first 32 bytes hold string length\n                symbol := mload(add(symbolString, 32))\n                name := mload(add(nameString, 32))\n            }\n        }\n\n        if (tokenChain == chainId()) {\n            IERC721(token).safeTransferFrom(msg.sender, address(this), tokenID);\n        } else {\n            NFTImplementation(token).burn(tokenID);\n        }\n\n        sequence = logTransfer(NFTBridgeStructs.Transfer({\n            tokenAddress : tokenAddress,\n            tokenChain   : tokenChain,\n            name         : name,\n            symbol       : symbol,\n            tokenID      : tokenID,\n            uri          : uriString,\n            to           : recipient,\n            toChain      : recipientChain\n        }), msg.value, nonce);\n    }\n\n    function logTransfer(NFTBridgeStructs.Transfer memory transfer, uint256 callValue, uint32 nonce) internal returns (uint64 sequence) {\n        bytes memory encoded = encodeTransfer(transfer);\n\n        sequence = wormhole().publishMessage{\n            value : callValue\n        }(nonce, encoded, 15);\n    }\n\n    function completeTransfer(bytes memory encodedVm) public {\n        _completeTransfer(encodedVm);\n    }\n\n    // Execute a Transfer message\n    function _completeTransfer(bytes memory encodedVm) internal {\n        (IWormhole.VM memory vm, bool valid, string memory reason) = wormhole().parseAndVerifyVM(encodedVm);\n\n        require(valid, reason);\n        require(verifyBridgeVM(vm), \"invalid emitter\");\n\n        NFTBridgeStructs.Transfer memory transfer = parseTransfer(vm.payload);\n\n        require(!isTransferCompleted(vm.hash), \"transfer already completed\");\n        setTransferCompleted(vm.hash);\n\n        require(transfer.toChain == chainId(), \"invalid target chain\");\n\n        IERC721 transferToken;\n        if (transfer.tokenChain == chainId()) {\n            transferToken = IERC721(address(uint160(uint256(transfer.tokenAddress))));\n        } else {\n            address wrapped = wrappedAsset(transfer.tokenChain, transfer.tokenAddress);\n\n            // If the wrapped asset does not exist yet, create it\n            if (wrapped == address(0)) {\n                wrapped = _createWrapped(transfer.tokenChain, transfer.tokenAddress, transfer.name, transfer.symbol);\n            }\n\n            transferToken = IERC721(wrapped);\n        }\n\n        // transfer bridged NFT to recipient\n        address transferRecipient = address(uint160(uint256(transfer.to)));\n\n        if (transfer.tokenChain != chainId()) {\n            if (transfer.tokenChain == 1) {\n                // Cache SPL token info which otherwise would get lost\n                setSplCache(transfer.tokenID, NFTBridgeStorage.SPLCache({\n                    name : transfer.name,\n                    symbol : transfer.symbol\n                }));\n            }\n\n            // mint wrapped asset\n            NFTImplementation(address(transferToken)).mint(transferRecipient, transfer.tokenID, transfer.uri);\n        } else {\n            transferToken.safeTransferFrom(address(this), transferRecipient, transfer.tokenID);\n        }\n    }\n\n    // Creates a wrapped asset using AssetMeta\n    function _createWrapped(uint16 tokenChain, bytes32 tokenAddress, bytes32 name, bytes32 symbol) internal returns (address token) {\n        require(tokenChain != chainId(), \"can only wrap tokens from foreign chains\");\n        require(wrappedAsset(tokenChain, tokenAddress) == address(0), \"wrapped asset already exists\");\n\n        // SPL NFTs all use the same NFT contract, so unify the name\n        if (tokenChain == 1) {\n            // \"Wormhole Bridged Solana-NFT\" - right-padded\n            name =   0x576f726d686f6c65204272696467656420536f6c616e612d4e46540000000000;\n            // \"WORMSPLNFT\" - right-padded\n            symbol = 0x574f524d53504c4e465400000000000000000000000000000000000000000000;\n        }\n\n        // initialize the NFTImplementation\n        bytes memory initialisationArgs = abi.encodeWithSelector(\n            NFTImplementation.initialize.selector,\n            bytes32ToString(name),\n            bytes32ToString(symbol),\n\n            address(this),\n\n            tokenChain,\n            tokenAddress\n        );\n\n        // initialize the BeaconProxy\n        bytes memory constructorArgs = abi.encode(address(this), initialisationArgs);\n\n        // deployment code\n        bytes memory bytecode = abi.encodePacked(type(BridgeNFT).creationCode, constructorArgs);\n\n        bytes32 salt = keccak256(abi.encodePacked(tokenChain, tokenAddress));\n\n        assembly {\n            token := create2(0, add(bytecode, 0x20), mload(bytecode), salt)\n\n            if iszero(extcodesize(token)) {\n                revert(0, 0)\n            }\n        }\n\n        setWrappedAsset(tokenChain, tokenAddress, token);\n    }\n\n    function verifyBridgeVM(IWormhole.VM memory vm) internal view returns (bool){\n        if (bridgeContracts(vm.emitterChainId) == vm.emitterAddress) {\n            return true;\n        }\n\n        return false;\n    }\n\n    function encodeTransfer(NFTBridgeStructs.Transfer memory transfer) public pure returns (bytes memory encoded) {\n        // There is a global limit on 200 bytes of tokenURI in Wormhole due to Solana\n        require(bytes(transfer.uri).length <= 200, \"tokenURI must not exceed 200 bytes\");\n\n        encoded = abi.encodePacked(\n            uint8(1),\n            transfer.tokenAddress,\n            transfer.tokenChain,\n            transfer.symbol,\n            transfer.name,\n            transfer.tokenID,\n            uint8(bytes(transfer.uri).length),\n            transfer.uri,\n            transfer.to,\n            transfer.toChain\n        );\n    }\n\n    function parseTransfer(bytes memory encoded) public pure returns (NFTBridgeStructs.Transfer memory transfer) {\n        uint index = 0;\n\n        uint8 payloadID = encoded.toUint8(index);\n        index += 1;\n\n        require(payloadID == 1, \"invalid Transfer\");\n\n        transfer.tokenAddress = encoded.toBytes32(index);\n        index += 32;\n\n        transfer.tokenChain = encoded.toUint16(index);\n        index += 2;\n\n        transfer.symbol = encoded.toBytes32(index);\n        index += 32;\n\n        transfer.name = encoded.toBytes32(index);\n        index += 32;\n\n        transfer.tokenID = encoded.toUint256(index);\n        index += 32;\n        \n        // Ignore length due to malformatted payload\n        index += 1;\n        transfer.uri = string(encoded.slice(index, encoded.length - index - 34));\n\n        // From here we read backwards due malformatted package\n        index = encoded.length;\n\n        index -= 2;\n        transfer.toChain = encoded.toUint16(index);\n\n        index -= 32;\n        transfer.to = encoded.toBytes32(index);\n\n        //require(encoded.length == index, \"invalid Transfer\");\n    }\n\n    function onERC721Received(\n        address operator,\n        address,\n        uint256,\n        bytes calldata\n    ) external view returns (bytes4){\n        require(operator == address(this), \"can only bridge tokens via transferNFT method\");\n        return type(IERC721Receiver).interfaceId;\n    }\n\n    function bytes32ToString(bytes32 input) internal pure returns (string memory) {\n        uint256 i;\n        while (i < 32 && input[i] != 0) {\n            i++;\n        }\n        bytes memory array = new bytes(i);\n        for (uint c = 0; c < i; c++) {\n            array[c] = input[c];\n        }\n        return string(array);\n    }\n}\n",
  "sourcePath": "/Users/nguyenthithuthao/Downloads/Documents/wormhole-kip7/contracts/nft/NFTBridge.sol",
  "compiler": {
    "name": "solc",
    "version": "0.8.4+commit.c7e474f2.Emscripten.clang"
  },
  "schemaVersion": "3.4.1",
  "updatedAt": "2022-01-26T09:33:50.637Z",
  "devdoc": {
    "kind": "dev",
    "methods": {},
    "version": 1
  },
  "userdoc": {
    "kind": "user",
    "methods": {},
    "version": 1
  }
}