{
  "contractName": "PythSetup",
  "abi": [
    {
      "anonymous": false,
      "inputs": [
        {
          "indexed": false,
          "internalType": "address",
          "name": "previousAdmin",
          "type": "address"
        },
        {
          "indexed": false,
          "internalType": "address",
          "name": "newAdmin",
          "type": "address"
        }
      ],
      "name": "AdminChanged",
      "type": "event"
    },
    {
      "anonymous": false,
      "inputs": [
        {
          "indexed": true,
          "internalType": "address",
          "name": "beacon",
          "type": "address"
        }
      ],
      "name": "BeaconUpgraded",
      "type": "event"
    },
    {
      "anonymous": false,
      "inputs": [
        {
          "indexed": true,
          "internalType": "address",
          "name": "implementation",
          "type": "address"
        }
      ],
      "name": "Upgraded",
      "type": "event"
    },
    {
      "inputs": [
        {
          "internalType": "address",
          "name": "implementation",
          "type": "address"
        },
        {
          "internalType": "uint16",
          "name": "chainId",
          "type": "uint16"
        },
        {
          "internalType": "address",
          "name": "wormhole",
          "type": "address"
        },
        {
          "internalType": "uint16",
          "name": "governanceChainId",
          "type": "uint16"
        },
        {
          "internalType": "bytes32",
          "name": "governanceContract",
          "type": "bytes32"
        },
        {
          "internalType": "uint16",
          "name": "pyth2WormholeChainId",
          "type": "uint16"
        },
        {
          "internalType": "bytes32",
          "name": "pyth2WormholeContract",
          "type": "bytes32"
        }
      ],
      "name": "setup",
      "outputs": [],
      "stateMutability": "nonpayable",
      "type": "function"
    }
  ],
  "bytecode": "0x608060405234801561001057600080fd5b50610276806100206000396000f3fe608060405234801561001057600080fd5b506004361061002b5760003560e01c8063129acf8d14610030575b600080fd5b61004361003e3660046101c9565b610045565b005b60018054600080546001600160a01b0389166001600160a01b031990911617905561ffff868116620100000263ffffffff199092169089161717905560028390556003805461ffff191661ffff84161790556100a081600455565b6100a9876100b2565b50505050505050565b6100bb816100f2565b6040516001600160a01b038216907fbc7cd75a20ee27fd9adebab32041f755214dbc6bffa90cc0225b39da2e5c2d3b90600090a250565b803b61015a5760405162461bcd60e51b815260206004820152602d60248201527f455243313936373a206e657720696d706c656d656e746174696f6e206973206e60448201526c1bdd08184818dbdb9d1c9858dd609a1b606482015260840160405180910390fd5b7f360894a13ba1a3210667c828492db98dca3e2076cc3735a920a3ca505d382bbc80546001600160a01b0319166001600160a01b0392909216919091179055565b80356001600160a01b03811681146101b257600080fd5b919050565b803561ffff811681146101b257600080fd5b600080600080600080600060e0888a0312156101e3578283fd5b6101ec8861019b565b96506101fa602089016101b7565b95506102086040890161019b565b9450610216606089016101b7565b93506080880135925061022b60a089016101b7565b915060c088013590509295989194975092955056fea2646970667358221220dc1749a16f5d1c21898ec5b3a4dd0a673e6f2494310685014340e0945a35f19064736f6c63430008040033",
  "immutableReferences": {},
  "source": "// contracts/PythSetup.sol\n// SPDX-License-Identifier: Apache 2\n\npragma solidity ^0.8.0;\npragma experimental ABIEncoderV2;\n\nimport \"./PythSetters.sol\";\n\nimport \"@openzeppelin/contracts/proxy/ERC1967/ERC1967Upgrade.sol\";\n\ncontract PythSetup is PythSetters, ERC1967Upgrade {\n    function setup(\n        address implementation,\n\n        uint16 chainId,\n        address wormhole,\n\n        uint16 governanceChainId,\n        bytes32 governanceContract,\n\n        uint16 pyth2WormholeChainId,\n        bytes32 pyth2WormholeContract\n    ) public {\n        setChainId(chainId);\n\n        setWormhole(wormhole);\n\n        setGovernanceChainId(governanceChainId);\n        setGovernanceContract(governanceContract);\n\n        setPyth2WormholeChainId(pyth2WormholeChainId);\n        setPyth2WormholeContract(pyth2WormholeContract);\n\n        _upgradeTo(implementation);\n    }\n}\n",
  "sourcePath": "/Users/nguyenthithuthao/Downloads/Documents/wormhole-kip7/contracts/pyth/PythSetup.sol",
  "compiler": {
    "name": "solc",
    "version": "0.8.4+commit.c7e474f2.Emscripten.clang"
  },
  "schemaVersion": "3.4.1",
  "updatedAt": "2022-01-26T09:33:50.736Z",
  "devdoc": {
    "kind": "dev",
    "methods": {},
    "version": 1
  },
  "userdoc": {
    "kind": "user",
    "methods": {},
    "version": 1
  }
}